:03000000020003F8
:10005C0002005F12006B80FE438E0C900000221297
:10006C000F7390100074B8F0A3740BF09000001292
:10007C00110F900BC0E4F0A3F0900BBCE4F0A3F0D4
:10008C00900BBAE4F0A3F0900BB87402F0E4A3F078
:10009C00900BBEE4F0A3F01201FF901DDF75F08011
:1000AC00120F16901DF775F080120F16120F82AA00
:1000BC0082900FCFEAF07B008A828B83120F919093
:1000CC001E1175F080120F16900FCFE0FABA410096
:1000DC004032EA24A5402D900BBAE0FBA3E0FC9043
:1000EC000BBA74012BF0E43CA3F0900BBCE0FBA327
:1000FC00E0FC900BBC74012BF0E43CA3F08A821260
:10010C00068D80A8900FCFE0FABA30004033EA2475
:10011C00C6402E900BBAE0FBA3E0FC900BBA740126
:10012C002BF0E43CA3F0900BBCE0FBA3E0FC900BA9
:10013C00BC74012BF0E43CA3F08A8212074002004D
:10014C00B8900FCFE0FABA2B19120438900BBCE020
:10015C00FBA3E0FC900BBC74012BF0E43CA3F0027D
:10016C0000B8BA2D19900BBCE0FBA3E0FC900BBCC3
:10017C0074012BF0E43CA3F01205DD0200B8BA3F89
:10018C0019900BBCE0FBA3E0FC900BBC74012BF0B2
:10019C00E43CA3F01208590200B8BA3D19900BBC0C
:1001AC00E0FBA3E0FC900BBC74012BF0E43CA3F04F
:1001BC00120C960200B8BA3E19900BBCE0FBA3E0FF
:1001CC00FC900BBC74012BF0E43CA3F0120546022E
:1001DC0000B8BA400280030200B8900BBCE0FAA34E
:1001EC00E0FB900BBC74012AF0E43BA3F01207F384
:1001FC0002007E900BC2E4F0A3F0900BC4E4F0A3D9
:10020C00F0900DC8E4F0A3F0A3F0900DCBE4F0A3B4
:10021C00F0A3F0901E1375F080120F16901E167539
:10022C00F080120F16120375AA82AB83900FD9EAD5
:10023C00F0A3EBF08A048B05C3741F9CE49D400370
:10024C000202DB8A048B05C3EC94F1ED940A4003A3
:10025C000202DB8A048B05EC540F600280668A82F2
:10026C008B83121190AA82AB83900BC2EAF0A3EBA2
:10027C00F0EA4B7009901E5575F080120F16900F16
:10028C00D9E0FAA3E0FB8A828B83121190AA82AB8D
:10029C0083900BC4EAF0A3EBF0EA4B703B901E6D1D
:1002AC0075F080120F16901E8575F080120F169047
:1002BC000BC2E0FAA3E0FB7C008A828B838CF012E9
:1002CC0010218014901EA575F080120F16800990D5
:1002DC001EDD75F080120F16900BC2E0FAA3E0FB46
:1002EC004A7003020231900BC4E0FAA3E0FB4A709F
:1002FC0003020231901F1375F080120F16900BBE83
:10030C00E0FAA3E0FB900BBE74022AF0E43BA3F0EE
:10031C00900FD9E0FAA3E0FB900DCEEAF0A3EBF03E
:10032C00900DD0EAF0A3EBF0900BC2E0FAA3E0FB47
:10033C00900DC2EAF0A3EBF0A37400F0900BC4E0B4
:10034C00FCA3E0FD900DC5ECF0A3EDF0A37400F060
:10035C00900DC8EAF0A3EBF0A37400F0900DCBEC79
:10036C00F0A3EDF0A37400F022900FD7E4F0A3F00B
:10037C00120F82AA82901042EAF08A03BB3000402E
:10038C00508A03EB24C64049900FD7E0FBA3E0FC56
:10039C0090100D740AF0E4A3F08B828C83C00212CF
:1003AC0013EDAB82AC83D0027D00EA24D0FEED3499
:1003BC00FFFF900FD7EE2BF0EF3CA3F08A828D83DA
:1003CC00120F91900FD1E0FA900FD174012AF080A6
:1003DC003D901042E0FABA7F27900FD7E0FBA3E0E4
:1003EC00FC900FF8740AF0E4A3F08B828C8312104B
:1003FC0074E5828583F0900FD7F0A3E5F0F0800EC2
:10040C00BA0D028009901F3475F080120F169010EF
:10041C0042E0FABA0D02800302037C900FD1E4F0A3
:10042C00900FD7E0FAA3E08A82F58322901E137511
:10043C00F080120F16901F4675F080120F161203E3
:10044C0075AA82AB83900FD9EAF0A3EBF08A048BE8
:10045C0005C3EC9414ED940050030205168A048B2A
:10046C0005C374909C74019D5003020516900BB843
:10047C00E0FCA3E0FDCC25E0CC33FDEC24C2FCED8C
:10048C00340BFD8A828B83C004C005121190AA82A2
:10049C00AB83D005D0048C828D83EAF0A3EBF0EA19
:1004AC004B700B901F7375F080120F168065901FA8
:1004BC009075F080120F16900BB8E0FAA3E0FB8A4F
:1004CC0004CC25E0CC33FDEC24CEFEED340DFF90B6
:1004DC000FD9E0F8A3E0F98E828F83E8F0A3E9F05E
:1004EC00EC24C2F582ED340BF583E0FCA3E0FDC0F7
:1004FC0002C003C004C00574A5C0E0741FC0E012A4
:10050C0012E5E58124FAF5818009901FD175F08000
:10051C00120F16900BB8E0FAA3E0FB900BB8740125
:10052C002AF0E43BA3F0900BBEE0FAA3E0FB900BA7
:10053C00BE74012AF0E43BA3F02274EDC0E0741FFA
:10054C00C0E01212E5158115817449C0E07420C019
:10055C00E01212E5158115817466C0E07420C0E0CC
:10056C001212E515811581747DC0E07420C0E01273
:10057C0012E51581158174A4C0E07420C0E012123C
:10058C00E51581158174F2C0E07420C0E01212E50B
:10059C0015811581741CC0E07421C0E01212E515A0
:1005AC008115817447C0E07421C0E01212E51581F9
:1005BC00158174EDC0E0741FC0E01212E5158115B1
:1005CC00817471C0E07421C0E01212E515811581AF
:1005DC0022901E1375F080120F1690219675F080E4
:1005EC00120F16120375AA82AB83900FD9EAF0A3EF
:1005FC00EBF08A048B05900BB8E0FEA3E0FFC3EE92
:10060C009CEF9D400CBA0105BB00028004EA4B70C4
:10061C00099021CA75F080020F16EBCA25E0CA3387
:10062C00FBEA24C2F582EB340BF583E0FAA3E0FB82
:10063C004A70099021CA75F080020F167C008A82DC
:10064C008B838CF0121021900FD9E0FAA3E0FBCA37
:10065C0025E0CA33FBEA24C2F582EB340BF583E4C4
:10066C00F0A3F0900BBEE0FAA3E0FB1ABAFF011B5B
:10067C00900BBEEAF0A3EBF09021F075F080020F26
:10068C0016E582900FDBF0900DC8E0FAA3E0FBA317
:10069C00E0FC8A078B00900DC2E0F514A3E0F51581
:1006AC00A3E0F516AD14AE15900DCEE0F512A3E057
:1006BC00F513E5122DFDE5133EFE1DBDFF011EC316
:1006CC00EF9DE89E501D900FDBE0FD8A828B838CA2
:1006DC00F01212CC900DC874012AF0E43BA3F0A3E5
:1006EC00ECF0228A058B06AF14A815A916E5122F7B
:1006FC00FFE51338F81FBFFF0118EDB50735EEB550
:10070C000031900FDBE0FD8A828B838CF01212CCCF
:10071C00900DC874012AF0E43BA3F0A3ECF0900D0B
:10072C00C8E0FAA3E0FBA3E0FC8A828B838CF0E4A4
:10073C000212CC22E582900FDCF0900DCBE0FAA3F4
:10074C00E0FBA3E0FC8A078B00900DC5E0F514A339
:10075C00E0F515A3E0F516AD14AE15900DD0E0F54F
:10076C0012A3E0F513E5122DFDE5133EFE1DBDFFB2
:10077C00011EC3EF9DE89E501D900FDCE0FD8A82A8
:10078C008B838CF01212CC900DCB74012AF0E43BCD
:10079C00A3F0A3ECF0228A058B06AF14A815A916BA
:1007AC00E5122FFFE51338F81FBFFF0118EDB50751
:1007BC0035EEB50031900FDCE0FD8A828B838CF036
:1007CC001212CC900DCB74012AF0E43BA3F0A3ECF5
:1007DC00F0900DCBE0FAA3E0FBA3E0FC8A828B83C4
:1007EC008CF0E40212CC227A007B00900BB8E0FC77
:1007FC00A3E0FDC3EA9CEB9D50528A04EBCC25E0B0
:10080C00CC33FDEC24C2F582ED340BF583E0FCA374
:10081C00E0FD4C60307E008C828D838EF0C002C077
:10082C0003121021D003D002C002C003C002C003C7
:10083C007401C0E07422C0E01212E5E58124FCF5DD
:10084C0081D003D0020ABA00A20B809F22900FDD48
:10085C00E4F0A3F0900FDFE4F0A3F0901E1375F01A
:10086C0080120F167415C0E07422C0E01212E51548
:10087C008115817471C0E07422C0E01212E51581FB
:10088C001581900BBEE0C0E0A3E0C0E074CBC0E0EB
:10089C007422C0E01212E5E58124FCF581901E1350
:1008AC0075F080120F167471C0E07422C0E0121241
:1008BC00E515811581900BBCE0C0E0A3E0C0E074AD
:1008CC00EBC0E07422C0E01212E5E58124FCF58156
:1008DC00900BBAE0C0E0A3E0C0E07418C0E0742351
:1008EC00C0E01212E5E58124FCF581900BC0E0FA22
:1008FC00A3E0FB900BBCE0FCA3E0FDECC39AFAED8B
:10090C009BFBC002C003744BC0E07423C0E0121206
:10091C00E5E58124FCF5817485C0E07423C0E01208
:10092C0012E515811581901E1375F080120F16902B
:10093C000BBCE0FAA3E0FB900BC0EAF0A3EBF07A5F
:10094C00007B00900DC2E0FCA3E0FDA3E0FE8C82D6
:10095C008D838EF0121DA6FF601D0ABA00010B904C
:10096C000FDDEAF0A3EBF0900DC274012CF0E43D26
:10097C00A3F0A3EEF080CC900FDDEAF0A3EBF0C077
:10098C0002C003C002C00374E1C0E07423C0E012D3
:10099C0012E5E58124FCF581D003D002900DCEE068
:1009AC00FCA3E0FDECC39AFCED9BFDC002C003C0B0
:1009BC0004C005740AC0E07424C0E01212E5E5819D
:1009CC0024FCF581D003D002900DC2E0FCA3E0FD25
:1009DC00A3E0FE900DC2ECC39AF0ED9BA3F0A3EE46
:1009EC00F07A007B00900DC5E0FCA3E0FDA3E0FED7
:1009FC008C828D838EF0121DA6FF601D0ABA000139
:100A0C000B900FDFEAF0A3EBF0900DC574012CF006
:100A1C00E43DA3F0A3EEF080CC900FDFEAF0A3EB63
:100A2C00F0C002C003C002C0037432C0E07424C022
:100A3C00E01212E5E58124FCF581D003D002900D83
:100A4C00D0E0FCA3E0FDECC39AFCED9BFDC002C022
:100A5C0003C004C005740AC0E07424C0E01212E59F
:100A6C00E58124FCF581D003D002900DC5E0FCA3F8
:100A7C00E0FDA3E0FE900DC5ECC39AF0ED9BA3F056
:100A8C00A3EEF0901E1375F080120F167485C0E063
:100A9C007423C0E01212E515811581901E1375F0B8
:100AAC0080120F167A007B00900BB8E0FCA3E0FDDF
:100ABC00C3EA9CEB9D4003020BCB8A04EBCC25E0F4
:100ACC00CC33FDEC24C2F582ED340BF583E0FEA3B0
:100ADC00E0FF4E7003020BC3C002C003C004C0058C
:100AEC00C002C0037459C0E07424C0E01212E5E5E2
:100AFC008124FCF581D005D004D003D002EC24C2B3
:100B0C00F582ED340BF583E0FEA3E0FFC002C003D9
:100B1C00C004C005C006C0077471C0E07424C0E0F6
:100B2C001212E5E58124FCF581D005D004D003D068
:100B3C0002EC24C2F582ED340BF583E0FEA3E0FF5A
:100B4C00EC24CEF582ED340DF583E0F8A3E0F9E862
:100B5C002EFEE93FFFC002C003C004C005C006C0A2
:100B6C0007748BC0E07424C0E01212E5E58124FC0C
:100B7C00F581D005D004D003D002EC24CEF582ED63
:100B8C00340DF583E0FCA3E0FDC002C003C004C03B
:100B9C000574A3C0E07424C0E01212E5E58124FCC6
:100BAC00F581D003D002901E1375F080C002C003F3
:100BBC00120F16D003D0020ABA00010B020AB47449
:100BCC0071C0E07422C0E01212E5158115819024E9
:100BDC00B975F080120F16900DC2E0FAA3E0FBA3DA
:100BEC00E0FC8A828B838CF0120E57900FDDE0FABA
:100BFC00A3E0FB900DC8E0FCA3E0FDA3E0FE900D8C
:100C0C00C8ECC39AF0ED9BA3F0A3EEF0901E137505
:100C1C00F080120F167485C0E07423C0E01212E548
:100C2C00158115819024D175F080120F16900DC589
:100C3C00E0FAA3E0FBA3E0FC8A828B838CF0120E1B
:100C4C0057900FDFE0FAA3E0FB900DCBE0FCA3E0A4
:100C5C00FDA3E0FE900DCBECC39AF0ED9BA3F0A3AB
:100C6C00EEF0901E1375F080120F167485C0E074B0
:100C7C0023C0E01212E51581158174E9C0E07424DB
:100C8C00C0E01212E51581158122901E1375F080BB
:100C9C00120F169024B975F080120F1690000012E6
:100CAC000CCF901E1375F080120F1690254375F023
:100CBC0080120F16900001120CCF901E1375F0804D
:100CCC00020F16AA83E582900FE1F0A3EAF0900FD1
:100CDC00E3E4F0A3F0900FE1E0FAA3E0FBCA25E017
:100CEC00CA33FBEA24C2F50AEB340BF50BAE0AAFA0
:100CFC000B8E828F83E0F8A3E0F988828983E07001
:100D0C0003020E36C006C00788068907C002C0035E
:100D1C00C006C007C006C0077459C0E07425C0E007
:100D2C007480C0E0121507E58124FBF581D007D053
:100D3C0006D003D002D007D006900FE3E0F8A3E072
:100D4C00F9750801E4F509C006C00790100F74117D
:100D5C00F0E4A3F0850882850983C002C003C000BB
:100D6C00C00112140DAE82AF83D001D000D003D0DD
:100D7C0002E4BE0004BF000104D007D006600302E9
:100D8C000E12C006C007850A82850B83E0FEA3E025
:100D9C00FF8E828F83E0FCD007D006EC6068C00623
:100DAC00C0078C067F00C002C003C006C007C0008D
:100DBC00C001C006C0077463C0E07425C0E0121205
:100DCC00E5E58124FCF581D001D000D007D006D018
:100DDC0003D002EA24C2FEEB340BFF8E828F83E039
:100DEC00FCA3E0FD0CBC00010D8E828F83ECF0A304
:100DFC00EDF008B80001090508E4B508020509D0B2
:100E0C0007D006020D53900FE3E8F0A3E9F0901E13
:100E1C001375F080C002C003C006C007120F16D0B5
:100E2C0007D006D003D002020CFD900FE3E0FAA32A
:100E3C00E0FBE8C39AF8E99BF98E828F83E8F0A374
:100E4C00E9F0901E1375F080020F16AAF0AB83E543
:100E5C0082900FE5F0A3EBF0A3EAF0900FE8E4F03A
:100E6C00A3F0900FE5E0FAA3E0FBA3E0FC8A828BF1
:100E7C00838CF0121DA67003020F0A8A828B838C5E
:100E8C00F0121DA6FD3395E0FE8D828E83C002C04C
:100E9C0003C004120F91D004D003D002900FE8E0ED
:100EAC00FDA3E0FE900FE874012DF0E43EA3F08A60
:100EBC00828B838CF0E41212CC900FE8E0FDA3E05F
:100ECC00FEC3743F9DE49E5022900FE8E4F0A3F023
:100EDC00C002C003C0047413C0E0741EC0E0121240
:100EEC00E515811581D004D003D0020ABA00010B9C
:100EFC00900FE5EAF0A3EBF0A3ECF0020E79900F63
:100F0C00E5EAF0A3EBF0A3ECF022AAF0AB83E582C8
:100F1C00900FEAF0A3EBF0A3EAF0900FEAE0FAA34B
:100F2C00E0FBA3E0FC8A828B838CF0121DA6FD6093
:100F3C002AED3395E0FE8D828E83C002C003C0047F
:100F4C00120F91D004D003D0020ABA00010B900FFB
:100F5C00EAEAF0A3EBF0A3ECF080CA900FEAEAF017
:100F6C00A3EBF0A3ECF022758920758DFD759850DC
:100F7C00D28E75A890223098FDAA99900FCEEAF0E7
:100F8C00C2988A8222AA83E582900FEDF0A3EAF040
:100F9C00900FEDE0FAA3E0FB8A9910990280FB22F6
:101DDF000A0D456E746572207468652063686172C0
:101DEF0061637465720A0D00507265737320273E2C
:101DFF002720666F722068656C70206D656E750A9E
:101E0F000D0020000A0D00496E7075742062756612
:101E1F006665722073697A65206265747765656E91
:101E2F0020333220616E6420323830302062797472
:101E3F0065732C20646976697369626C65206279B9
:101E4F002031360A0D006D616C6C6F632062756610
:101E5F0066657230206661696C65640A0D006D619C
:101E6F006C6C6F632062756666657231206661699E
:101E7F006C65640A0D00456E74657220736D616C3C
:101E8F006C65722073697A6520666F722062756661
:101E9F006665720A0D000A0D456E746572207468CE
:101EAF006520636F72726563742062756666657212
:101EBF002073697A652076616C756520646976692F
:101ECF007369626C652062792031360A0D000A0D44
:101EDF00456E7465722074686520636F72726563F6
:101EEF0074206275666665722073697A6520626513
:101EFF00747765656E20333220616E64203238301E
:101F0F00300A0D000A0D42756666657220616C6CB1
:101F1F006F636174696F6E20737563636573736646
:101F2F00756C0A0D000A0D456E746572204E756D45
:101F3F00626572730A0D000A0D456E746572207426
:101F4F006865206275666665722073697A652062BE
:101F5F0065747765656E20323020616E6420343091
:101F6F00300A0D000A0D42756666657220616C6C51
:101F7F006F636174696F6E206661696C65640A0DC9
:101F8F00000A0D42756666657220416C6C6F636165
:101F9F007465640A0D00427566666572206164643B
:101FAF007265737320616E64206275666665722058
:101FBF006E756D62657220307825782C2025640A45
:101FCF000D000A0D4E6F7420612076616C696420DC
:101FDF006275666665722073697A650A0D000A0D6F
:101FEF007E7E7E7E7E7E7E7E7E7E7E7E7E7E7E7E02
:101FFF007E7E7E7E7E7E7E7E7E7E7E7E7E7E7E7EF2
:10200F007E48454C50204D454E557E7E7E7E7E7ED1
:10201F007E7E7E7E7E7E7E7E7E7E7E7E7E7E7E7ED1
:10202F007E7E7E7E7E7E7E7E7E7E7E7E7E7E7E7EC1
:10203F007E7E7E7E7E7E7E0A0D000A0D20272B2758
:10204F0020416C6C6F63617465206E6577206275DB
:10205F00666665720A0D0020272D272044656C6582
:10206F0074652061206275666665720A0D0020270F
:10207F004027205374617274206F766572206672E8
:10208F006F6D20616C6C6F636174696E672068653A
:10209F0061700A0D0020273F2720446973706C611F
:1020AF007920616C6C206275666665722064657458
:1020BF0061696C7320616E6420627566666572304B
:1020CF002C206275666665723120636F6E74656E63
:1020DF00747320616E64206572617365206974206A
:1020EF000A0D0020273D2720446973706C61792009
:1020FF0074686520636F6E74656E7473206F6620ED
:10210F00746865206275666665720A0D0020456EFB
:10211F00746572204361706974616C20616C7068C2
:10212F00616265747320746F2066696C6C206275D0
:10213F0066666572300A0D0020456E746572204E1A
:10214F00756D65726963616C2076616C756573205E
:10215F00746F2066696C6C20627566666572310AF1
:10216F000D000A0D0A0D20456E74657220746865A6
:10217F00206F7074696F6E206F7220436861726197
:10218F00637465720A0D000A0D456E7465722074D2
:10219F00686520627566666572206E756D62657220
:1021AF002077686963682068617320746F206265A7
:1021BF002064656C657465640A0D00456E74657204
:1021CF002076616C696420627566666572206E7533
:1021DF006D626572206E6578742074696D650A0D85
:1021EF00004275666665722064656C657465640A85
:1021FF000D0044656C657465642025642062756606
:10220F006665720A0D000A0D7E7E7E7E7E7E7E7E64
:10221F007E7E7E7E7E7E7E7E7E7E7E7E7E7E7E7ECF
:10222F007E7E7E7E7E7E7E444953504C4159494E80
:10223F00472044455441494C537E7E7E7E7E7E7EB0
:10224F007E7E7E7E7E7E7E7E7E7E7E7E7E7E7E7E9F
:10225F007E7E7E7E7E7E7E7E7E7E7E7E7E7E7E0A03
:10226F000D007E7E7E7E7E7E7E7E7E7E7E7E7E7E6E
:10227F007E7E7E7E7E7E7E7E7E7E7E7E7E7E7E7E6F
:10228F007E7E7E7E7E7E7E7E7E7E7E7E7E7E7E7E5F
:10229F007E7E7E7E7E7E7E7E7E7E7E7E7E7E7E7E4F
:1022AF007E7E7E7E7E7E7E7E7E7E7E7E7E7E7E7E3F
:1022BF007E7E7E7E7E7E7E7E7E0A0D000A0D546FB0
:1022CF0074616C204E756D626572206F6620427569
:1022DF0066666572203D2025640A0D000A0D546F55
:1022EF0074616C206E756D626572206F6620636815
:1022FF006172616374657273207265636569766577
:10230F0064203D2025640A0D00546F74616C206EAB
:10231F00756D626572206F662073746F7261676589
:10232F00206368617261637465727320726563659F
:10233F0069766564203D2025640A0D00546F746131
:10234F006C206E756D626572206F662063686172B6
:10235F006163746572732072656365697665642065
:10236F0073696E6365206C61737420273F27203D6E
:10237F002025640A0D000A0D7E7E7E7E7E7E7E7E87
:10238F007E7E7E7E7E7E7E7E7E7E7E7E7E7E7E7E5E
:10239F007E7E7E7E7E7E7E7E7E7E7E7E7E7E7E7E4E
:1023AF007E7E7E7E7E7E7E7E7E7E7E7E7E7E7E7E3E
:1023BF007E7E7E7E7E7E7E7E7E7E7E7E7E7E7E7E2E
:1023CF007E7E7E7E7E7E7E7E7E7E7E7E7E7E7E0A92
:1023DF000D000A0D4E756D626572206F6620636881
:1023EF00617261637465727320696E2062756666CF
:1023FF00657230203D2025640A0D004E756D6265B3
:10240F0072206F66206672656520737061636573F5
:10241F0020696E2062756666657230203D202564E6
:10242F000A0D004E756D626572206F6620636861DC
:10243F007261637465727320696E2062756666657A
:10244F007231203D2025640A0D0042756666657263
:10245F0020256420496E666F726D6174696F6E0A14
:10246F000D005374617274696E67206164647265E4
:10247F007373203D20307825780A0D00456E64690E
:10248F006E672061646472657373203D2030782518
:10249F00780A0D00416C6C6F636174656420736919
:1024AF007A65203D2025640A0D000A0D436F6E7476
:1024BF00656E7473206F6620427566666572300AAA
:1024CF000D000A0D436F6E74656E7473206F662076
:1024DF00427566666572310A0D007E7E7E7E7E7E57
:1024EF007E7E7E7E7E7E7E7E7E7E7E7E7E7E7E7EFD
:1024FF007E7E7E7E7E7E7E7E7E7E444953504C4124
:10250F0059454420414C4C2044455441494C537E3D
:10251F007E7E7E7E7E7E7E7E7E7E7E7E7E7E7E7ECC
:10252F007E7E7E7E7E7E7E7E7E7E7E7E7E7E7E7EBC
:10253F007E0A0D00436F6E74656E7473206F662094
:10254F00427566666572310A0D0030782530347831
:08255F003A202000257820003D
:012572000068
:100FAC00AA83E582900FF1F0A3EAF0900FF1E0FA3A
:100FBC00A3E0FB4A700490000022EA24FCFAEB3414
:100FCC00FFFB900FFEE0FCA3E0FD900FF3ECF0A311
:100FDC00EDF0900FEFE4F0A3F0900FF3E0FCA3E042
:100FEC00FD4C6025EAB50406EBB50502801B900F9D
:100FFC00EFECF0A3EDF08C828D83E0FCA3E0FD9090
:10100C000FF3ECF0A3EDF080D0900FF3E0FAA3E037
:10101C008A82F58322AAF0AB83E582900FF5F0A3C8
:10102C00EBF0A3EAF0900FF5E0FAA3E0FBA3E0FCF1
:10103C008A828B83120FACAA82AB83EA4B60289016
:10104C000FEFE0FCA3E0FD4C700B8A828B83A3A313
:10105C00E4F0A3F0228A828B83E0FAA3E0FB8C827B
:10106C008D83EAF0A3EBF022AA83E582900FFAF0CD
:10107C00A3EAF0900FFCE4F0A3F0900FF8E0FAA3D1
:10108C00E0FB7C10900FFAE0FDA3E0FE339200EE43
:10109C00CD25E0CD33FE900FFAEDF0A3EEF0900FDE
:1010AC00FCE0FDA3E0FECD25E0CD33FE900FFCED82
:1010BC00F0A3EEF0300012900FFCE0FDA3E0FE90E8
:1010CC000FFC74014DF0A3EEF0900FFCE0FDA3E0DB
:1010DC00FEC3ED9AEE9B401D900FFCEDC39AF0EE13
:1010EC009BA3F0900FFAE0FDA3E0FE900FFA7401C1
:1010FC004DF0A3EEF0DC8D900FFAE0FAA3E08A82BB
:03110C00F5832246
:06003200E478FFF6D8FDA2
:100010007901E94400601B7A01902572784275A04D
:1000200010E493F2A308B8000205A0D9F4DAF2753F
:02003000A0FF2F
:10110F00AA83E582901002F0A3EAF0901002E0FAB1
:10111F00A3E0FB901004EAF0A3EBF0EA4B702090F1
:10112F00100474012AF0E43BA3F0901000E0FAA33E
:10113F00E0FB1ABAFF011B901000EAF0A3EBF0904E
:10114F001004E0FAA3E0FB900FFEEAF0A3EBF0909F
:10115F001000E0FCA3E0FDEC2AFCED3BFDEC24FECF
:10116F00FCED34FFFD8A828B83ECF0A3EDF08C82D3
:10117F008D83E4F0A3F08A828B83A3A3E4F0A3F022
:10118F0022AA83E582901006F0A3EAF0901006E001
:10119F00FAA3E0FBC374FB9A74FF9B50049000000A
:1011AF002290100674042AF0E43BA3F0900FFEE0A7
:1011BF00FAA3E0FB901008EAF0A3EBF0901006E022
:1011CF00F512A3E0F513901008E0FCA3E0FD8C826C
:1011DF008D83E0FEA3E0FF8E008F018C028D03E86C
:1011EF00C39AF8E99BF98C828D83A3A3E0FAA3E05D
:1011FF00FBE8C39AF8E99BF9C3E89512E995134008
:10120F000D90100A74042CF0E43DA3F0802390108D
:10121F0008EEF0A3EFF0901008E0FAA3E0FB8A824B
:10122F008B83E0FAA3E0FB4A709C90100AE4F0A3D2
:10123F00F090100AE0FAA3E0FB4A70030212C0908C
:10124F001008E0FAA3E0FB74022AFCE43BFD8C8259
:10125F008D83E0FEA3E0FF4E7013901006E0F8A31D
:10126F00E0F98C828D83E8F0A3E9F08044EE2AFE4A
:10127F00EF3BFF8A828B83E0FCA3E0FD8E828F839E
:10128F00ECF0A3EDF08A828B83EEF0A3EFF0740203
:10129F002EFAE43FFB901006E0FCA3E0FD8A828B60
:1012AF0083ECF0A3EDF090100A74042EF0E43FA34A
:1012BF00F090100AE0FAA3E08A82F5832220F7105B
:1012CF0030F6118883A88220F507F6A8837583006E
:1012DF0022F280F7F022C00C85810CE50C24FDF87A
:1012EF00868318868218E493A324DB600C24256080
:1012FF00051213D280F00213EAD2D5E493A3C08370
:10130F00C082B4731486F018868318868218121D53
:10131F00A66053A31213D280F5B46307E618121315
:10132F00D28043B46417E630E74618E6F42401F69A
:10133F0008E6F43400F6742D1213D28033B4782DEE
:10134F00868318868218E41213C3E5831213C2E54D
:10135F00831213C3E5821213C2E5821213C330D571
:10136F000574301213D2D082D0830212F5B475F601
:10137F00E6FA18E6F9187C107D271213ADFF7CE80A
:10138F007D031213ADC4F5837C647D001213AD424F
:10139F0083E975F00A84C445F0F582EF80A97B00DC
:1013AF000BC3E99CF9EA9DFA50F61BE92CF9EA3DCB
:1013BF00FAEB22C4540F700320D51FC2D52490D44A
:1013CF003440D4C083C082C0F0F582E8C0E0120F71
:1013DF0091D0E0F8D0F0D082D08322D00C22AA8313
:1013EF00AB828BF090100DE0A4F8A9F08AF0E0A486
:1013FF0029F98BF0A3E0A429F58388822222AA83FE
:10140F00E582901011F0A3EAF0901013E4F0901021
:10141F0011E0FAA3E0FB7C0090100FE0FDA3E0FECB
:10142F00235401FF7037EECD25E0CD33FE90100F22
:10143F00EDF0A3EEF090100FE0FDA3E0FEC3EA9DE8
:10144F00EB9E5011EEC313CD13CDFE90100FEDF0A8
:10145F00A3EEF080080C901013ECF080BB901013EB
:10146F00E0FA901011E0FBA3E0FC90100FE0FDA359
:10147F00E0FEC3EB9DEC9E400B901011EBC39DF073
:10148F00EC9EA3F090100FE0FBA3E0FCC313CB1373
:10149F00CBFC90100FEBF0A3ECF08A031AEB70C2A9
:0C14AF00901011E0FAA3E08A82F583227D
:100038007800E84400600A790075A000E4F309D864
:10004800FC7842E84410600C7911900000E4F0A3B9
:04005800D8FCD9FAFD
:1014BB00C00C85810CAA82120F91D00C22AAF0AB22
:1014CB0083E582901015F0A3EBF0A3EAF0901015D2
:1014DB00E0FAA3E0FBA3E0FC901014E0FD901028D1
:1014EB00E4F0A3F0A3F090102BEAF0A3EBF0A3EC45
:1014FB00F090102EEDF09014BB021620C00C8581DD
:10150B000CE50C24FBFA901028E4F0A3F0A3F0E513
:10151B000C24FBF890102BE6F008A3E6F008A3E6EA
:10152B00F090102EEAF09014BB121620AA82AB8317
:10153B00D00C22E582901024F0901024E0FA901049
:10154B001AE0C0E0A3E0C0E0A3E0C0E0746CC0E030
:10155B007415C0E0901018E0C0E0A3E0C0E08A82F0
:10156B0022158115811581901022E0FAA3E0FB90E2
:10157B00102274012AF0E43BA3F022E5829010259F
:10158B00F0901025E0FA74302AFA24C6500A74073A
:10159B002AFA3001034302208A8202153EE582902B
:1015AB001026F0901026E0FAC4540FFBF582C0020F
:1015BB00121586D00253020F8A82021586E582909D
:1015CB001027F090101DE0FAA3E0FBA3E0FCA3E0D2
:1015DB00FD901021E0FE901027E0FF7820EE2EFE0C
:1015EB00ED235401F94206EA2AFAEB33FBEC33FC08
:1015FB00ED33FDC3EE9F4007EEC39FFE430201D8C0
:10160B00DC90101DEAF0A3EBF0A3ECF0A3EDF0904F
:10161B001021EEF022AA83E58290102FF0A3EAF0BE
:10162B0090102FE0FAA3E0FB901018EAF0A3EBF078
:10163B00901028E0FAA3E0FBA3E0FC90101AEAF06C
:10164B00A3EBF0A3ECF0901022E4F0A3F090102B9E
:10165B00E0FAA3E0FBA3E0FC8A828B838CF0121DE3
:10166B00A6FD90102B74012AF0E43BA3F0A3ECF041
:10167B00ED7003021D47BD25028003021D3FC20210
:10168B00C203C204C205C206C207C208C209901037
:10169B0031E4F0901032F090103374FFF090102B77
:1016AB00E0FAA3E0FBA3E0FC8A828B838CF0121D93
:1016BB00A6FEA3AA82AB8390102BEAF0A3EBF0A3B8
:1016CB00ECF0901035EEF0BE25088E8212153E021E
:1016DB0016588E07BF300040498E07EF24C6404294
:1016EB00901033E0FFBFFF29C002C003C00490106D
:1016FB0032E0FA75F00AA4FAEE24D09010322AF0F8
:10170B00901032E0FAD004D003D002709BD2038049
:10171B0097EF75F00AA4FFEE24D09010332FF00250
:10172B0016B3901035E0FEBE2E08901033E4F00295
:10173B0016B38E82C002C003C004C006121DC2E5E0
:10174B008224FF9201D006D004D003D002300107CF
:10175B0090103574DF5EF0901035E0FEBE200280F5
:10176B0055BE2B02804BBE2D028041BE4202804BE8
:10177B00BE43028050BE44030219B4BE4603021995
:10178B00D6BE49030219B4BE4C028034BE4F0302CD
:10179B0019BEBE5003021916BE53028042BE55033A
:1017AB000219C6BE58030219CE0219DAD20202166A
:1017BB00B3D2040216B3D2050216B3D2070216B384
:1017CB00D2080216B390102EE0FA24FEF890102ED9
:1017DB00F08602088603188A8212153E0219E690DB
:1017EB00102EE0FA24FDF890102EF08602088603E6
:1017FB00088604181890101DEAF0A3EBF0A3ECF088
:10180B0090101DE0FAA3E0FBA3E0FC8A828B838C93
:10181B00F0121D53AA82AB83901033E0FBBBFF0584
:10182B00901033EAF0200238901032E0FBC3EA9BB1
:10183B00502E901032EBC39AF0901032E0FB8B04D9
:10184B001B901032EBF0BC00028010758220C0029E
:10185B00C00312153ED003D00280E3901032EBF0A0
:10186B00901033E0FDC00290101DE0FCA3E0FFA33D
:10187B00E0FA8C828F838AF0121DA6D00260538D02
:10188B00041DC374808CF063F08095F05044C0024B
:10189B0090101DE0F50DA3E0F50EA3E0F50F74011C
:1018AB00250DFBE4350EFAAC0F90101DEBF0A3EAFF
:1018BB00F0A3ECF0850D82850E83850FF0121DA62B
:1018CB00FAF582C002C00512153ED005D002D00237
:1018DB0080932002030219E6901032E0FBC3EA9BCF
:1018EB0040030219E6901032EBC39AF0901032E0ED
:1018FB00FA8A031A901032EAF0BB00030219E17561
:10190B008220C00212153ED00280E690102EE0FB22
:10191B0024FDF890102EF08603088604088607181D
:10192B001890101DEBF0A3ECF0A3EFF090101FE05C
:10193B00FB247F50089010357443F08020EB249FDC
:10194B0050089010357450F08013EB24BF50089062
:10195B0010357449F080069010357458F09010359E
:10196B00E0FBF582C00312153ED00375823AC0032B
:10197B0012153ED003758230C00312153ED003758D
:10198B008278C00312153ED003BB4902800FBB50B7
:10199B0002800A90101EE0FBF5821215A890101D14
:1019AB00E0FBF5821215A88032D206901031740A32
:1019BB00F080289010317408F08020901031740A58
:1019CB00F080189010317410F08010D209800C8EBA
:1019DB008212153E8005901032EAF030096B9010A0
:1019EB002EE0FA24FCF890102EF0860208860308ED
:1019FB00860408860618181890101DEAF0A3EBF061
:101A0B00A3ECF0A3EEF090101D7467F0A37425F017
:101A1B00A37480F090101DE0FBA3E0FCA3E0FD7429
:101A2B00012BFEE43CFF8D0290101DEEF0A3EFF0B6
:101A3B00A3EAF08B828C838DF0121DA6FA70030241
:101A4B0016588A8212153E80CB901031E0FABA00FC
:101A5B000302165890103C743BF0A37410F030073F
:101A6B004C90102EE0FA14F890102EF08602EA3308
:101A7B0095E0FBFCFE90101DEAF0A3EBF0A3ECF05D
:101A8B00A3EEF0300603021B2E90101DE0FAA3E02C
:101A9B00FBA3E0FCA3E0FE7B007C007E0090101D0E
:101AAB00EAF0A3EBF0A3ECF0A3EEF0807630082A7B
:101ABB0090102EE0FA24FCF890102EF08602088687
:101ACB000308860408860618181890101DEAF0A360
:101ADB00EBF0A3ECF0A3EEF0804990102EE0FA248B
:101AEB00FEF890102EF0860208860318EB3395E073
:101AFB00FCFE90101DEAF0A3EBF0A3ECF0A3EEF0CC
:101B0B0020062090101DE0FAA3E0FBA3E0FCA3E06D
:101B1B00FE7C007E0090101DEAF0A3EBF0A3ECF02E
:101B2B00A3EEF030063E90101DE0FAA3E0FBA3E01D
:101B3B00FCA3E0FE30E72B90101DE0FAA3E0FBA323
:101B4B00E0FCA3E0FEC3E49AFAE49BFBE49CFCE418
:101B5B009EFE90101DEAF0A3EBF0A3ECF0A3EEF0C9
:101B6B008002C206D20A901031E0FC75103B751151
:101B7B00107D00901021E4F08C82C004C00512157A
:101B8B00C8D005D004200A32C004901021E0FFC455
:101B9B00FF851082851183E0FA420785108285113B
:101BAB0083EFF0151074FFB51002151190103CE582
:101BBB0010F0A3E511F0D004800C901021E0FF850C
:101BCB001082851183F00D901034EDF0B20A901055
:101BDB001DE0FFA3E0FAA3E0FEA3E0FBEF4A4E4BB0
:101BEB00709190103CE510F0A3E511F0901034EDDE
:101BFB00F0901032E0FA70069010327401F020036E
:101C0B002720022474012DFA901032E0FBC3EA9BCB
:101C1B005011758220C002C00312153ED003D002B2
:101C2B001B80EA901032EBF030061275822D1215E4
:101C3B003E901032E0FA14901032F0802F90103456
:101C4B00E0FA602830041275822B12153E90103288
:101C5B00E0FA14901032F0801330051075822012C8
:101C6B00153E901032E0FA14901032F020022F90B3
:101C7B001034E0FA901032E0FB8B041B901032EB27
:101C8B00F0C3EA9C50363003047C3080027C208CFD
:101C9B0082C002C00312153ED003D00280DB90102D
:101CAB0032E0FA901034E0FCC39A5009901032EAFB
:101CBB00C39CF0800C901032E4F08005901032EB56
:101CCB00F090103CE0FAA3E0FB901034E0FC8C06A3
:101CDB001CEE6040B20A200A150ABA00010B8A8278
:101CEB008B83E0FEC4540FFE901021F0800E8A828D
:101CFB008B83E0FE53060F901021EEF0901021E045
:101D0B00FEF582C002C003C004121586D004D003B6
:101D1B00D00280BA200203021658901032E0FA8AE1
:101D2B00031AEB7003021658758220C00212153E7F
:101D3B00D00280EB8D8212153E021658901022E0D5
:081D4B00FAA3E08A82F583226D
:0B2567003C4E4F20464C4F41543E00BC
:101D5300AAF0AB83E58290103EF0A3EBF0A3EAF088
:101D63007A007B0090103EE0FCA3E0FDA3E0FE8C34
:101D7300828D838EF0121DA6FFA3AC82AD839010DB
:101D83003EECF0A3EDF0A3EEF0EF60070ABA00DF3C
:101D93000B80DC90103EECF0A3EDF0A3EEF08A8212
:031DA3008B83220D
:0D000300758121120064E582600302005F38
:101DA60020F71430F6148883A88220F507E6A88366
:101DB60075830022E280F7E49322E022E582901008
:101DC60041F0901041E0FABA61004009EA248540EA
:091DD600047582012275820022CD
:00000001FF
