                              1 ;--------------------------------------------------------
                              2 ; File Created by SDCC : FreeWare ANSI-C Compiler
                              3 ; Version 2.6.0 #4309 (Jul 28 2006)
                              4 ; This file generated Fri Nov 17 00:59:16 2017
                              5 ;--------------------------------------------------------
                              6 	.module main
                              7 	.optsdcc -mmcs51 --model-large
                              8 	
                              9 ;--------------------------------------------------------
                             10 ; Public variables in this module
                             11 ;--------------------------------------------------------
                             12 	.globl _main
                             13 	.globl _ioexpander_config
                             14 	.globl _ioexpander_readdata
                             15 	.globl _ioexpander_writedata
                             16 	.globl _IOexpInit
                             17 	.globl _eereset
                             18 	.globl _clock_reset
                             19 	.globl _timer_isr
                             20 	.globl _external_isr
                             21 	.globl _write_ioexpander
                             22 	.globl _invert_ioexpander
                             23 	.globl _read_ioexpander
                             24 	.globl _lcdtime
                             25 	.globl _Timer0Initialize
                             26 	.globl _custom_character
                             27 	.globl _read_function
                             28 	.globl _help_menu
                             29 	.globl _write_function
                             30 	.globl _readall_function
                             31 	.globl _eebyter
                             32 	.globl _eebytew
                             33 	.globl _clock_func
                             34 	.globl _ninthbit
                             35 	.globl _send_data
                             36 	.globl _send_data_assembly
                             37 	.globl _Master_ack
                             38 	.globl _ackbit
                             39 	.globl _stopbit
                             40 	.globl _startbit
                             41 	.globl _SerialInitialize
                             42 	.globl _delay
                             43 	.globl __sdcc_external_startup
                             44 	.globl _gotoaddress
                             45 	.globl _gotoxy
                             46 	.globl _interactive
                             47 	.globl _ReadVariable
                             48 	.globl _hex2int
                             49 	.globl _display
                             50 	.globl _addcharacter
                             51 	.globl _readinput
                             52 	.globl _ddramdump
                             53 	.globl _lcdcreatechar
                             54 	.globl _cgramdump
                             55 	.globl _lcdinit
                             56 	.globl _lcdputstr
                             57 	.globl _lcdputch
                             58 	.globl _lcdclear
                             59 	.globl _lcdgotoxy
                             60 	.globl _lcdgotoaddr
                             61 	.globl _lcdclockgotoaddr
                             62 	.globl _input_value
                             63 	.globl _lcdbusywait
                             64 	.globl _putstr
                             65 	.globl _MSDelay
                             66 	.globl _P5_7
                             67 	.globl _P5_6
                             68 	.globl _P5_5
                             69 	.globl _P5_4
                             70 	.globl _P5_3
                             71 	.globl _P5_2
                             72 	.globl _P5_1
                             73 	.globl _P5_0
                             74 	.globl _P4_7
                             75 	.globl _P4_6
                             76 	.globl _P4_5
                             77 	.globl _P4_4
                             78 	.globl _P4_3
                             79 	.globl _P4_2
                             80 	.globl _P4_1
                             81 	.globl _P4_0
                             82 	.globl _PX0L
                             83 	.globl _PT0L
                             84 	.globl _PX1L
                             85 	.globl _PT1L
                             86 	.globl _PLS
                             87 	.globl _PT2L
                             88 	.globl _PPCL
                             89 	.globl _EC
                             90 	.globl _CCF0
                             91 	.globl _CCF1
                             92 	.globl _CCF2
                             93 	.globl _CCF3
                             94 	.globl _CCF4
                             95 	.globl _CR
                             96 	.globl _CF
                             97 	.globl _TF2
                             98 	.globl _EXF2
                             99 	.globl _RCLK
                            100 	.globl _TCLK
                            101 	.globl _EXEN2
                            102 	.globl _TR2
                            103 	.globl _C_T2
                            104 	.globl _CP_RL2
                            105 	.globl _T2CON_7
                            106 	.globl _T2CON_6
                            107 	.globl _T2CON_5
                            108 	.globl _T2CON_4
                            109 	.globl _T2CON_3
                            110 	.globl _T2CON_2
                            111 	.globl _T2CON_1
                            112 	.globl _T2CON_0
                            113 	.globl _PT2
                            114 	.globl _ET2
                            115 	.globl _CY
                            116 	.globl _AC
                            117 	.globl _F0
                            118 	.globl _RS1
                            119 	.globl _RS0
                            120 	.globl _OV
                            121 	.globl _F1
                            122 	.globl _P
                            123 	.globl _PS
                            124 	.globl _PT1
                            125 	.globl _PX1
                            126 	.globl _PT0
                            127 	.globl _PX0
                            128 	.globl _RD
                            129 	.globl _WR
                            130 	.globl _T1
                            131 	.globl _T0
                            132 	.globl _INT1
                            133 	.globl _INT0
                            134 	.globl _TXD
                            135 	.globl _RXD
                            136 	.globl _P3_7
                            137 	.globl _P3_6
                            138 	.globl _P3_5
                            139 	.globl _P3_4
                            140 	.globl _P3_3
                            141 	.globl _P3_2
                            142 	.globl _P3_1
                            143 	.globl _P3_0
                            144 	.globl _EA
                            145 	.globl _ES
                            146 	.globl _ET1
                            147 	.globl _EX1
                            148 	.globl _ET0
                            149 	.globl _EX0
                            150 	.globl _P2_7
                            151 	.globl _P2_6
                            152 	.globl _P2_5
                            153 	.globl _P2_4
                            154 	.globl _P2_3
                            155 	.globl _P2_2
                            156 	.globl _P2_1
                            157 	.globl _P2_0
                            158 	.globl _SM0
                            159 	.globl _SM1
                            160 	.globl _SM2
                            161 	.globl _REN
                            162 	.globl _TB8
                            163 	.globl _RB8
                            164 	.globl _TI
                            165 	.globl _RI
                            166 	.globl _P1_7
                            167 	.globl _P1_6
                            168 	.globl _P1_5
                            169 	.globl _P1_4
                            170 	.globl _P1_3
                            171 	.globl _P1_2
                            172 	.globl _P1_1
                            173 	.globl _P1_0
                            174 	.globl _TF1
                            175 	.globl _TR1
                            176 	.globl _TF0
                            177 	.globl _TR0
                            178 	.globl _IE1
                            179 	.globl _IT1
                            180 	.globl _IE0
                            181 	.globl _IT0
                            182 	.globl _P0_7
                            183 	.globl _P0_6
                            184 	.globl _P0_5
                            185 	.globl _P0_4
                            186 	.globl _P0_3
                            187 	.globl _P0_2
                            188 	.globl _P0_1
                            189 	.globl _P0_0
                            190 	.globl _EECON
                            191 	.globl _KBF
                            192 	.globl _KBE
                            193 	.globl _KBLS
                            194 	.globl _BRL
                            195 	.globl _BDRCON
                            196 	.globl _T2MOD
                            197 	.globl _SPDAT
                            198 	.globl _SPSTA
                            199 	.globl _SPCON
                            200 	.globl _SADEN
                            201 	.globl _SADDR
                            202 	.globl _WDTPRG
                            203 	.globl _WDTRST
                            204 	.globl _P5
                            205 	.globl _P4
                            206 	.globl _IPH1
                            207 	.globl _IPL1
                            208 	.globl _IPH0
                            209 	.globl _IPL0
                            210 	.globl _IEN1
                            211 	.globl _IEN0
                            212 	.globl _CMOD
                            213 	.globl _CL
                            214 	.globl _CH
                            215 	.globl _CCON
                            216 	.globl _CCAPM4
                            217 	.globl _CCAPM3
                            218 	.globl _CCAPM2
                            219 	.globl _CCAPM1
                            220 	.globl _CCAPM0
                            221 	.globl _CCAP4L
                            222 	.globl _CCAP3L
                            223 	.globl _CCAP2L
                            224 	.globl _CCAP1L
                            225 	.globl _CCAP0L
                            226 	.globl _CCAP4H
                            227 	.globl _CCAP3H
                            228 	.globl _CCAP2H
                            229 	.globl _CCAP1H
                            230 	.globl _CCAP0H
                            231 	.globl _CKCKON1
                            232 	.globl _CKCKON0
                            233 	.globl _CKRL
                            234 	.globl _AUXR1
                            235 	.globl _AUXR
                            236 	.globl _TH2
                            237 	.globl _TL2
                            238 	.globl _RCAP2H
                            239 	.globl _RCAP2L
                            240 	.globl _T2CON
                            241 	.globl _B
                            242 	.globl _ACC
                            243 	.globl _PSW
                            244 	.globl _IP
                            245 	.globl _P3
                            246 	.globl _IE
                            247 	.globl _P2
                            248 	.globl _SBUF
                            249 	.globl _SCON
                            250 	.globl _P1
                            251 	.globl _TH1
                            252 	.globl _TH0
                            253 	.globl _TL1
                            254 	.globl _TL0
                            255 	.globl _TMOD
                            256 	.globl _TCON
                            257 	.globl _PCON
                            258 	.globl _DPH
                            259 	.globl _DPL
                            260 	.globl _SP
                            261 	.globl _P0
                            262 	.globl _confirm
                            263 	.globl _CLOCK_ENABLE_FLAG
                            264 	.globl _eebytew_PARM_2
                            265 	.globl _hex2int_PARM_2
                            266 	.globl _lcdcreatechar_PARM_2
                            267 	.globl _lcdgotoxy_PARM_2
                            268 	.globl _count_flag
                            269 	.globl _MM
                            270 	.globl _M
                            271 	.globl _SS
                            272 	.globl _S
                            273 	.globl _MS
                            274 	.globl _u
                            275 	.globl _array
                            276 	.globl _t
                            277 	.globl _putchar
                            278 	.globl _getchar
                            279 ;--------------------------------------------------------
                            280 ; special function registers
                            281 ;--------------------------------------------------------
                            282 	.area RSEG    (DATA)
                    0080    283 _P0	=	0x0080
                    0081    284 _SP	=	0x0081
                    0082    285 _DPL	=	0x0082
                    0083    286 _DPH	=	0x0083
                    0087    287 _PCON	=	0x0087
                    0088    288 _TCON	=	0x0088
                    0089    289 _TMOD	=	0x0089
                    008A    290 _TL0	=	0x008a
                    008B    291 _TL1	=	0x008b
                    008C    292 _TH0	=	0x008c
                    008D    293 _TH1	=	0x008d
                    0090    294 _P1	=	0x0090
                    0098    295 _SCON	=	0x0098
                    0099    296 _SBUF	=	0x0099
                    00A0    297 _P2	=	0x00a0
                    00A8    298 _IE	=	0x00a8
                    00B0    299 _P3	=	0x00b0
                    00B8    300 _IP	=	0x00b8
                    00D0    301 _PSW	=	0x00d0
                    00E0    302 _ACC	=	0x00e0
                    00F0    303 _B	=	0x00f0
                    00C8    304 _T2CON	=	0x00c8
                    00CA    305 _RCAP2L	=	0x00ca
                    00CB    306 _RCAP2H	=	0x00cb
                    00CC    307 _TL2	=	0x00cc
                    00CD    308 _TH2	=	0x00cd
                    008E    309 _AUXR	=	0x008e
                    00A2    310 _AUXR1	=	0x00a2
                    0097    311 _CKRL	=	0x0097
                    008F    312 _CKCKON0	=	0x008f
                    008F    313 _CKCKON1	=	0x008f
                    00FA    314 _CCAP0H	=	0x00fa
                    00FB    315 _CCAP1H	=	0x00fb
                    00FC    316 _CCAP2H	=	0x00fc
                    00FD    317 _CCAP3H	=	0x00fd
                    00FE    318 _CCAP4H	=	0x00fe
                    00EA    319 _CCAP0L	=	0x00ea
                    00EB    320 _CCAP1L	=	0x00eb
                    00EC    321 _CCAP2L	=	0x00ec
                    00ED    322 _CCAP3L	=	0x00ed
                    00EE    323 _CCAP4L	=	0x00ee
                    00DA    324 _CCAPM0	=	0x00da
                    00DB    325 _CCAPM1	=	0x00db
                    00DC    326 _CCAPM2	=	0x00dc
                    00DD    327 _CCAPM3	=	0x00dd
                    00DE    328 _CCAPM4	=	0x00de
                    00D8    329 _CCON	=	0x00d8
                    00F9    330 _CH	=	0x00f9
                    00E9    331 _CL	=	0x00e9
                    00D9    332 _CMOD	=	0x00d9
                    00A8    333 _IEN0	=	0x00a8
                    00B1    334 _IEN1	=	0x00b1
                    00B8    335 _IPL0	=	0x00b8
                    00B7    336 _IPH0	=	0x00b7
                    00B2    337 _IPL1	=	0x00b2
                    00B3    338 _IPH1	=	0x00b3
                    00C0    339 _P4	=	0x00c0
                    00D8    340 _P5	=	0x00d8
                    00A6    341 _WDTRST	=	0x00a6
                    00A7    342 _WDTPRG	=	0x00a7
                    00A9    343 _SADDR	=	0x00a9
                    00B9    344 _SADEN	=	0x00b9
                    00C3    345 _SPCON	=	0x00c3
                    00C4    346 _SPSTA	=	0x00c4
                    00C5    347 _SPDAT	=	0x00c5
                    00C9    348 _T2MOD	=	0x00c9
                    009B    349 _BDRCON	=	0x009b
                    009A    350 _BRL	=	0x009a
                    009C    351 _KBLS	=	0x009c
                    009D    352 _KBE	=	0x009d
                    009E    353 _KBF	=	0x009e
                    00D2    354 _EECON	=	0x00d2
                            355 ;--------------------------------------------------------
                            356 ; special function bits
                            357 ;--------------------------------------------------------
                            358 	.area RSEG    (DATA)
                    0080    359 _P0_0	=	0x0080
                    0081    360 _P0_1	=	0x0081
                    0082    361 _P0_2	=	0x0082
                    0083    362 _P0_3	=	0x0083
                    0084    363 _P0_4	=	0x0084
                    0085    364 _P0_5	=	0x0085
                    0086    365 _P0_6	=	0x0086
                    0087    366 _P0_7	=	0x0087
                    0088    367 _IT0	=	0x0088
                    0089    368 _IE0	=	0x0089
                    008A    369 _IT1	=	0x008a
                    008B    370 _IE1	=	0x008b
                    008C    371 _TR0	=	0x008c
                    008D    372 _TF0	=	0x008d
                    008E    373 _TR1	=	0x008e
                    008F    374 _TF1	=	0x008f
                    0090    375 _P1_0	=	0x0090
                    0091    376 _P1_1	=	0x0091
                    0092    377 _P1_2	=	0x0092
                    0093    378 _P1_3	=	0x0093
                    0094    379 _P1_4	=	0x0094
                    0095    380 _P1_5	=	0x0095
                    0096    381 _P1_6	=	0x0096
                    0097    382 _P1_7	=	0x0097
                    0098    383 _RI	=	0x0098
                    0099    384 _TI	=	0x0099
                    009A    385 _RB8	=	0x009a
                    009B    386 _TB8	=	0x009b
                    009C    387 _REN	=	0x009c
                    009D    388 _SM2	=	0x009d
                    009E    389 _SM1	=	0x009e
                    009F    390 _SM0	=	0x009f
                    00A0    391 _P2_0	=	0x00a0
                    00A1    392 _P2_1	=	0x00a1
                    00A2    393 _P2_2	=	0x00a2
                    00A3    394 _P2_3	=	0x00a3
                    00A4    395 _P2_4	=	0x00a4
                    00A5    396 _P2_5	=	0x00a5
                    00A6    397 _P2_6	=	0x00a6
                    00A7    398 _P2_7	=	0x00a7
                    00A8    399 _EX0	=	0x00a8
                    00A9    400 _ET0	=	0x00a9
                    00AA    401 _EX1	=	0x00aa
                    00AB    402 _ET1	=	0x00ab
                    00AC    403 _ES	=	0x00ac
                    00AF    404 _EA	=	0x00af
                    00B0    405 _P3_0	=	0x00b0
                    00B1    406 _P3_1	=	0x00b1
                    00B2    407 _P3_2	=	0x00b2
                    00B3    408 _P3_3	=	0x00b3
                    00B4    409 _P3_4	=	0x00b4
                    00B5    410 _P3_5	=	0x00b5
                    00B6    411 _P3_6	=	0x00b6
                    00B7    412 _P3_7	=	0x00b7
                    00B0    413 _RXD	=	0x00b0
                    00B1    414 _TXD	=	0x00b1
                    00B2    415 _INT0	=	0x00b2
                    00B3    416 _INT1	=	0x00b3
                    00B4    417 _T0	=	0x00b4
                    00B5    418 _T1	=	0x00b5
                    00B6    419 _WR	=	0x00b6
                    00B7    420 _RD	=	0x00b7
                    00B8    421 _PX0	=	0x00b8
                    00B9    422 _PT0	=	0x00b9
                    00BA    423 _PX1	=	0x00ba
                    00BB    424 _PT1	=	0x00bb
                    00BC    425 _PS	=	0x00bc
                    00D0    426 _P	=	0x00d0
                    00D1    427 _F1	=	0x00d1
                    00D2    428 _OV	=	0x00d2
                    00D3    429 _RS0	=	0x00d3
                    00D4    430 _RS1	=	0x00d4
                    00D5    431 _F0	=	0x00d5
                    00D6    432 _AC	=	0x00d6
                    00D7    433 _CY	=	0x00d7
                    00AD    434 _ET2	=	0x00ad
                    00BD    435 _PT2	=	0x00bd
                    00C8    436 _T2CON_0	=	0x00c8
                    00C9    437 _T2CON_1	=	0x00c9
                    00CA    438 _T2CON_2	=	0x00ca
                    00CB    439 _T2CON_3	=	0x00cb
                    00CC    440 _T2CON_4	=	0x00cc
                    00CD    441 _T2CON_5	=	0x00cd
                    00CE    442 _T2CON_6	=	0x00ce
                    00CF    443 _T2CON_7	=	0x00cf
                    00C8    444 _CP_RL2	=	0x00c8
                    00C9    445 _C_T2	=	0x00c9
                    00CA    446 _TR2	=	0x00ca
                    00CB    447 _EXEN2	=	0x00cb
                    00CC    448 _TCLK	=	0x00cc
                    00CD    449 _RCLK	=	0x00cd
                    00CE    450 _EXF2	=	0x00ce
                    00CF    451 _TF2	=	0x00cf
                    00DF    452 _CF	=	0x00df
                    00DE    453 _CR	=	0x00de
                    00DC    454 _CCF4	=	0x00dc
                    00DB    455 _CCF3	=	0x00db
                    00DA    456 _CCF2	=	0x00da
                    00D9    457 _CCF1	=	0x00d9
                    00D8    458 _CCF0	=	0x00d8
                    00AE    459 _EC	=	0x00ae
                    00BE    460 _PPCL	=	0x00be
                    00BD    461 _PT2L	=	0x00bd
                    00BC    462 _PLS	=	0x00bc
                    00BB    463 _PT1L	=	0x00bb
                    00BA    464 _PX1L	=	0x00ba
                    00B9    465 _PT0L	=	0x00b9
                    00B8    466 _PX0L	=	0x00b8
                    00C0    467 _P4_0	=	0x00c0
                    00C1    468 _P4_1	=	0x00c1
                    00C2    469 _P4_2	=	0x00c2
                    00C3    470 _P4_3	=	0x00c3
                    00C4    471 _P4_4	=	0x00c4
                    00C5    472 _P4_5	=	0x00c5
                    00C6    473 _P4_6	=	0x00c6
                    00C7    474 _P4_7	=	0x00c7
                    00D8    475 _P5_0	=	0x00d8
                    00D9    476 _P5_1	=	0x00d9
                    00DA    477 _P5_2	=	0x00da
                    00DB    478 _P5_3	=	0x00db
                    00DC    479 _P5_4	=	0x00dc
                    00DD    480 _P5_5	=	0x00dd
                    00DE    481 _P5_6	=	0x00de
                    00DF    482 _P5_7	=	0x00df
                            483 ;--------------------------------------------------------
                            484 ; overlayable register banks
                            485 ;--------------------------------------------------------
                            486 	.area REG_BANK_0	(REL,OVR,DATA)
   0000                     487 	.ds 8
                            488 	.area REG_BANK_1	(REL,OVR,DATA)
   0008                     489 	.ds 8
                            490 	.area REG_BANK_2	(REL,OVR,DATA)
   0010                     491 	.ds 8
                            492 ;--------------------------------------------------------
                            493 ; internal ram data
                            494 ;--------------------------------------------------------
                            495 	.area DSEG    (DATA)
   0022                     496 _lcdcreatechar_sloc0_1_0:
   0022                     497 	.ds 2
   0024                     498 _hex2int_sloc0_1_0:
   0024                     499 	.ds 1
   0025                     500 _hex2int_sloc1_1_0:
   0025                     501 	.ds 2
   0027                     502 _hex2int_sloc2_1_0:
   0027                     503 	.ds 4
   002B                     504 _hex2int_sloc3_1_0:
   002B                     505 	.ds 4
                            506 ;--------------------------------------------------------
                            507 ; overlayable items in internal ram 
                            508 ;--------------------------------------------------------
                            509 	.area OSEG    (OVR,DATA)
                            510 ;--------------------------------------------------------
                            511 ; Stack segment in internal ram 
                            512 ;--------------------------------------------------------
                            513 	.area	SSEG	(DATA)
   002F                     514 __start__stack:
   002F                     515 	.ds	1
                            516 
                            517 ;--------------------------------------------------------
                            518 ; indirectly addressable internal ram data
                            519 ;--------------------------------------------------------
                            520 	.area ISEG    (DATA)
                            521 ;--------------------------------------------------------
                            522 ; bit data
                            523 ;--------------------------------------------------------
                            524 	.area BSEG    (BIT)
                            525 ;--------------------------------------------------------
                            526 ; paged external ram data
                            527 ;--------------------------------------------------------
                            528 	.area PSEG    (PAG,XDATA)
                            529 ;--------------------------------------------------------
                            530 ; external ram data
                            531 ;--------------------------------------------------------
                            532 	.area XSEG    (XDATA)
   0000                     533 _t::
   0000                     534 	.ds 2
   0002                     535 _array::
   0002                     536 	.ds 8
   000A                     537 _u::
   000A                     538 	.ds 1
   000B                     539 _MS::
   000B                     540 	.ds 1
   000C                     541 _S::
   000C                     542 	.ds 1
   000D                     543 _SS::
   000D                     544 	.ds 1
   000E                     545 _M::
   000E                     546 	.ds 1
   000F                     547 _MM::
   000F                     548 	.ds 1
   0010                     549 _count_flag::
   0010                     550 	.ds 2
   0012                     551 _MSDelay_value_1_1:
   0012                     552 	.ds 2
   0014                     553 _putstr_ptr_1_1:
   0014                     554 	.ds 3
   0017                     555 _lcdbusywait_i_1_1:
   0017                     556 	.ds 2
   0019                     557 _input_value_l_1_1:
   0019                     558 	.ds 1
   001A                     559 _input_value_m_1_1:
   001A                     560 	.ds 1
   001B                     561 _lcdclockgotoaddr_addr_1_1:
   001B                     562 	.ds 1
   001C                     563 _lcdgotoaddr_addr_1_1:
   001C                     564 	.ds 1
   001D                     565 _lcdgotoxy_PARM_2:
   001D                     566 	.ds 1
   001E                     567 _lcdgotoxy_row_1_1:
   001E                     568 	.ds 1
   001F                     569 _lcdputch_cc_1_1:
   001F                     570 	.ds 1
   0020                     571 _lcdputch_aa_1_1:
   0020                     572 	.ds 2
   0022                     573 _lcdputch_tempput_1_1:
   0022                     574 	.ds 2
   0024                     575 _lcdputstr_ptr_1_1:
   0024                     576 	.ds 3
   0027                     577 _cgramdump_temp_val_1_1:
   0027                     578 	.ds 1
   0028                     579 _lcdcreatechar_PARM_2:
   0028                     580 	.ds 3
   002B                     581 _lcdcreatechar_ccode_1_1:
   002B                     582 	.ds 1
   002C                     583 _ddramdump_temp_val_1_1:
   002C                     584 	.ds 1
   002D                     585 _readinput_value_1_1:
   002D                     586 	.ds 1
   002E                     587 _addcharacter_temp_1_1:
   002E                     588 	.ds 1
   002F                     589 _hex2int_PARM_2:
   002F                     590 	.ds 2
   0031                     591 _hex2int_a_1_1:
   0031                     592 	.ds 3
   0034                     593 _hex2int_val_1_1:
   0034                     594 	.ds 4
   0038                     595 _ReadVariable_k_1_1:
   0038                     596 	.ds 2
   003A                     597 _ReadVariable_ptr_1_1:
   003A                     598 	.ds 1
   003B                     599 _gotoaddress_temp_1_1:
   003B                     600 	.ds 1
   003C                     601 _putchar_x_1_1:
   003C                     602 	.ds 1
   003D                     603 _send_data_value_1_1:
   003D                     604 	.ds 1
   003E                     605 _eebytew_PARM_2:
   003E                     606 	.ds 1
   003F                     607 _eebytew_addr_1_1:
   003F                     608 	.ds 2
   0041                     609 _eebyter_addr_1_1:
   0041                     610 	.ds 2
   0043                     611 _eebyter_backup_1_1:
   0043                     612 	.ds 1
   0044                     613 _readall_function_backup_1_1:
   0044                     614 	.ds 1
   0045                     615 _readall_function_tempvalue_1_1:
   0045                     616 	.ds 2
   0047                     617 _custom_character_in_array_1_1:
   0047                     618 	.ds 8
   004F                     619 _custom_character_in_array5_1_1:
   004F                     620 	.ds 8
   0057                     621 _custom_character_in_array1_1_1:
   0057                     622 	.ds 8
   005F                     623 _custom_character_in_array2_1_1:
   005F                     624 	.ds 8
   0067                     625 _custom_character_in_array3_1_1:
   0067                     626 	.ds 8
   006F                     627 _custom_character_in_array4_1_1:
   006F                     628 	.ds 8
   0077                     629 _custom_character_in_array6_1_1:
   0077                     630 	.ds 8
   007F                     631 _custom_character_in_array7_1_1:
   007F                     632 	.ds 8
   0087                     633 _read_ioexpander_io_tem_1_1:
   0087                     634 	.ds 1
   0088                     635 _invert_ioexpander_value_io_1_1:
   0088                     636 	.ds 1
   0089                     637 _write_ioexpander_send_bits_1_1:
   0089                     638 	.ds 1
   008A                     639 _timer_isr_bb_1_1:
   008A                     640 	.ds 2
                            641 ;--------------------------------------------------------
                            642 ; external initialized ram data
                            643 ;--------------------------------------------------------
                            644 	.area XISEG   (XDATA)
   00BC                     645 _CLOCK_ENABLE_FLAG::
   00BC                     646 	.ds 1
   00BD                     647 _confirm::
   00BD                     648 	.ds 2
                            649 	.area HOME    (CODE)
                            650 	.area GSINIT0 (CODE)
                            651 	.area GSINIT1 (CODE)
                            652 	.area GSINIT2 (CODE)
                            653 	.area GSINIT3 (CODE)
                            654 	.area GSINIT4 (CODE)
                            655 	.area GSINIT5 (CODE)
                            656 	.area GSINIT  (CODE)
                            657 	.area GSFINAL (CODE)
                            658 	.area CSEG    (CODE)
                            659 ;--------------------------------------------------------
                            660 ; interrupt vector 
                            661 ;--------------------------------------------------------
                            662 	.area HOME    (CODE)
   0000                     663 __interrupt_vect:
   0000 02 00 16            664 	ljmp	__sdcc_gsinit_startup
   0003 32                  665 	reti
   0004                     666 	.ds	7
   000B 02 17 3C            667 	ljmp	_timer_isr
   000E                     668 	.ds	5
   0013 02 16 E1            669 	ljmp	_external_isr
                            670 ;--------------------------------------------------------
                            671 ; global & static initialisations
                            672 ;--------------------------------------------------------
                            673 	.area HOME    (CODE)
                            674 	.area GSINIT  (CODE)
                            675 	.area GSFINAL (CODE)
                            676 	.area GSINIT  (CODE)
                            677 	.globl __sdcc_gsinit_startup
                            678 	.globl __sdcc_program_startup
                            679 	.globl __start__stack
                            680 	.globl __mcs51_genXINIT
                            681 	.globl __mcs51_genXRAMCLEAR
                            682 	.globl __mcs51_genRAMCLEAR
                            683 	.area GSFINAL (CODE)
   006F 02 00 72            684 	ljmp	__sdcc_program_startup
                            685 ;--------------------------------------------------------
                            686 ; Home
                            687 ;--------------------------------------------------------
                            688 	.area HOME    (CODE)
                            689 	.area CSEG    (CODE)
   0072                     690 __sdcc_program_startup:
   0072 12 1A 67            691 	lcall	_main
                            692 ;	return from main will lock up
   0075 80 FE               693 	sjmp .
                            694 ;--------------------------------------------------------
                            695 ; code
                            696 ;--------------------------------------------------------
                            697 	.area CSEG    (CODE)
                            698 ;------------------------------------------------------------
                            699 ;Allocation info for local variables in function 'MSDelay'
                            700 ;------------------------------------------------------------
                            701 ;value                     Allocated with name '_MSDelay_value_1_1'
                            702 ;x                         Allocated with name '_MSDelay_x_1_1'
                            703 ;zz                        Allocated with name '_MSDelay_zz_1_1'
                            704 ;------------------------------------------------------------
                            705 ;	main.c:90: void MSDelay(unsigned int value)
                            706 ;	-----------------------------------------
                            707 ;	 function MSDelay
                            708 ;	-----------------------------------------
   0077                     709 _MSDelay:
                    0002    710 	ar2 = 0x02
                    0003    711 	ar3 = 0x03
                    0004    712 	ar4 = 0x04
                    0005    713 	ar5 = 0x05
                    0006    714 	ar6 = 0x06
                    0007    715 	ar7 = 0x07
                    0000    716 	ar0 = 0x00
                    0001    717 	ar1 = 0x01
                            718 ;	genReceive
   0077 AA 83               719 	mov	r2,dph
   0079 E5 82               720 	mov	a,dpl
   007B 90 00 12            721 	mov	dptr,#_MSDelay_value_1_1
   007E F0                  722 	movx	@dptr,a
   007F A3                  723 	inc	dptr
   0080 EA                  724 	mov	a,r2
   0081 F0                  725 	movx	@dptr,a
                            726 ;	main.c:93: for(zz=0;zz<value;zz++)
                            727 ;	genAssign
   0082 90 00 12            728 	mov	dptr,#_MSDelay_value_1_1
   0085 E0                  729 	movx	a,@dptr
   0086 FA                  730 	mov	r2,a
   0087 A3                  731 	inc	dptr
   0088 E0                  732 	movx	a,@dptr
   0089 FB                  733 	mov	r3,a
                            734 ;	genAssign
   008A 7C 00               735 	mov	r4,#0x00
   008C 7D 00               736 	mov	r5,#0x00
   008E                     737 00104$:
                            738 ;	genCmpLt
                            739 ;	genCmp
   008E C3                  740 	clr	c
   008F EC                  741 	mov	a,r4
   0090 9A                  742 	subb	a,r2
   0091 ED                  743 	mov	a,r5
   0092 9B                  744 	subb	a,r3
                            745 ;	genIfxJump
                            746 ;	Peephole 108.a	removed ljmp by inverse jump logic
   0093 50 14               747 	jnc	00108$
                            748 ;	Peephole 300	removed redundant label 00116$
                            749 ;	main.c:95: for(x=0;x<126;x++)
                            750 ;	genAssign
   0095 7E 7E               751 	mov	r6,#0x7E
   0097 7F 00               752 	mov	r7,#0x00
   0099                     753 00103$:
                            754 ;	genMinus
                            755 ;	genMinusDec
   0099 1E                  756 	dec	r6
   009A BE FF 01            757 	cjne	r6,#0xff,00117$
   009D 1F                  758 	dec	r7
   009E                     759 00117$:
                            760 ;	genIfx
   009E EE                  761 	mov	a,r6
   009F 4F                  762 	orl	a,r7
                            763 ;	genIfxJump
                            764 ;	Peephole 108.b	removed ljmp by inverse jump logic
   00A0 70 F7               765 	jnz	00103$
                            766 ;	Peephole 300	removed redundant label 00118$
                            767 ;	main.c:93: for(zz=0;zz<value;zz++)
                            768 ;	genPlus
                            769 ;     genPlusIncr
                            770 ;	tail increment optimized (range 7)
   00A2 0C                  771 	inc	r4
   00A3 BC 00 E8            772 	cjne	r4,#0x00,00104$
   00A6 0D                  773 	inc	r5
                            774 ;	Peephole 112.b	changed ljmp to sjmp
   00A7 80 E5               775 	sjmp	00104$
   00A9                     776 00108$:
   00A9 22                  777 	ret
                            778 ;------------------------------------------------------------
                            779 ;Allocation info for local variables in function 'putstr'
                            780 ;------------------------------------------------------------
                            781 ;ptr                       Allocated with name '_putstr_ptr_1_1'
                            782 ;------------------------------------------------------------
                            783 ;	main.c:104: void putstr(char *ptr)
                            784 ;	-----------------------------------------
                            785 ;	 function putstr
                            786 ;	-----------------------------------------
   00AA                     787 _putstr:
                            788 ;	genReceive
   00AA AA F0               789 	mov	r2,b
   00AC AB 83               790 	mov	r3,dph
   00AE E5 82               791 	mov	a,dpl
   00B0 90 00 14            792 	mov	dptr,#_putstr_ptr_1_1
   00B3 F0                  793 	movx	@dptr,a
   00B4 A3                  794 	inc	dptr
   00B5 EB                  795 	mov	a,r3
   00B6 F0                  796 	movx	@dptr,a
   00B7 A3                  797 	inc	dptr
   00B8 EA                  798 	mov	a,r2
   00B9 F0                  799 	movx	@dptr,a
                            800 ;	main.c:106: while(*ptr)
                            801 ;	genAssign
   00BA 90 00 14            802 	mov	dptr,#_putstr_ptr_1_1
   00BD E0                  803 	movx	a,@dptr
   00BE FA                  804 	mov	r2,a
   00BF A3                  805 	inc	dptr
   00C0 E0                  806 	movx	a,@dptr
   00C1 FB                  807 	mov	r3,a
   00C2 A3                  808 	inc	dptr
   00C3 E0                  809 	movx	a,@dptr
   00C4 FC                  810 	mov	r4,a
   00C5                     811 00101$:
                            812 ;	genPointerGet
                            813 ;	genGenPointerGet
   00C5 8A 82               814 	mov	dpl,r2
   00C7 8B 83               815 	mov	dph,r3
   00C9 8C F0               816 	mov	b,r4
   00CB 12 25 13            817 	lcall	__gptrget
                            818 ;	genIfx
   00CE FD                  819 	mov	r5,a
                            820 ;	Peephole 105	removed redundant mov
                            821 ;	genIfxJump
                            822 ;	Peephole 108.c	removed ljmp by inverse jump logic
   00CF 60 23               823 	jz	00108$
                            824 ;	Peephole 300	removed redundant label 00109$
                            825 ;	main.c:108: putchar(*ptr);
                            826 ;	genCall
   00D1 8D 82               827 	mov	dpl,r5
   00D3 C0 02               828 	push	ar2
   00D5 C0 03               829 	push	ar3
   00D7 C0 04               830 	push	ar4
   00D9 12 0C DF            831 	lcall	_putchar
   00DC D0 04               832 	pop	ar4
   00DE D0 03               833 	pop	ar3
   00E0 D0 02               834 	pop	ar2
                            835 ;	main.c:109: ptr++;
                            836 ;	genPlus
                            837 ;     genPlusIncr
   00E2 0A                  838 	inc	r2
   00E3 BA 00 01            839 	cjne	r2,#0x00,00110$
   00E6 0B                  840 	inc	r3
   00E7                     841 00110$:
                            842 ;	genAssign
   00E7 90 00 14            843 	mov	dptr,#_putstr_ptr_1_1
   00EA EA                  844 	mov	a,r2
   00EB F0                  845 	movx	@dptr,a
   00EC A3                  846 	inc	dptr
   00ED EB                  847 	mov	a,r3
   00EE F0                  848 	movx	@dptr,a
   00EF A3                  849 	inc	dptr
   00F0 EC                  850 	mov	a,r4
   00F1 F0                  851 	movx	@dptr,a
                            852 ;	Peephole 112.b	changed ljmp to sjmp
   00F2 80 D1               853 	sjmp	00101$
   00F4                     854 00108$:
                            855 ;	genAssign
   00F4 90 00 14            856 	mov	dptr,#_putstr_ptr_1_1
   00F7 EA                  857 	mov	a,r2
   00F8 F0                  858 	movx	@dptr,a
   00F9 A3                  859 	inc	dptr
   00FA EB                  860 	mov	a,r3
   00FB F0                  861 	movx	@dptr,a
   00FC A3                  862 	inc	dptr
   00FD EC                  863 	mov	a,r4
   00FE F0                  864 	movx	@dptr,a
                            865 ;	Peephole 300	removed redundant label 00104$
   00FF 22                  866 	ret
                            867 ;------------------------------------------------------------
                            868 ;Allocation info for local variables in function 'lcdbusywait'
                            869 ;------------------------------------------------------------
                            870 ;i                         Allocated with name '_lcdbusywait_i_1_1'
                            871 ;------------------------------------------------------------
                            872 ;	main.c:115: void lcdbusywait()
                            873 ;	-----------------------------------------
                            874 ;	 function lcdbusywait
                            875 ;	-----------------------------------------
   0100                     876 _lcdbusywait:
                            877 ;	main.c:118: EA=0;
                            878 ;	genAssign
   0100 C2 AF               879 	clr	_EA
                            880 ;	main.c:119: i=*INST_READ;
                            881 ;	genPointerGet
                            882 ;	genFarPointerGet
                            883 ;	Peephole 182.b	used 16 bit load of dptr
   0102 90 F8 00            884 	mov	dptr,#0xF800
   0105 E0                  885 	movx	a,@dptr
                            886 ;	genCast
   0106 FA                  887 	mov	r2,a
   0107 90 00 17            888 	mov	dptr,#_lcdbusywait_i_1_1
                            889 ;	Peephole 100	removed redundant mov
   010A F0                  890 	movx	@dptr,a
   010B A3                  891 	inc	dptr
                            892 ;	Peephole 181	changed mov to clr
   010C E4                  893 	clr	a
   010D F0                  894 	movx	@dptr,a
                            895 ;	main.c:120: EA=1;
                            896 ;	genAssign
   010E D2 AF               897 	setb	_EA
                            898 ;	main.c:121: MSDelay(1);
                            899 ;	genCall
                            900 ;	Peephole 182.b	used 16 bit load of dptr
   0110 90 00 01            901 	mov	dptr,#0x0001
   0113 12 00 77            902 	lcall	_MSDelay
                            903 ;	main.c:122: while((i&BUSYFLAG_MASK_BITS)==BUSYFLAG_MASK_BITS)
   0116                     904 00101$:
                            905 ;	genAssign
   0116 90 00 17            906 	mov	dptr,#_lcdbusywait_i_1_1
   0119 E0                  907 	movx	a,@dptr
   011A FA                  908 	mov	r2,a
   011B A3                  909 	inc	dptr
   011C E0                  910 	movx	a,@dptr
   011D FB                  911 	mov	r3,a
                            912 ;	genAnd
   011E 53 02 80            913 	anl	ar2,#0x80
   0121 7B 00               914 	mov	r3,#0x00
                            915 ;	genCmpEq
                            916 ;	gencjneshort
                            917 ;	Peephole 112.b	changed ljmp to sjmp
                            918 ;	Peephole 198.a	optimized misc jump sequence
   0123 BA 80 1B            919 	cjne	r2,#0x80,00104$
   0126 BB 00 18            920 	cjne	r3,#0x00,00104$
                            921 ;	Peephole 200.b	removed redundant sjmp
                            922 ;	Peephole 300	removed redundant label 00108$
                            923 ;	Peephole 300	removed redundant label 00109$
                            924 ;	main.c:124: EA=0;
                            925 ;	genAssign
   0129 C2 AF               926 	clr	_EA
                            927 ;	main.c:125: i = *INST_READ;
                            928 ;	genPointerGet
                            929 ;	genFarPointerGet
                            930 ;	Peephole 182.b	used 16 bit load of dptr
   012B 90 F8 00            931 	mov	dptr,#0xF800
   012E E0                  932 	movx	a,@dptr
                            933 ;	genCast
   012F FA                  934 	mov	r2,a
   0130 90 00 17            935 	mov	dptr,#_lcdbusywait_i_1_1
                            936 ;	Peephole 100	removed redundant mov
   0133 F0                  937 	movx	@dptr,a
   0134 A3                  938 	inc	dptr
                            939 ;	Peephole 181	changed mov to clr
   0135 E4                  940 	clr	a
   0136 F0                  941 	movx	@dptr,a
                            942 ;	main.c:126: EA=1;
                            943 ;	genAssign
   0137 D2 AF               944 	setb	_EA
                            945 ;	main.c:127: MSDelay(1);
                            946 ;	genCall
                            947 ;	Peephole 182.b	used 16 bit load of dptr
   0139 90 00 01            948 	mov	dptr,#0x0001
   013C 12 00 77            949 	lcall	_MSDelay
                            950 ;	Peephole 112.b	changed ljmp to sjmp
   013F 80 D5               951 	sjmp	00101$
   0141                     952 00104$:
   0141 22                  953 	ret
                            954 ;------------------------------------------------------------
                            955 ;Allocation info for local variables in function 'input_value'
                            956 ;------------------------------------------------------------
                            957 ;l                         Allocated with name '_input_value_l_1_1'
                            958 ;m                         Allocated with name '_input_value_m_1_1'
                            959 ;------------------------------------------------------------
                            960 ;	main.c:132: unsigned char input_value()
                            961 ;	-----------------------------------------
                            962 ;	 function input_value
                            963 ;	-----------------------------------------
   0142                     964 _input_value:
                            965 ;	main.c:134: unsigned volatile char l=0, m=0;
                            966 ;	genAssign
   0142 90 00 19            967 	mov	dptr,#_input_value_l_1_1
                            968 ;	Peephole 181	changed mov to clr
                            969 ;	genAssign
                            970 ;	Peephole 181	changed mov to clr
                            971 ;	Peephole 219.a	removed redundant clear
   0145 E4                  972 	clr	a
   0146 F0                  973 	movx	@dptr,a
   0147 90 00 1A            974 	mov	dptr,#_input_value_m_1_1
   014A F0                  975 	movx	@dptr,a
                            976 ;	main.c:135: do
   014B                     977 00110$:
                            978 ;	main.c:137: l=getchar();
                            979 ;	genCall
   014B 12 0C F1            980 	lcall	_getchar
   014E E5 82               981 	mov	a,dpl
                            982 ;	genAssign
   0150 90 00 19            983 	mov	dptr,#_input_value_l_1_1
   0153 F0                  984 	movx	@dptr,a
                            985 ;	main.c:138: if(l>='0' && l<='9')
                            986 ;	genAssign
   0154 90 00 19            987 	mov	dptr,#_input_value_l_1_1
   0157 E0                  988 	movx	a,@dptr
   0158 FA                  989 	mov	r2,a
                            990 ;	genCmpLt
                            991 ;	genCmp
   0159 BA 30 00            992 	cjne	r2,#0x30,00121$
   015C                     993 00121$:
                            994 ;	genIfxJump
                            995 ;	Peephole 112.b	changed ljmp to sjmp
                            996 ;	Peephole 160.a	removed sjmp by inverse jump logic
   015C 40 2B               997 	jc	00107$
                            998 ;	Peephole 300	removed redundant label 00122$
                            999 ;	genAssign
   015E 90 00 19           1000 	mov	dptr,#_input_value_l_1_1
   0161 E0                 1001 	movx	a,@dptr
                           1002 ;	genCmpGt
                           1003 ;	genCmp
                           1004 ;	genIfxJump
                           1005 ;	Peephole 132.b	optimized genCmpGt by inverse logic (acc differs)
   0162 FA                 1006 	mov  r2,a
                           1007 ;	Peephole 177.a	removed redundant mov
   0163 24 C6              1008 	add	a,#0xff - 0x39
                           1009 ;	Peephole 112.b	changed ljmp to sjmp
                           1010 ;	Peephole 160.a	removed sjmp by inverse jump logic
   0165 40 22              1011 	jc	00107$
                           1012 ;	Peephole 300	removed redundant label 00123$
                           1013 ;	main.c:140: m=((m*10)+(l-'0'));
                           1014 ;	genAssign
   0167 90 00 1A           1015 	mov	dptr,#_input_value_m_1_1
   016A E0                 1016 	movx	a,@dptr
                           1017 ;	genMult
                           1018 ;	genMultOneByte
   016B FA                 1019 	mov	r2,a
                           1020 ;	Peephole 105	removed redundant mov
   016C 75 F0 0A           1021 	mov	b,#0x0A
   016F A4                 1022 	mul	ab
   0170 FA                 1023 	mov	r2,a
                           1024 ;	genAssign
   0171 90 00 19           1025 	mov	dptr,#_input_value_l_1_1
   0174 E0                 1026 	movx	a,@dptr
                           1027 ;	genMinus
   0175 FB                 1028 	mov	r3,a
                           1029 ;	Peephole 105	removed redundant mov
   0176 24 D0              1030 	add	a,#0xd0
                           1031 ;	genPlus
   0178 90 00 1A           1032 	mov	dptr,#_input_value_m_1_1
                           1033 ;	Peephole 236.a	used r2 instead of ar2
   017B 2A                 1034 	add	a,r2
   017C F0                 1035 	movx	@dptr,a
                           1036 ;	main.c:141: putchar(l);                 /* CONVERTING IT TO DECIMAL VALUE*/
                           1037 ;	genAssign
   017D 90 00 19           1038 	mov	dptr,#_input_value_l_1_1
   0180 E0                 1039 	movx	a,@dptr
                           1040 ;	genCall
   0181 FA                 1041 	mov	r2,a
                           1042 ;	Peephole 244.c	loading dpl from a instead of r2
   0182 F5 82              1043 	mov	dpl,a
   0184 12 0C DF           1044 	lcall	_putchar
                           1045 ;	Peephole 112.b	changed ljmp to sjmp
   0187 80 2B              1046 	sjmp	00111$
   0189                    1047 00107$:
                           1048 ;	main.c:144: else if(l==READ_BACKSPACE)
                           1049 ;	genAssign
   0189 90 00 19           1050 	mov	dptr,#_input_value_l_1_1
   018C E0                 1051 	movx	a,@dptr
   018D FA                 1052 	mov	r2,a
                           1053 ;	genCmpEq
                           1054 ;	gencjneshort
                           1055 ;	Peephole 112.b	changed ljmp to sjmp
                           1056 ;	Peephole 198.b	optimized misc jump sequence
   018E BA 7F 10           1057 	cjne	r2,#0x7F,00104$
                           1058 ;	Peephole 200.b	removed redundant sjmp
                           1059 ;	Peephole 300	removed redundant label 00124$
                           1060 ;	Peephole 300	removed redundant label 00125$
                           1061 ;	main.c:146: m=m/10;
                           1062 ;	genAssign
   0191 90 00 1A           1063 	mov	dptr,#_input_value_m_1_1
   0194 E0                 1064 	movx	a,@dptr
   0195 FA                 1065 	mov	r2,a
                           1066 ;	genDiv
   0196 90 00 1A           1067 	mov	dptr,#_input_value_m_1_1
                           1068 ;     genDivOneByte
   0199 75 F0 0A           1069 	mov	b,#0x0A
   019C EA                 1070 	mov	a,r2
   019D 84                 1071 	div	ab
   019E F0                 1072 	movx	@dptr,a
                           1073 ;	Peephole 112.b	changed ljmp to sjmp
   019F 80 13              1074 	sjmp	00111$
   01A1                    1075 00104$:
                           1076 ;	main.c:148: else if(l!=READ_ENTER)
                           1077 ;	genAssign
   01A1 90 00 19           1078 	mov	dptr,#_input_value_l_1_1
   01A4 E0                 1079 	movx	a,@dptr
   01A5 FA                 1080 	mov	r2,a
                           1081 ;	genCmpEq
                           1082 ;	gencjneshort
   01A6 BA 0D 02           1083 	cjne	r2,#0x0D,00126$
                           1084 ;	Peephole 112.b	changed ljmp to sjmp
   01A9 80 09              1085 	sjmp	00111$
   01AB                    1086 00126$:
                           1087 ;	main.c:149: {putstr("\n\rEnter Numbers\n\r");}
                           1088 ;	genCall
                           1089 ;	Peephole 182.a	used 16 bit load of DPTR
   01AB 90 25 4C           1090 	mov	dptr,#__str_0
   01AE 75 F0 80           1091 	mov	b,#0x80
   01B1 12 00 AA           1092 	lcall	_putstr
   01B4                    1093 00111$:
                           1094 ;	main.c:150: }while(l!=READ_ENTER);
                           1095 ;	genAssign
   01B4 90 00 19           1096 	mov	dptr,#_input_value_l_1_1
   01B7 E0                 1097 	movx	a,@dptr
   01B8 FA                 1098 	mov	r2,a
                           1099 ;	genCmpEq
                           1100 ;	gencjneshort
   01B9 BA 0D 02           1101 	cjne	r2,#0x0D,00127$
   01BC 80 03              1102 	sjmp	00128$
   01BE                    1103 00127$:
   01BE 02 01 4B           1104 	ljmp	00110$
   01C1                    1105 00128$:
                           1106 ;	main.c:151: return m;                                   /* UNTIL ENTER IS PRESSES*/
                           1107 ;	genAssign
   01C1 90 00 1A           1108 	mov	dptr,#_input_value_m_1_1
   01C4 E0                 1109 	movx	a,@dptr
                           1110 ;	genRet
                           1111 ;	Peephole 234.a	loading dpl directly from a(ccumulator), r2 not set
   01C5 F5 82              1112 	mov	dpl,a
                           1113 ;	Peephole 300	removed redundant label 00113$
   01C7 22                 1114 	ret
                           1115 ;------------------------------------------------------------
                           1116 ;Allocation info for local variables in function 'lcdclockgotoaddr'
                           1117 ;------------------------------------------------------------
                           1118 ;addr                      Allocated with name '_lcdclockgotoaddr_addr_1_1'
                           1119 ;temp                      Allocated with name '_lcdclockgotoaddr_temp_2_2'
                           1120 ;------------------------------------------------------------
                           1121 ;	main.c:154: void lcdclockgotoaddr(unsigned char addr)
                           1122 ;	-----------------------------------------
                           1123 ;	 function lcdclockgotoaddr
                           1124 ;	-----------------------------------------
   01C8                    1125 _lcdclockgotoaddr:
                           1126 ;	genReceive
   01C8 E5 82              1127 	mov	a,dpl
   01CA 90 00 1B           1128 	mov	dptr,#_lcdclockgotoaddr_addr_1_1
   01CD F0                 1129 	movx	@dptr,a
                           1130 ;	main.c:156: if(addr>=0x59 && addr<=0x5F)
                           1131 ;	genAssign
   01CE 90 00 1B           1132 	mov	dptr,#_lcdclockgotoaddr_addr_1_1
   01D1 E0                 1133 	movx	a,@dptr
   01D2 FA                 1134 	mov	r2,a
                           1135 ;	genCmpLt
                           1136 ;	genCmp
   01D3 BA 59 00           1137 	cjne	r2,#0x59,00108$
   01D6                    1138 00108$:
                           1139 ;	genIfxJump
                           1140 ;	Peephole 112.b	changed ljmp to sjmp
                           1141 ;	Peephole 160.a	removed sjmp by inverse jump logic
   01D6 40 10              1142 	jc	00104$
                           1143 ;	Peephole 300	removed redundant label 00109$
                           1144 ;	genCmpGt
                           1145 ;	genCmp
                           1146 ;	genIfxJump
                           1147 ;	Peephole 132.b	optimized genCmpGt by inverse logic (acc differs)
   01D8 EA                 1148 	mov	a,r2
   01D9 24 A0              1149 	add	a,#0xff - 0x5F
                           1150 ;	Peephole 112.b	changed ljmp to sjmp
                           1151 ;	Peephole 160.a	removed sjmp by inverse jump logic
   01DB 40 0B              1152 	jc	00104$
                           1153 ;	Peephole 300	removed redundant label 00110$
                           1154 ;	main.c:160: temp |= addr;
                           1155 ;	genOr
   01DD 43 02 80           1156 	orl	ar2,#0x80
                           1157 ;	main.c:161: *INST_WRITE = temp;
                           1158 ;	genAssign
                           1159 ;	Peephole 182.b	used 16 bit load of dptr
   01E0 90 F0 00           1160 	mov	dptr,#0xF000
                           1161 ;	genPointerSet
                           1162 ;     genFarPointerSet
   01E3 EA                 1163 	mov	a,r2
   01E4 F0                 1164 	movx	@dptr,a
                           1165 ;	main.c:162: lcdbusywait();
                           1166 ;	genCall
                           1167 ;	Peephole 253.c	replaced lcall with ljmp
   01E5 02 01 00           1168 	ljmp	_lcdbusywait
   01E8                    1169 00104$:
   01E8 22                 1170 	ret
                           1171 ;------------------------------------------------------------
                           1172 ;Allocation info for local variables in function 'lcdgotoaddr'
                           1173 ;------------------------------------------------------------
                           1174 ;addr                      Allocated with name '_lcdgotoaddr_addr_1_1'
                           1175 ;temp                      Allocated with name '_lcdgotoaddr_temp_2_2'
                           1176 ;------------------------------------------------------------
                           1177 ;	main.c:167: void lcdgotoaddr(unsigned char addr)
                           1178 ;	-----------------------------------------
                           1179 ;	 function lcdgotoaddr
                           1180 ;	-----------------------------------------
   01E9                    1181 _lcdgotoaddr:
                           1182 ;	genReceive
   01E9 E5 82              1183 	mov	a,dpl
   01EB 90 00 1C           1184 	mov	dptr,#_lcdgotoaddr_addr_1_1
   01EE F0                 1185 	movx	@dptr,a
                           1186 ;	main.c:169: if(addr>=0x00 && addr<=0x58)
                           1187 ;	genAssign
   01EF 90 00 1C           1188 	mov	dptr,#_lcdgotoaddr_addr_1_1
   01F2 E0                 1189 	movx	a,@dptr
                           1190 ;	genCmpGt
                           1191 ;	genCmp
                           1192 ;	genIfxJump
                           1193 ;	Peephole 132.b	optimized genCmpGt by inverse logic (acc differs)
   01F3 FA                 1194 	mov  r2,a
                           1195 ;	Peephole 177.a	removed redundant mov
   01F4 24 A7              1196 	add	a,#0xff - 0x58
                           1197 ;	Peephole 112.b	changed ljmp to sjmp
                           1198 ;	Peephole 160.a	removed sjmp by inverse jump logic
   01F6 40 0F              1199 	jc	00102$
                           1200 ;	Peephole 300	removed redundant label 00108$
                           1201 ;	main.c:173: temp |= addr;
                           1202 ;	genOr
   01F8 43 02 80           1203 	orl	ar2,#0x80
                           1204 ;	main.c:174: EA=0;
                           1205 ;	genAssign
   01FB C2 AF              1206 	clr	_EA
                           1207 ;	main.c:175: *INST_WRITE = temp;
                           1208 ;	genAssign
                           1209 ;	Peephole 182.b	used 16 bit load of dptr
   01FD 90 F0 00           1210 	mov	dptr,#0xF000
                           1211 ;	genPointerSet
                           1212 ;     genFarPointerSet
   0200 EA                 1213 	mov	a,r2
   0201 F0                 1214 	movx	@dptr,a
                           1215 ;	main.c:176: EA=1;
                           1216 ;	genAssign
   0202 D2 AF              1217 	setb	_EA
                           1218 ;	main.c:177: lcdbusywait();
                           1219 ;	genCall
                           1220 ;	Peephole 112.b	changed ljmp to sjmp
                           1221 ;	Peephole 251.b	replaced sjmp to ret with ret
                           1222 ;	Peephole 253.a	replaced lcall/ret with ljmp
   0204 02 01 00           1223 	ljmp	_lcdbusywait
   0207                    1224 00102$:
                           1225 ;	main.c:180: putstr("\n\rCan't move to given position\n\r");
                           1226 ;	genCall
                           1227 ;	Peephole 182.a	used 16 bit load of DPTR
   0207 90 25 5E           1228 	mov	dptr,#__str_1
   020A 75 F0 80           1229 	mov	b,#0x80
                           1230 ;	Peephole 253.b	replaced lcall/ret with ljmp
   020D 02 00 AA           1231 	ljmp	_putstr
                           1232 ;
                           1233 ;------------------------------------------------------------
                           1234 ;Allocation info for local variables in function 'lcdgotoxy'
                           1235 ;------------------------------------------------------------
                           1236 ;column                    Allocated with name '_lcdgotoxy_PARM_2'
                           1237 ;row                       Allocated with name '_lcdgotoxy_row_1_1'
                           1238 ;------------------------------------------------------------
                           1239 ;	main.c:184: void lcdgotoxy(unsigned char row, unsigned char column)
                           1240 ;	-----------------------------------------
                           1241 ;	 function lcdgotoxy
                           1242 ;	-----------------------------------------
   0210                    1243 _lcdgotoxy:
                           1244 ;	genReceive
   0210 E5 82              1245 	mov	a,dpl
   0212 90 00 1E           1246 	mov	dptr,#_lcdgotoxy_row_1_1
   0215 F0                 1247 	movx	@dptr,a
                           1248 ;	main.c:186: switch(row)
                           1249 ;	genAssign
   0216 90 00 1E           1250 	mov	dptr,#_lcdgotoxy_row_1_1
   0219 E0                 1251 	movx	a,@dptr
                           1252 ;	genCmpGt
                           1253 ;	genCmp
                           1254 ;	genIfxJump
                           1255 ;	Peephole 132.b	optimized genCmpGt by inverse logic (acc differs)
   021A FA                 1256 	mov  r2,a
                           1257 ;	Peephole 177.a	removed redundant mov
   021B 24 FC              1258 	add	a,#0xff - 0x03
                           1259 ;	Peephole 112.b	changed ljmp to sjmp
                           1260 ;	Peephole 160.a	removed sjmp by inverse jump logic
   021D 40 47              1261 	jc	00106$
                           1262 ;	Peephole 300	removed redundant label 00109$
                           1263 ;	genJumpTab
   021F EA                 1264 	mov	a,r2
                           1265 ;	Peephole 254	optimized left shift
   0220 2A                 1266 	add	a,r2
   0221 2A                 1267 	add	a,r2
   0222 90 02 26           1268 	mov	dptr,#00110$
   0225 73                 1269 	jmp	@a+dptr
   0226                    1270 00110$:
   0226 02 02 32           1271 	ljmp	00101$
   0229 02 02 3C           1272 	ljmp	00102$
   022C 02 02 4A           1273 	ljmp	00103$
   022F 02 02 58           1274 	ljmp	00104$
                           1275 ;	main.c:188: case 0: lcdgotoaddr((BASE_ADDRROW0+column));
   0232                    1276 00101$:
                           1277 ;	genAssign
   0232 90 00 1D           1278 	mov	dptr,#_lcdgotoxy_PARM_2
   0235 E0                 1279 	movx	a,@dptr
                           1280 ;	genCall
   0236 FA                 1281 	mov	r2,a
                           1282 ;	Peephole 244.c	loading dpl from a instead of r2
   0237 F5 82              1283 	mov	dpl,a
                           1284 ;	main.c:189: break;
                           1285 ;	main.c:190: case 1: lcdgotoaddr((BASE_ADDRROW1+column));
                           1286 ;	Peephole 112.b	changed ljmp to sjmp
                           1287 ;	Peephole 251.b	replaced sjmp to ret with ret
                           1288 ;	Peephole 253.a	replaced lcall/ret with ljmp
   0239 02 01 E9           1289 	ljmp	_lcdgotoaddr
   023C                    1290 00102$:
                           1291 ;	genAssign
   023C 90 00 1D           1292 	mov	dptr,#_lcdgotoxy_PARM_2
   023F E0                 1293 	movx	a,@dptr
   0240 FA                 1294 	mov	r2,a
                           1295 ;	genPlus
                           1296 ;     genPlusIncr
   0241 74 40              1297 	mov	a,#0x40
                           1298 ;	Peephole 236.a	used r2 instead of ar2
   0243 2A                 1299 	add	a,r2
                           1300 ;	genCall
   0244 FA                 1301 	mov	r2,a
                           1302 ;	Peephole 244.c	loading dpl from a instead of r2
   0245 F5 82              1303 	mov	dpl,a
                           1304 ;	main.c:191: break;
                           1305 ;	main.c:192: case 2: lcdgotoaddr((BASE_ADDRROW2+column));
                           1306 ;	Peephole 112.b	changed ljmp to sjmp
                           1307 ;	Peephole 251.b	replaced sjmp to ret with ret
                           1308 ;	Peephole 253.a	replaced lcall/ret with ljmp
   0247 02 01 E9           1309 	ljmp	_lcdgotoaddr
   024A                    1310 00103$:
                           1311 ;	genAssign
   024A 90 00 1D           1312 	mov	dptr,#_lcdgotoxy_PARM_2
   024D E0                 1313 	movx	a,@dptr
   024E FA                 1314 	mov	r2,a
                           1315 ;	genPlus
                           1316 ;     genPlusIncr
   024F 74 10              1317 	mov	a,#0x10
                           1318 ;	Peephole 236.a	used r2 instead of ar2
   0251 2A                 1319 	add	a,r2
                           1320 ;	genCall
   0252 FA                 1321 	mov	r2,a
                           1322 ;	Peephole 244.c	loading dpl from a instead of r2
   0253 F5 82              1323 	mov	dpl,a
                           1324 ;	main.c:193: break;
                           1325 ;	main.c:194: case 3: lcdgotoaddr((BASE_ADDRROW3+column));
                           1326 ;	Peephole 112.b	changed ljmp to sjmp
                           1327 ;	Peephole 251.b	replaced sjmp to ret with ret
                           1328 ;	Peephole 253.a	replaced lcall/ret with ljmp
   0255 02 01 E9           1329 	ljmp	_lcdgotoaddr
   0258                    1330 00104$:
                           1331 ;	genAssign
   0258 90 00 1D           1332 	mov	dptr,#_lcdgotoxy_PARM_2
   025B E0                 1333 	movx	a,@dptr
   025C FA                 1334 	mov	r2,a
                           1335 ;	genPlus
                           1336 ;     genPlusIncr
   025D 74 50              1337 	mov	a,#0x50
                           1338 ;	Peephole 236.a	used r2 instead of ar2
   025F 2A                 1339 	add	a,r2
                           1340 ;	genCall
   0260 FA                 1341 	mov	r2,a
                           1342 ;	Peephole 244.c	loading dpl from a instead of r2
   0261 F5 82              1343 	mov	dpl,a
                           1344 ;	main.c:196: }
                           1345 ;	Peephole 253.c	replaced lcall with ljmp
   0263 02 01 E9           1346 	ljmp	_lcdgotoaddr
   0266                    1347 00106$:
   0266 22                 1348 	ret
                           1349 ;------------------------------------------------------------
                           1350 ;Allocation info for local variables in function 'lcdclear'
                           1351 ;------------------------------------------------------------
                           1352 ;------------------------------------------------------------
                           1353 ;	main.c:200: void lcdclear()
                           1354 ;	-----------------------------------------
                           1355 ;	 function lcdclear
                           1356 ;	-----------------------------------------
   0267                    1357 _lcdclear:
                           1358 ;	main.c:202: EA=0;
                           1359 ;	genAssign
   0267 C2 AF              1360 	clr	_EA
                           1361 ;	main.c:203: *INST_WRITE = CLEARSCREEN_CURSOR_HOME;
                           1362 ;	genAssign
                           1363 ;	Peephole 182.b	used 16 bit load of dptr
   0269 90 F0 00           1364 	mov	dptr,#0xF000
                           1365 ;	genPointerSet
                           1366 ;     genFarPointerSet
   026C 74 01              1367 	mov	a,#0x01
   026E F0                 1368 	movx	@dptr,a
                           1369 ;	main.c:204: EA=1;
                           1370 ;	genAssign
   026F D2 AF              1371 	setb	_EA
                           1372 ;	main.c:205: lcdbusywait();
                           1373 ;	genCall
   0271 12 01 00           1374 	lcall	_lcdbusywait
                           1375 ;	main.c:206: putstr("Clearing the LCD completed\n\r");
                           1376 ;	genCall
                           1377 ;	Peephole 182.a	used 16 bit load of DPTR
   0274 90 25 7F           1378 	mov	dptr,#__str_2
   0277 75 F0 80           1379 	mov	b,#0x80
                           1380 ;	Peephole 253.b	replaced lcall/ret with ljmp
   027A 02 00 AA           1381 	ljmp	_putstr
                           1382 ;
                           1383 ;------------------------------------------------------------
                           1384 ;Allocation info for local variables in function 'lcdputch'
                           1385 ;------------------------------------------------------------
                           1386 ;cc                        Allocated with name '_lcdputch_cc_1_1'
                           1387 ;aa                        Allocated with name '_lcdputch_aa_1_1'
                           1388 ;tempput                   Allocated with name '_lcdputch_tempput_1_1'
                           1389 ;------------------------------------------------------------
                           1390 ;	main.c:210: void lcdputch(unsigned char cc)
                           1391 ;	-----------------------------------------
                           1392 ;	 function lcdputch
                           1393 ;	-----------------------------------------
   027D                    1394 _lcdputch:
                           1395 ;	genReceive
   027D E5 82              1396 	mov	a,dpl
   027F 90 00 1F           1397 	mov	dptr,#_lcdputch_cc_1_1
   0282 F0                 1398 	movx	@dptr,a
                           1399 ;	main.c:213: EA=0;
                           1400 ;	genAssign
   0283 C2 AF              1401 	clr	_EA
                           1402 ;	main.c:214: *DATA_WRITE = cc;
                           1403 ;	genAssign
   0285 7A 00              1404 	mov	r2,#0x00
   0287 7B F4              1405 	mov	r3,#0xF4
                           1406 ;	genAssign
   0289 90 00 1F           1407 	mov	dptr,#_lcdputch_cc_1_1
   028C E0                 1408 	movx	a,@dptr
                           1409 ;	genPointerSet
                           1410 ;     genFarPointerSet
   028D FC                 1411 	mov	r4,a
   028E 8A 82              1412 	mov	dpl,r2
   0290 8B 83              1413 	mov	dph,r3
                           1414 ;	Peephole 136	removed redundant move
   0292 F0                 1415 	movx	@dptr,a
                           1416 ;	main.c:215: EA=1;
                           1417 ;	genAssign
   0293 D2 AF              1418 	setb	_EA
                           1419 ;	main.c:216: lcdbusywait();
                           1420 ;	genCall
   0295 12 01 00           1421 	lcall	_lcdbusywait
                           1422 ;	main.c:217: EA=0;
                           1423 ;	genAssign
   0298 C2 AF              1424 	clr	_EA
                           1425 ;	main.c:218: aa=*INST_READ;
                           1426 ;	genPointerGet
                           1427 ;	genFarPointerGet
                           1428 ;	Peephole 182.b	used 16 bit load of dptr
   029A 90 F8 00           1429 	mov	dptr,#0xF800
   029D E0                 1430 	movx	a,@dptr
                           1431 ;	genCast
   029E FA                 1432 	mov	r2,a
   029F 90 00 20           1433 	mov	dptr,#_lcdputch_aa_1_1
                           1434 ;	Peephole 100	removed redundant mov
   02A2 F0                 1435 	movx	@dptr,a
   02A3 A3                 1436 	inc	dptr
                           1437 ;	Peephole 181	changed mov to clr
   02A4 E4                 1438 	clr	a
   02A5 F0                 1439 	movx	@dptr,a
                           1440 ;	main.c:219: EA=1;
                           1441 ;	genAssign
   02A6 D2 AF              1442 	setb	_EA
                           1443 ;	main.c:220: tempput = aa&CURSORADDR_MASK_BITS;              /* THIS LOOP HANDLES THE ROW ADDRESS MISMATCH OF THE LCD*/
                           1444 ;	genAssign
   02A8 90 00 20           1445 	mov	dptr,#_lcdputch_aa_1_1
   02AB E0                 1446 	movx	a,@dptr
   02AC FA                 1447 	mov	r2,a
   02AD A3                 1448 	inc	dptr
   02AE E0                 1449 	movx	a,@dptr
   02AF FB                 1450 	mov	r3,a
                           1451 ;	genAnd
   02B0 90 00 22           1452 	mov	dptr,#_lcdputch_tempput_1_1
   02B3 74 7F              1453 	mov	a,#0x7F
   02B5 5A                 1454 	anl	a,r2
   02B6 F0                 1455 	movx	@dptr,a
   02B7 A3                 1456 	inc	dptr
                           1457 ;	Peephole 181	changed mov to clr
   02B8 E4                 1458 	clr	a
   02B9 F0                 1459 	movx	@dptr,a
                           1460 ;	main.c:221: if(tempput==0x10)
                           1461 ;	genAssign
   02BA 90 00 22           1462 	mov	dptr,#_lcdputch_tempput_1_1
   02BD E0                 1463 	movx	a,@dptr
   02BE FA                 1464 	mov	r2,a
   02BF A3                 1465 	inc	dptr
   02C0 E0                 1466 	movx	a,@dptr
   02C1 FB                 1467 	mov	r3,a
                           1468 ;	genCmpEq
                           1469 ;	gencjneshort
                           1470 ;	Peephole 112.b	changed ljmp to sjmp
                           1471 ;	Peephole 198.a	optimized misc jump sequence
   02C2 BA 10 0E           1472 	cjne	r2,#0x10,00110$
   02C5 BB 00 0B           1473 	cjne	r3,#0x00,00110$
                           1474 ;	Peephole 200.b	removed redundant sjmp
                           1475 ;	Peephole 300	removed redundant label 00118$
                           1476 ;	Peephole 300	removed redundant label 00119$
                           1477 ;	main.c:223: lcdgotoxy(1,0);
                           1478 ;	genAssign
   02C8 90 00 1D           1479 	mov	dptr,#_lcdgotoxy_PARM_2
                           1480 ;	Peephole 181	changed mov to clr
   02CB E4                 1481 	clr	a
   02CC F0                 1482 	movx	@dptr,a
                           1483 ;	genCall
   02CD 75 82 01           1484 	mov	dpl,#0x01
                           1485 ;	Peephole 112.b	changed ljmp to sjmp
                           1486 ;	Peephole 251.b	replaced sjmp to ret with ret
                           1487 ;	Peephole 253.a	replaced lcall/ret with ljmp
   02D0 02 02 10           1488 	ljmp	_lcdgotoxy
   02D3                    1489 00110$:
                           1490 ;	main.c:225: else if(tempput==0x50)
                           1491 ;	genAssign
   02D3 90 00 22           1492 	mov	dptr,#_lcdputch_tempput_1_1
   02D6 E0                 1493 	movx	a,@dptr
   02D7 FA                 1494 	mov	r2,a
   02D8 A3                 1495 	inc	dptr
   02D9 E0                 1496 	movx	a,@dptr
   02DA FB                 1497 	mov	r3,a
                           1498 ;	genCmpEq
                           1499 ;	gencjneshort
                           1500 ;	Peephole 112.b	changed ljmp to sjmp
                           1501 ;	Peephole 198.a	optimized misc jump sequence
   02DB BA 50 0E           1502 	cjne	r2,#0x50,00107$
   02DE BB 00 0B           1503 	cjne	r3,#0x00,00107$
                           1504 ;	Peephole 200.b	removed redundant sjmp
                           1505 ;	Peephole 300	removed redundant label 00120$
                           1506 ;	Peephole 300	removed redundant label 00121$
                           1507 ;	main.c:227: lcdgotoxy(2,0);
                           1508 ;	genAssign
   02E1 90 00 1D           1509 	mov	dptr,#_lcdgotoxy_PARM_2
                           1510 ;	Peephole 181	changed mov to clr
   02E4 E4                 1511 	clr	a
   02E5 F0                 1512 	movx	@dptr,a
                           1513 ;	genCall
   02E6 75 82 02           1514 	mov	dpl,#0x02
                           1515 ;	Peephole 112.b	changed ljmp to sjmp
                           1516 ;	Peephole 251.b	replaced sjmp to ret with ret
                           1517 ;	Peephole 253.a	replaced lcall/ret with ljmp
   02E9 02 02 10           1518 	ljmp	_lcdgotoxy
   02EC                    1519 00107$:
                           1520 ;	main.c:229: else if(tempput==0x20)
                           1521 ;	genAssign
   02EC 90 00 22           1522 	mov	dptr,#_lcdputch_tempput_1_1
   02EF E0                 1523 	movx	a,@dptr
   02F0 FA                 1524 	mov	r2,a
   02F1 A3                 1525 	inc	dptr
   02F2 E0                 1526 	movx	a,@dptr
   02F3 FB                 1527 	mov	r3,a
                           1528 ;	genCmpEq
                           1529 ;	gencjneshort
                           1530 ;	Peephole 112.b	changed ljmp to sjmp
                           1531 ;	Peephole 198.a	optimized misc jump sequence
   02F4 BA 20 0E           1532 	cjne	r2,#0x20,00104$
   02F7 BB 00 0B           1533 	cjne	r3,#0x00,00104$
                           1534 ;	Peephole 200.b	removed redundant sjmp
                           1535 ;	Peephole 300	removed redundant label 00122$
                           1536 ;	Peephole 300	removed redundant label 00123$
                           1537 ;	main.c:231: lcdgotoxy(3,0);
                           1538 ;	genAssign
   02FA 90 00 1D           1539 	mov	dptr,#_lcdgotoxy_PARM_2
                           1540 ;	Peephole 181	changed mov to clr
   02FD E4                 1541 	clr	a
   02FE F0                 1542 	movx	@dptr,a
                           1543 ;	genCall
   02FF 75 82 03           1544 	mov	dpl,#0x03
                           1545 ;	Peephole 112.b	changed ljmp to sjmp
                           1546 ;	Peephole 251.b	replaced sjmp to ret with ret
                           1547 ;	Peephole 253.a	replaced lcall/ret with ljmp
   0302 02 02 10           1548 	ljmp	_lcdgotoxy
   0305                    1549 00104$:
                           1550 ;	main.c:233: else if(tempput==0x59)
                           1551 ;	genAssign
   0305 90 00 22           1552 	mov	dptr,#_lcdputch_tempput_1_1
   0308 E0                 1553 	movx	a,@dptr
   0309 FA                 1554 	mov	r2,a
   030A A3                 1555 	inc	dptr
   030B E0                 1556 	movx	a,@dptr
   030C FB                 1557 	mov	r3,a
                           1558 ;	genCmpEq
                           1559 ;	gencjneshort
                           1560 ;	Peephole 112.b	changed ljmp to sjmp
                           1561 ;	Peephole 198.a	optimized misc jump sequence
   030D BA 59 0E           1562 	cjne	r2,#0x59,00112$
   0310 BB 00 0B           1563 	cjne	r3,#0x00,00112$
                           1564 ;	Peephole 200.b	removed redundant sjmp
                           1565 ;	Peephole 300	removed redundant label 00124$
                           1566 ;	Peephole 300	removed redundant label 00125$
                           1567 ;	main.c:235: lcdgotoxy(0,0);//lcdgotoaddr(temp);
                           1568 ;	genAssign
   0313 90 00 1D           1569 	mov	dptr,#_lcdgotoxy_PARM_2
                           1570 ;	Peephole 181	changed mov to clr
   0316 E4                 1571 	clr	a
   0317 F0                 1572 	movx	@dptr,a
                           1573 ;	genCall
   0318 75 82 00           1574 	mov	dpl,#0x00
                           1575 ;	Peephole 253.c	replaced lcall with ljmp
   031B 02 02 10           1576 	ljmp	_lcdgotoxy
   031E                    1577 00112$:
   031E 22                 1578 	ret
                           1579 ;------------------------------------------------------------
                           1580 ;Allocation info for local variables in function 'lcdputstr'
                           1581 ;------------------------------------------------------------
                           1582 ;ptr                       Allocated with name '_lcdputstr_ptr_1_1'
                           1583 ;------------------------------------------------------------
                           1584 ;	main.c:245: void lcdputstr(unsigned char *ptr)
                           1585 ;	-----------------------------------------
                           1586 ;	 function lcdputstr
                           1587 ;	-----------------------------------------
   031F                    1588 _lcdputstr:
                           1589 ;	genReceive
   031F AA F0              1590 	mov	r2,b
   0321 AB 83              1591 	mov	r3,dph
   0323 E5 82              1592 	mov	a,dpl
   0325 90 00 24           1593 	mov	dptr,#_lcdputstr_ptr_1_1
   0328 F0                 1594 	movx	@dptr,a
   0329 A3                 1595 	inc	dptr
   032A EB                 1596 	mov	a,r3
   032B F0                 1597 	movx	@dptr,a
   032C A3                 1598 	inc	dptr
   032D EA                 1599 	mov	a,r2
   032E F0                 1600 	movx	@dptr,a
                           1601 ;	main.c:247: while(*ptr)
                           1602 ;	genAssign
   032F 90 00 24           1603 	mov	dptr,#_lcdputstr_ptr_1_1
   0332 E0                 1604 	movx	a,@dptr
   0333 FA                 1605 	mov	r2,a
   0334 A3                 1606 	inc	dptr
   0335 E0                 1607 	movx	a,@dptr
   0336 FB                 1608 	mov	r3,a
   0337 A3                 1609 	inc	dptr
   0338 E0                 1610 	movx	a,@dptr
   0339 FC                 1611 	mov	r4,a
   033A                    1612 00101$:
                           1613 ;	genPointerGet
                           1614 ;	genGenPointerGet
   033A 8A 82              1615 	mov	dpl,r2
   033C 8B 83              1616 	mov	dph,r3
   033E 8C F0              1617 	mov	b,r4
   0340 12 25 13           1618 	lcall	__gptrget
                           1619 ;	genIfx
   0343 FD                 1620 	mov	r5,a
                           1621 ;	Peephole 105	removed redundant mov
                           1622 ;	genIfxJump
                           1623 ;	Peephole 108.c	removed ljmp by inverse jump logic
   0344 60 23              1624 	jz	00108$
                           1625 ;	Peephole 300	removed redundant label 00109$
                           1626 ;	main.c:249: lcdputch(*ptr);
                           1627 ;	genCall
   0346 8D 82              1628 	mov	dpl,r5
   0348 C0 02              1629 	push	ar2
   034A C0 03              1630 	push	ar3
   034C C0 04              1631 	push	ar4
   034E 12 02 7D           1632 	lcall	_lcdputch
   0351 D0 04              1633 	pop	ar4
   0353 D0 03              1634 	pop	ar3
   0355 D0 02              1635 	pop	ar2
                           1636 ;	main.c:250: ptr++;
                           1637 ;	genPlus
                           1638 ;     genPlusIncr
   0357 0A                 1639 	inc	r2
   0358 BA 00 01           1640 	cjne	r2,#0x00,00110$
   035B 0B                 1641 	inc	r3
   035C                    1642 00110$:
                           1643 ;	genAssign
   035C 90 00 24           1644 	mov	dptr,#_lcdputstr_ptr_1_1
   035F EA                 1645 	mov	a,r2
   0360 F0                 1646 	movx	@dptr,a
   0361 A3                 1647 	inc	dptr
   0362 EB                 1648 	mov	a,r3
   0363 F0                 1649 	movx	@dptr,a
   0364 A3                 1650 	inc	dptr
   0365 EC                 1651 	mov	a,r4
   0366 F0                 1652 	movx	@dptr,a
                           1653 ;	Peephole 112.b	changed ljmp to sjmp
   0367 80 D1              1654 	sjmp	00101$
   0369                    1655 00108$:
                           1656 ;	genAssign
   0369 90 00 24           1657 	mov	dptr,#_lcdputstr_ptr_1_1
   036C EA                 1658 	mov	a,r2
   036D F0                 1659 	movx	@dptr,a
   036E A3                 1660 	inc	dptr
   036F EB                 1661 	mov	a,r3
   0370 F0                 1662 	movx	@dptr,a
   0371 A3                 1663 	inc	dptr
   0372 EC                 1664 	mov	a,r4
   0373 F0                 1665 	movx	@dptr,a
                           1666 ;	Peephole 300	removed redundant label 00104$
   0374 22                 1667 	ret
                           1668 ;------------------------------------------------------------
                           1669 ;Allocation info for local variables in function 'lcdinit'
                           1670 ;------------------------------------------------------------
                           1671 ;------------------------------------------------------------
                           1672 ;	main.c:259: void lcdinit()
                           1673 ;	-----------------------------------------
                           1674 ;	 function lcdinit
                           1675 ;	-----------------------------------------
   0375                    1676 _lcdinit:
                           1677 ;	main.c:261: MSDelay(20);
                           1678 ;	genCall
                           1679 ;	Peephole 182.b	used 16 bit load of dptr
   0375 90 00 14           1680 	mov	dptr,#0x0014
   0378 12 00 77           1681 	lcall	_MSDelay
                           1682 ;	main.c:262: *INST_WRITE = UNLOCK_COMMAND;
                           1683 ;	genAssign
                           1684 ;	Peephole 182.b	used 16 bit load of dptr
   037B 90 F0 00           1685 	mov	dptr,#0xF000
                           1686 ;	genPointerSet
                           1687 ;     genFarPointerSet
   037E 74 30              1688 	mov	a,#0x30
   0380 F0                 1689 	movx	@dptr,a
                           1690 ;	main.c:263: MSDelay(8);
                           1691 ;	genCall
                           1692 ;	Peephole 182.b	used 16 bit load of dptr
   0381 90 00 08           1693 	mov	dptr,#0x0008
   0384 12 00 77           1694 	lcall	_MSDelay
                           1695 ;	main.c:264: *INST_WRITE = UNLOCK_COMMAND;
                           1696 ;	genAssign
                           1697 ;	Peephole 182.b	used 16 bit load of dptr
   0387 90 F0 00           1698 	mov	dptr,#0xF000
                           1699 ;	genPointerSet
                           1700 ;     genFarPointerSet
   038A 74 30              1701 	mov	a,#0x30
   038C F0                 1702 	movx	@dptr,a
                           1703 ;	main.c:265: MSDelay(3);
                           1704 ;	genCall
                           1705 ;	Peephole 182.b	used 16 bit load of dptr
   038D 90 00 03           1706 	mov	dptr,#0x0003
   0390 12 00 77           1707 	lcall	_MSDelay
                           1708 ;	main.c:266: *INST_WRITE = UNLOCK_COMMAND;
                           1709 ;	genAssign
                           1710 ;	Peephole 182.b	used 16 bit load of dptr
   0393 90 F0 00           1711 	mov	dptr,#0xF000
                           1712 ;	genPointerSet
                           1713 ;     genFarPointerSet
   0396 74 30              1714 	mov	a,#0x30
   0398 F0                 1715 	movx	@dptr,a
                           1716 ;	main.c:267: lcdbusywait();
                           1717 ;	genCall
   0399 12 01 00           1718 	lcall	_lcdbusywait
                           1719 ;	main.c:268: *INST_WRITE = FUNCTION_SET_LINES_FONT;
                           1720 ;	genAssign
                           1721 ;	Peephole 182.b	used 16 bit load of dptr
   039C 90 F0 00           1722 	mov	dptr,#0xF000
                           1723 ;	genPointerSet
                           1724 ;     genFarPointerSet
   039F 74 38              1725 	mov	a,#0x38
   03A1 F0                 1726 	movx	@dptr,a
                           1727 ;	main.c:269: lcdbusywait();
                           1728 ;	genCall
   03A2 12 01 00           1729 	lcall	_lcdbusywait
                           1730 ;	main.c:270: *INST_WRITE = DISPLAY_OFF;
                           1731 ;	genAssign
                           1732 ;	Peephole 182.b	used 16 bit load of dptr
   03A5 90 F0 00           1733 	mov	dptr,#0xF000
                           1734 ;	genPointerSet
                           1735 ;     genFarPointerSet
   03A8 74 08              1736 	mov	a,#0x08
   03AA F0                 1737 	movx	@dptr,a
                           1738 ;	main.c:271: lcdbusywait();
                           1739 ;	genCall
   03AB 12 01 00           1740 	lcall	_lcdbusywait
                           1741 ;	main.c:272: *INST_WRITE = DISPLAY_ON;
                           1742 ;	genAssign
                           1743 ;	Peephole 182.b	used 16 bit load of dptr
   03AE 90 F0 00           1744 	mov	dptr,#0xF000
                           1745 ;	genPointerSet
                           1746 ;     genFarPointerSet
   03B1 74 0C              1747 	mov	a,#0x0C
   03B3 F0                 1748 	movx	@dptr,a
                           1749 ;	main.c:273: lcdbusywait();
                           1750 ;	genCall
   03B4 12 01 00           1751 	lcall	_lcdbusywait
                           1752 ;	main.c:274: *INST_WRITE = ENTRY_MODE_SET;
                           1753 ;	genAssign
                           1754 ;	Peephole 182.b	used 16 bit load of dptr
   03B7 90 F0 00           1755 	mov	dptr,#0xF000
                           1756 ;	genPointerSet
                           1757 ;     genFarPointerSet
   03BA 74 06              1758 	mov	a,#0x06
   03BC F0                 1759 	movx	@dptr,a
                           1760 ;	main.c:275: lcdbusywait();
                           1761 ;	genCall
   03BD 12 01 00           1762 	lcall	_lcdbusywait
                           1763 ;	main.c:276: *INST_WRITE = CLEARSCREEN_CURSOR_HOME;
                           1764 ;	genAssign
                           1765 ;	Peephole 182.b	used 16 bit load of dptr
   03C0 90 F0 00           1766 	mov	dptr,#0xF000
                           1767 ;	genPointerSet
                           1768 ;     genFarPointerSet
   03C3 74 01              1769 	mov	a,#0x01
   03C5 F0                 1770 	movx	@dptr,a
                           1771 ;	main.c:277: lcdbusywait();
                           1772 ;	genCall
                           1773 ;	Peephole 253.b	replaced lcall/ret with ljmp
   03C6 02 01 00           1774 	ljmp	_lcdbusywait
                           1775 ;
                           1776 ;------------------------------------------------------------
                           1777 ;Allocation info for local variables in function 'cgramdump'
                           1778 ;------------------------------------------------------------
                           1779 ;count_row                 Allocated with name '_cgramdump_count_row_1_1'
                           1780 ;count                     Allocated with name '_cgramdump_count_1_1'
                           1781 ;temp_val                  Allocated with name '_cgramdump_temp_val_1_1'
                           1782 ;k                         Allocated with name '_cgramdump_k_1_1'
                           1783 ;------------------------------------------------------------
                           1784 ;	main.c:281: void cgramdump()
                           1785 ;	-----------------------------------------
                           1786 ;	 function cgramdump
                           1787 ;	-----------------------------------------
   03C9                    1788 _cgramdump:
                           1789 ;	main.c:285: unsigned char temp_val=0x40, k;
                           1790 ;	genAssign
   03C9 90 00 27           1791 	mov	dptr,#_cgramdump_temp_val_1_1
   03CC 74 40              1792 	mov	a,#0x40
   03CE F0                 1793 	movx	@dptr,a
                           1794 ;	main.c:286: EA=0;
                           1795 ;	genAssign
   03CF C2 AF              1796 	clr	_EA
                           1797 ;	main.c:287: k=*INST_READ;
                           1798 ;	genPointerGet
                           1799 ;	genFarPointerGet
                           1800 ;	Peephole 182.b	used 16 bit load of dptr
   03D1 90 F8 00           1801 	mov	dptr,#0xF800
   03D4 E0                 1802 	movx	a,@dptr
   03D5 FA                 1803 	mov	r2,a
                           1804 ;	main.c:289: EA=1;
                           1805 ;	genAssign
   03D6 D2 AF              1806 	setb	_EA
                           1807 ;	main.c:290: lcdbusywait();
                           1808 ;	genCall
   03D8 C0 02              1809 	push	ar2
   03DA 12 01 00           1810 	lcall	_lcdbusywait
   03DD D0 02              1811 	pop	ar2
                           1812 ;	main.c:291: putstr("\n\r");
                           1813 ;	genCall
                           1814 ;	Peephole 182.a	used 16 bit load of DPTR
   03DF 90 25 9C           1815 	mov	dptr,#__str_3
   03E2 75 F0 80           1816 	mov	b,#0x80
   03E5 C0 02              1817 	push	ar2
   03E7 12 00 AA           1818 	lcall	_putstr
   03EA D0 02              1819 	pop	ar2
                           1820 ;	main.c:292: putstr("CGRAM values\n\r");
                           1821 ;	genCall
                           1822 ;	Peephole 182.a	used 16 bit load of DPTR
   03EC 90 25 9F           1823 	mov	dptr,#__str_4
   03EF 75 F0 80           1824 	mov	b,#0x80
   03F2 C0 02              1825 	push	ar2
   03F4 12 00 AA           1826 	lcall	_putstr
   03F7 D0 02              1827 	pop	ar2
                           1828 ;	main.c:293: putstr("\n\rCCODE |  Values\n\r");
                           1829 ;	genCall
                           1830 ;	Peephole 182.a	used 16 bit load of DPTR
   03F9 90 25 AE           1831 	mov	dptr,#__str_5
   03FC 75 F0 80           1832 	mov	b,#0x80
   03FF C0 02              1833 	push	ar2
   0401 12 00 AA           1834 	lcall	_putstr
   0404 D0 02              1835 	pop	ar2
                           1836 ;	main.c:294: for (count_row=0; count_row<=7; count_row++)
                           1837 ;	genAssign
   0406 7B 00              1838 	mov	r3,#0x00
   0408 7C 00              1839 	mov	r4,#0x00
   040A                    1840 00105$:
                           1841 ;	genCmpGt
                           1842 ;	genCmp
   040A C3                 1843 	clr	c
   040B 74 07              1844 	mov	a,#0x07
   040D 9B                 1845 	subb	a,r3
                           1846 ;	Peephole 181	changed mov to clr
   040E E4                 1847 	clr	a
   040F 9C                 1848 	subb	a,r4
                           1849 ;	genIfxJump
   0410 50 03              1850 	jnc	00117$
   0412 02 04 FA           1851 	ljmp	00108$
   0415                    1852 00117$:
                           1853 ;	main.c:296: printf("0x%04x:  ", (temp_val&CGRAM_ADDR_MASK_BITS));
                           1854 ;	genAssign
   0415 90 00 27           1855 	mov	dptr,#_cgramdump_temp_val_1_1
   0418 E0                 1856 	movx	a,@dptr
   0419 FD                 1857 	mov	r5,a
                           1858 ;	genAnd
   041A 74 3F              1859 	mov	a,#0x3F
   041C 5D                 1860 	anl	a,r5
   041D FE                 1861 	mov	r6,a
                           1862 ;	genCast
   041E 7F 00              1863 	mov	r7,#0x00
                           1864 ;	genIpush
   0420 C0 02              1865 	push	ar2
   0422 C0 03              1866 	push	ar3
   0424 C0 04              1867 	push	ar4
   0426 C0 05              1868 	push	ar5
   0428 C0 06              1869 	push	ar6
   042A C0 07              1870 	push	ar7
                           1871 ;	genIpush
   042C 74 C2              1872 	mov	a,#__str_6
   042E C0 E0              1873 	push	acc
   0430 74 25              1874 	mov	a,#(__str_6 >> 8)
   0432 C0 E0              1875 	push	acc
   0434 74 80              1876 	mov	a,#0x80
   0436 C0 E0              1877 	push	acc
                           1878 ;	genCall
   0438 12 1C 74           1879 	lcall	_printf
   043B E5 81              1880 	mov	a,sp
   043D 24 FB              1881 	add	a,#0xfb
   043F F5 81              1882 	mov	sp,a
   0441 D0 05              1883 	pop	ar5
   0443 D0 04              1884 	pop	ar4
   0445 D0 03              1885 	pop	ar3
   0447 D0 02              1886 	pop	ar2
                           1887 ;	main.c:297: for(count=0; count<=7; count++)
                           1888 ;	genAssign
                           1889 ;	genAssign
   0449 7E 00              1890 	mov	r6,#0x00
   044B 7F 00              1891 	mov	r7,#0x00
   044D                    1892 00101$:
                           1893 ;	genCmpGt
                           1894 ;	genCmp
   044D C3                 1895 	clr	c
   044E 74 07              1896 	mov	a,#0x07
   0450 9E                 1897 	subb	a,r6
                           1898 ;	Peephole 181	changed mov to clr
   0451 E4                 1899 	clr	a
   0452 9F                 1900 	subb	a,r7
                           1901 ;	genIfxJump
   0453 50 03              1902 	jnc	00118$
   0455 02 04 D8           1903 	ljmp	00115$
   0458                    1904 00118$:
                           1905 ;	main.c:299: ET0=0;
                           1906 ;	genAssign
   0458 C2 A9              1907 	clr	_ET0
                           1908 ;	main.c:300: *INST_WRITE = temp_val;
                           1909 ;	genAssign
                           1910 ;	Peephole 182.b	used 16 bit load of dptr
   045A 90 F0 00           1911 	mov	dptr,#0xF000
                           1912 ;	genPointerSet
                           1913 ;     genFarPointerSet
   045D ED                 1914 	mov	a,r5
   045E F0                 1915 	movx	@dptr,a
                           1916 ;	main.c:301: lcdbusywait();
                           1917 ;	genCall
   045F C0 02              1918 	push	ar2
   0461 C0 03              1919 	push	ar3
   0463 C0 04              1920 	push	ar4
   0465 C0 05              1921 	push	ar5
   0467 C0 06              1922 	push	ar6
   0469 C0 07              1923 	push	ar7
   046B 12 01 00           1924 	lcall	_lcdbusywait
   046E D0 07              1925 	pop	ar7
   0470 D0 06              1926 	pop	ar6
   0472 D0 05              1927 	pop	ar5
   0474 D0 04              1928 	pop	ar4
   0476 D0 03              1929 	pop	ar3
   0478 D0 02              1930 	pop	ar2
                           1931 ;	main.c:302: printf("%02x  ",*DATA_READ);
                           1932 ;	genPointerGet
                           1933 ;	genFarPointerGet
                           1934 ;	Peephole 182.b	used 16 bit load of dptr
   047A 90 FC 00           1935 	mov	dptr,#0xFC00
   047D E0                 1936 	movx	a,@dptr
   047E F8                 1937 	mov	r0,a
                           1938 ;	genCast
   047F 79 00              1939 	mov	r1,#0x00
                           1940 ;	genIpush
   0481 C0 02              1941 	push	ar2
   0483 C0 03              1942 	push	ar3
   0485 C0 04              1943 	push	ar4
   0487 C0 05              1944 	push	ar5
   0489 C0 06              1945 	push	ar6
   048B C0 07              1946 	push	ar7
   048D C0 00              1947 	push	ar0
   048F C0 01              1948 	push	ar1
                           1949 ;	genIpush
   0491 74 CC              1950 	mov	a,#__str_7
   0493 C0 E0              1951 	push	acc
   0495 74 25              1952 	mov	a,#(__str_7 >> 8)
   0497 C0 E0              1953 	push	acc
   0499 74 80              1954 	mov	a,#0x80
   049B C0 E0              1955 	push	acc
                           1956 ;	genCall
   049D 12 1C 74           1957 	lcall	_printf
   04A0 E5 81              1958 	mov	a,sp
   04A2 24 FB              1959 	add	a,#0xfb
   04A4 F5 81              1960 	mov	sp,a
   04A6 D0 07              1961 	pop	ar7
   04A8 D0 06              1962 	pop	ar6
   04AA D0 05              1963 	pop	ar5
   04AC D0 04              1964 	pop	ar4
   04AE D0 03              1965 	pop	ar3
   04B0 D0 02              1966 	pop	ar2
                           1967 ;	main.c:303: ET0=1;
                           1968 ;	genAssign
   04B2 D2 A9              1969 	setb	_ET0
                           1970 ;	main.c:304: temp_val++;
                           1971 ;	genPlus
                           1972 ;     genPlusIncr
   04B4 0D                 1973 	inc	r5
                           1974 ;	main.c:305: lcdbusywait();
                           1975 ;	genCall
   04B5 C0 02              1976 	push	ar2
   04B7 C0 03              1977 	push	ar3
   04B9 C0 04              1978 	push	ar4
   04BB C0 05              1979 	push	ar5
   04BD C0 06              1980 	push	ar6
   04BF C0 07              1981 	push	ar7
   04C1 12 01 00           1982 	lcall	_lcdbusywait
   04C4 D0 07              1983 	pop	ar7
   04C6 D0 06              1984 	pop	ar6
   04C8 D0 05              1985 	pop	ar5
   04CA D0 04              1986 	pop	ar4
   04CC D0 03              1987 	pop	ar3
   04CE D0 02              1988 	pop	ar2
                           1989 ;	main.c:297: for(count=0; count<=7; count++)
                           1990 ;	genPlus
                           1991 ;     genPlusIncr
   04D0 0E                 1992 	inc	r6
   04D1 BE 00 01           1993 	cjne	r6,#0x00,00119$
   04D4 0F                 1994 	inc	r7
   04D5                    1995 00119$:
   04D5 02 04 4D           1996 	ljmp	00101$
   04D8                    1997 00115$:
                           1998 ;	genAssign
   04D8 90 00 27           1999 	mov	dptr,#_cgramdump_temp_val_1_1
   04DB ED                 2000 	mov	a,r5
   04DC F0                 2001 	movx	@dptr,a
                           2002 ;	main.c:307: putstr("\n\r");
                           2003 ;	genCall
                           2004 ;	Peephole 182.a	used 16 bit load of DPTR
   04DD 90 25 9C           2005 	mov	dptr,#__str_3
   04E0 75 F0 80           2006 	mov	b,#0x80
   04E3 C0 02              2007 	push	ar2
   04E5 C0 03              2008 	push	ar3
   04E7 C0 04              2009 	push	ar4
   04E9 12 00 AA           2010 	lcall	_putstr
   04EC D0 04              2011 	pop	ar4
   04EE D0 03              2012 	pop	ar3
   04F0 D0 02              2013 	pop	ar2
                           2014 ;	main.c:294: for (count_row=0; count_row<=7; count_row++)
                           2015 ;	genPlus
                           2016 ;     genPlusIncr
   04F2 0B                 2017 	inc	r3
   04F3 BB 00 01           2018 	cjne	r3,#0x00,00120$
   04F6 0C                 2019 	inc	r4
   04F7                    2020 00120$:
   04F7 02 04 0A           2021 	ljmp	00105$
   04FA                    2022 00108$:
                           2023 ;	main.c:309: putstr("\n\r");
                           2024 ;	genCall
                           2025 ;	Peephole 182.a	used 16 bit load of DPTR
   04FA 90 25 9C           2026 	mov	dptr,#__str_3
   04FD 75 F0 80           2027 	mov	b,#0x80
   0500 C0 02              2028 	push	ar2
   0502 12 00 AA           2029 	lcall	_putstr
   0505 D0 02              2030 	pop	ar2
                           2031 ;	main.c:310: EA=0;
                           2032 ;	genAssign
   0507 C2 AF              2033 	clr	_EA
                           2034 ;	main.c:311: *INST_WRITE=(k|DDRAM_WRITE_MASK_BITS);
                           2035 ;	genAssign
                           2036 ;	Peephole 182.b	used 16 bit load of dptr
   0509 90 F0 00           2037 	mov	dptr,#0xF000
                           2038 ;	genOr
   050C 43 02 80           2039 	orl	ar2,#0x80
                           2040 ;	genPointerSet
                           2041 ;     genFarPointerSet
   050F EA                 2042 	mov	a,r2
   0510 F0                 2043 	movx	@dptr,a
                           2044 ;	main.c:312: EA=1;
                           2045 ;	genAssign
   0511 D2 AF              2046 	setb	_EA
                           2047 ;	main.c:313: lcdbusywait();
                           2048 ;	genCall
                           2049 ;	Peephole 253.b	replaced lcall/ret with ljmp
   0513 02 01 00           2050 	ljmp	_lcdbusywait
                           2051 ;
                           2052 ;------------------------------------------------------------
                           2053 ;Allocation info for local variables in function 'lcdcreatechar'
                           2054 ;------------------------------------------------------------
                           2055 ;sloc0                     Allocated with name '_lcdcreatechar_sloc0_1_0'
                           2056 ;row_vals                  Allocated with name '_lcdcreatechar_PARM_2'
                           2057 ;ccode                     Allocated with name '_lcdcreatechar_ccode_1_1'
                           2058 ;n                         Allocated with name '_lcdcreatechar_n_1_1'
                           2059 ;y                         Allocated with name '_lcdcreatechar_y_1_1'
                           2060 ;------------------------------------------------------------
                           2061 ;	main.c:318: void lcdcreatechar(unsigned char ccode, unsigned char row_vals[])
                           2062 ;	-----------------------------------------
                           2063 ;	 function lcdcreatechar
                           2064 ;	-----------------------------------------
   0516                    2065 _lcdcreatechar:
                           2066 ;	genReceive
   0516 E5 82              2067 	mov	a,dpl
   0518 90 00 2B           2068 	mov	dptr,#_lcdcreatechar_ccode_1_1
   051B F0                 2069 	movx	@dptr,a
                           2070 ;	main.c:321: EA=0;
                           2071 ;	genAssign
   051C C2 AF              2072 	clr	_EA
                           2073 ;	main.c:322: y=*INST_READ;
                           2074 ;	genPointerGet
                           2075 ;	genFarPointerGet
                           2076 ;	Peephole 182.b	used 16 bit load of dptr
   051E 90 F8 00           2077 	mov	dptr,#0xF800
   0521 E0                 2078 	movx	a,@dptr
   0522 FA                 2079 	mov	r2,a
                           2080 ;	main.c:323: EA=1;
                           2081 ;	genAssign
   0523 D2 AF              2082 	setb	_EA
                           2083 ;	main.c:324: lcdbusywait();
                           2084 ;	genCall
   0525 C0 02              2085 	push	ar2
   0527 12 01 00           2086 	lcall	_lcdbusywait
   052A D0 02              2087 	pop	ar2
                           2088 ;	main.c:325: ccode |= 0x40;
                           2089 ;	genAssign
                           2090 ;	genOr
   052C 90 00 2B           2091 	mov	dptr,#_lcdcreatechar_ccode_1_1
   052F E0                 2092 	movx	a,@dptr
   0530 FB                 2093 	mov	r3,a
                           2094 ;	Peephole 248.a	optimized or to xdata
   0531 44 40              2095 	orl	a,#0x40
   0533 F0                 2096 	movx	@dptr,a
                           2097 ;	main.c:326: for (n=0; n<=7; n++)
                           2098 ;	genAssign
   0534 90 00 28           2099 	mov	dptr,#_lcdcreatechar_PARM_2
   0537 E0                 2100 	movx	a,@dptr
   0538 FB                 2101 	mov	r3,a
   0539 A3                 2102 	inc	dptr
   053A E0                 2103 	movx	a,@dptr
   053B FC                 2104 	mov	r4,a
   053C A3                 2105 	inc	dptr
   053D E0                 2106 	movx	a,@dptr
   053E FD                 2107 	mov	r5,a
                           2108 ;	genAssign
   053F 90 00 2B           2109 	mov	dptr,#_lcdcreatechar_ccode_1_1
   0542 E0                 2110 	movx	a,@dptr
   0543 FE                 2111 	mov	r6,a
                           2112 ;	genAssign
   0544 7F 00              2113 	mov	r7,#0x00
   0546                    2114 00101$:
                           2115 ;	genCmpGt
                           2116 ;	genCmp
                           2117 ;	genIfxJump
                           2118 ;	Peephole 132.b	optimized genCmpGt by inverse logic (acc differs)
   0546 EF                 2119 	mov	a,r7
   0547 24 F8              2120 	add	a,#0xff - 0x07
                           2121 ;	Peephole 112.b	changed ljmp to sjmp
                           2122 ;	Peephole 160.a	removed sjmp by inverse jump logic
   0549 40 6F              2123 	jc	00109$
                           2124 ;	Peephole 300	removed redundant label 00110$
                           2125 ;	main.c:328: ET0=0;
                           2126 ;	genIpush
   054B C0 02              2127 	push	ar2
                           2128 ;	genAssign
   054D C2 A9              2129 	clr	_ET0
                           2130 ;	main.c:329: *INST_WRITE = ccode;
                           2131 ;	genAssign
                           2132 ;	Peephole 182.b	used 16 bit load of dptr
   054F 90 F0 00           2133 	mov	dptr,#0xF000
                           2134 ;	genPointerSet
                           2135 ;     genFarPointerSet
   0552 EE                 2136 	mov	a,r6
   0553 F0                 2137 	movx	@dptr,a
                           2138 ;	main.c:330: lcdbusywait();
                           2139 ;	genCall
   0554 C0 02              2140 	push	ar2
   0556 C0 03              2141 	push	ar3
   0558 C0 04              2142 	push	ar4
   055A C0 05              2143 	push	ar5
   055C C0 06              2144 	push	ar6
   055E C0 07              2145 	push	ar7
   0560 12 01 00           2146 	lcall	_lcdbusywait
   0563 D0 07              2147 	pop	ar7
   0565 D0 06              2148 	pop	ar6
   0567 D0 05              2149 	pop	ar5
   0569 D0 04              2150 	pop	ar4
   056B D0 03              2151 	pop	ar3
   056D D0 02              2152 	pop	ar2
                           2153 ;	main.c:331: *DATA_WRITE = (row_vals[n]&CGRAM_PIXEL_MASK_BITS);
                           2154 ;	genAssign
   056F 75 22 00           2155 	mov	_lcdcreatechar_sloc0_1_0,#0x00
   0572 75 23 F4           2156 	mov	(_lcdcreatechar_sloc0_1_0 + 1),#0xF4
                           2157 ;	genPlus
                           2158 ;	Peephole 236.g	used r7 instead of ar7
   0575 EF                 2159 	mov	a,r7
                           2160 ;	Peephole 236.a	used r3 instead of ar3
   0576 2B                 2161 	add	a,r3
   0577 FA                 2162 	mov	r2,a
                           2163 ;	Peephole 181	changed mov to clr
   0578 E4                 2164 	clr	a
                           2165 ;	Peephole 236.b	used r4 instead of ar4
   0579 3C                 2166 	addc	a,r4
   057A F8                 2167 	mov	r0,a
   057B 8D 01              2168 	mov	ar1,r5
                           2169 ;	genPointerGet
                           2170 ;	genGenPointerGet
   057D 8A 82              2171 	mov	dpl,r2
   057F 88 83              2172 	mov	dph,r0
   0581 89 F0              2173 	mov	b,r1
   0583 12 25 13           2174 	lcall	__gptrget
   0586 FA                 2175 	mov	r2,a
                           2176 ;	genAnd
   0587 53 02 1F           2177 	anl	ar2,#0x1F
                           2178 ;	genPointerSet
                           2179 ;     genFarPointerSet
   058A 85 22 82           2180 	mov	dpl,_lcdcreatechar_sloc0_1_0
   058D 85 23 83           2181 	mov	dph,(_lcdcreatechar_sloc0_1_0 + 1)
   0590 EA                 2182 	mov	a,r2
   0591 F0                 2183 	movx	@dptr,a
                           2184 ;	main.c:332: ET0=1;
                           2185 ;	genAssign
   0592 D2 A9              2186 	setb	_ET0
                           2187 ;	main.c:333: lcdbusywait();
                           2188 ;	genCall
   0594 C0 02              2189 	push	ar2
   0596 C0 03              2190 	push	ar3
   0598 C0 04              2191 	push	ar4
   059A C0 05              2192 	push	ar5
   059C C0 06              2193 	push	ar6
   059E C0 07              2194 	push	ar7
   05A0 12 01 00           2195 	lcall	_lcdbusywait
   05A3 D0 07              2196 	pop	ar7
   05A5 D0 06              2197 	pop	ar6
   05A7 D0 05              2198 	pop	ar5
   05A9 D0 04              2199 	pop	ar4
   05AB D0 03              2200 	pop	ar3
   05AD D0 02              2201 	pop	ar2
                           2202 ;	main.c:334: ccode++;
                           2203 ;	genPlus
                           2204 ;     genPlusIncr
   05AF 0E                 2205 	inc	r6
                           2206 ;	genAssign
   05B0 90 00 2B           2207 	mov	dptr,#_lcdcreatechar_ccode_1_1
   05B3 EE                 2208 	mov	a,r6
   05B4 F0                 2209 	movx	@dptr,a
                           2210 ;	main.c:326: for (n=0; n<=7; n++)
                           2211 ;	genPlus
                           2212 ;     genPlusIncr
   05B5 0F                 2213 	inc	r7
                           2214 ;	genIpop
   05B6 D0 02              2215 	pop	ar2
                           2216 ;	Peephole 112.b	changed ljmp to sjmp
   05B8 80 8C              2217 	sjmp	00101$
   05BA                    2218 00109$:
                           2219 ;	genAssign
   05BA 90 00 2B           2220 	mov	dptr,#_lcdcreatechar_ccode_1_1
   05BD EE                 2221 	mov	a,r6
   05BE F0                 2222 	movx	@dptr,a
                           2223 ;	main.c:336: EA=0;
                           2224 ;	genAssign
   05BF C2 AF              2225 	clr	_EA
                           2226 ;	main.c:337: *INST_WRITE=(y|DDRAM_WRITE_MASK_BITS);
                           2227 ;	genAssign
                           2228 ;	Peephole 182.b	used 16 bit load of dptr
   05C1 90 F0 00           2229 	mov	dptr,#0xF000
                           2230 ;	genOr
   05C4 43 02 80           2231 	orl	ar2,#0x80
                           2232 ;	genPointerSet
                           2233 ;     genFarPointerSet
   05C7 EA                 2234 	mov	a,r2
   05C8 F0                 2235 	movx	@dptr,a
                           2236 ;	main.c:338: EA=1;
                           2237 ;	genAssign
   05C9 D2 AF              2238 	setb	_EA
                           2239 ;	main.c:339: lcdbusywait();
                           2240 ;	genCall
                           2241 ;	Peephole 253.b	replaced lcall/ret with ljmp
   05CB 02 01 00           2242 	ljmp	_lcdbusywait
                           2243 ;
                           2244 ;------------------------------------------------------------
                           2245 ;Allocation info for local variables in function 'ddramdump'
                           2246 ;------------------------------------------------------------
                           2247 ;count_row                 Allocated with name '_ddramdump_count_row_1_1'
                           2248 ;count                     Allocated with name '_ddramdump_count_1_1'
                           2249 ;temp_val                  Allocated with name '_ddramdump_temp_val_1_1'
                           2250 ;k                         Allocated with name '_ddramdump_k_1_1'
                           2251 ;------------------------------------------------------------
                           2252 ;	main.c:343: void ddramdump()
                           2253 ;	-----------------------------------------
                           2254 ;	 function ddramdump
                           2255 ;	-----------------------------------------
   05CE                    2256 _ddramdump:
                           2257 ;	main.c:347: unsigned char temp_val=0, k;
                           2258 ;	genAssign
   05CE 90 00 2C           2259 	mov	dptr,#_ddramdump_temp_val_1_1
                           2260 ;	Peephole 181	changed mov to clr
   05D1 E4                 2261 	clr	a
   05D2 F0                 2262 	movx	@dptr,a
                           2263 ;	main.c:348: EA=0;
                           2264 ;	genAssign
   05D3 C2 AF              2265 	clr	_EA
                           2266 ;	main.c:349: k=*INST_READ;
                           2267 ;	genPointerGet
                           2268 ;	genFarPointerGet
                           2269 ;	Peephole 182.b	used 16 bit load of dptr
   05D5 90 F8 00           2270 	mov	dptr,#0xF800
   05D8 E0                 2271 	movx	a,@dptr
   05D9 FA                 2272 	mov	r2,a
                           2273 ;	main.c:350: EA=1;
                           2274 ;	genAssign
   05DA D2 AF              2275 	setb	_EA
                           2276 ;	main.c:351: putstr("\n\r");
                           2277 ;	genCall
                           2278 ;	Peephole 182.a	used 16 bit load of DPTR
   05DC 90 25 9C           2279 	mov	dptr,#__str_3
   05DF 75 F0 80           2280 	mov	b,#0x80
   05E2 C0 02              2281 	push	ar2
   05E4 12 00 AA           2282 	lcall	_putstr
   05E7 D0 02              2283 	pop	ar2
                           2284 ;	main.c:352: putstr("DDRAM Values\n\r");
                           2285 ;	genCall
                           2286 ;	Peephole 182.a	used 16 bit load of DPTR
   05E9 90 25 D3           2287 	mov	dptr,#__str_8
   05EC 75 F0 80           2288 	mov	b,#0x80
   05EF C0 02              2289 	push	ar2
   05F1 12 00 AA           2290 	lcall	_putstr
   05F4 D0 02              2291 	pop	ar2
                           2292 ;	main.c:353: putstr("\n\rADDR|  +0  +1  +2  +3  +4  +5  +6  +7  +8  +9  +A  +B  +C  +D  +E  +F\n\r\n\r");
                           2293 ;	genCall
                           2294 ;	Peephole 182.a	used 16 bit load of DPTR
   05F6 90 25 E2           2295 	mov	dptr,#__str_9
   05F9 75 F0 80           2296 	mov	b,#0x80
   05FC C0 02              2297 	push	ar2
   05FE 12 00 AA           2298 	lcall	_putstr
   0601 D0 02              2299 	pop	ar2
                           2300 ;	main.c:354: for (count_row=0; count_row<=3; count_row++)
                           2301 ;	genAssign
   0603 7B 00              2302 	mov	r3,#0x00
   0605 7C 00              2303 	mov	r4,#0x00
   0607                    2304 00113$:
                           2305 ;	genCmpGt
                           2306 ;	genCmp
   0607 C3                 2307 	clr	c
   0608 74 03              2308 	mov	a,#0x03
   060A 9B                 2309 	subb	a,r3
                           2310 ;	Peephole 181	changed mov to clr
   060B E4                 2311 	clr	a
   060C 9C                 2312 	subb	a,r4
                           2313 ;	genIfxJump
   060D 50 03              2314 	jnc	00129$
   060F 02 07 29           2315 	ljmp	00116$
   0612                    2316 00129$:
                           2317 ;	main.c:356: if(count_row==0)
                           2318 ;	genIfx
   0612 EB                 2319 	mov	a,r3
   0613 4C                 2320 	orl	a,r4
                           2321 ;	genIfxJump
                           2322 ;	Peephole 108.b	removed ljmp by inverse jump logic
   0614 70 06              2323 	jnz	00102$
                           2324 ;	Peephole 300	removed redundant label 00130$
                           2325 ;	main.c:357: temp_val=(DDRAM_WRITE_MASK_BITS | BASE_ADDRROW0);
                           2326 ;	genAssign
   0616 90 00 2C           2327 	mov	dptr,#_ddramdump_temp_val_1_1
   0619 74 80              2328 	mov	a,#0x80
   061B F0                 2329 	movx	@dptr,a
   061C                    2330 00102$:
                           2331 ;	main.c:358: if(count_row==1)
                           2332 ;	genCmpEq
                           2333 ;	gencjneshort
                           2334 ;	Peephole 112.b	changed ljmp to sjmp
                           2335 ;	Peephole 198.a	optimized misc jump sequence
   061C BB 01 09           2336 	cjne	r3,#0x01,00104$
   061F BC 00 06           2337 	cjne	r4,#0x00,00104$
                           2338 ;	Peephole 200.b	removed redundant sjmp
                           2339 ;	Peephole 300	removed redundant label 00131$
                           2340 ;	Peephole 300	removed redundant label 00132$
                           2341 ;	main.c:359: temp_val=(DDRAM_WRITE_MASK_BITS | BASE_ADDRROW1);
                           2342 ;	genAssign
   0622 90 00 2C           2343 	mov	dptr,#_ddramdump_temp_val_1_1
   0625 74 C0              2344 	mov	a,#0xC0
   0627 F0                 2345 	movx	@dptr,a
   0628                    2346 00104$:
                           2347 ;	main.c:360: if(count_row==2)
                           2348 ;	genCmpEq
                           2349 ;	gencjneshort
                           2350 ;	Peephole 112.b	changed ljmp to sjmp
                           2351 ;	Peephole 198.a	optimized misc jump sequence
   0628 BB 02 09           2352 	cjne	r3,#0x02,00106$
   062B BC 00 06           2353 	cjne	r4,#0x00,00106$
                           2354 ;	Peephole 200.b	removed redundant sjmp
                           2355 ;	Peephole 300	removed redundant label 00133$
                           2356 ;	Peephole 300	removed redundant label 00134$
                           2357 ;	main.c:361: temp_val=(DDRAM_WRITE_MASK_BITS | BASE_ADDRROW2);
                           2358 ;	genAssign
   062E 90 00 2C           2359 	mov	dptr,#_ddramdump_temp_val_1_1
   0631 74 90              2360 	mov	a,#0x90
   0633 F0                 2361 	movx	@dptr,a
   0634                    2362 00106$:
                           2363 ;	main.c:362: if(count_row==3)
                           2364 ;	genCmpEq
                           2365 ;	gencjneshort
                           2366 ;	Peephole 112.b	changed ljmp to sjmp
                           2367 ;	Peephole 198.a	optimized misc jump sequence
   0634 BB 03 09           2368 	cjne	r3,#0x03,00108$
   0637 BC 00 06           2369 	cjne	r4,#0x00,00108$
                           2370 ;	Peephole 200.b	removed redundant sjmp
                           2371 ;	Peephole 300	removed redundant label 00135$
                           2372 ;	Peephole 300	removed redundant label 00136$
                           2373 ;	main.c:363: temp_val=(DDRAM_WRITE_MASK_BITS | BASE_ADDRROW3);
                           2374 ;	genAssign
   063A 90 00 2C           2375 	mov	dptr,#_ddramdump_temp_val_1_1
   063D 74 D0              2376 	mov	a,#0xD0
   063F F0                 2377 	movx	@dptr,a
   0640                    2378 00108$:
                           2379 ;	main.c:364: printf("0x%02x:  ", (temp_val&DDRAM_ADDR_MASK_BITS));
                           2380 ;	genAssign
   0640 90 00 2C           2381 	mov	dptr,#_ddramdump_temp_val_1_1
   0643 E0                 2382 	movx	a,@dptr
   0644 FD                 2383 	mov	r5,a
                           2384 ;	genAnd
   0645 74 7F              2385 	mov	a,#0x7F
   0647 5D                 2386 	anl	a,r5
   0648 FE                 2387 	mov	r6,a
                           2388 ;	genCast
   0649 7F 00              2389 	mov	r7,#0x00
                           2390 ;	genIpush
   064B C0 02              2391 	push	ar2
   064D C0 03              2392 	push	ar3
   064F C0 04              2393 	push	ar4
   0651 C0 05              2394 	push	ar5
   0653 C0 06              2395 	push	ar6
   0655 C0 07              2396 	push	ar7
                           2397 ;	genIpush
   0657 74 2E              2398 	mov	a,#__str_10
   0659 C0 E0              2399 	push	acc
   065B 74 26              2400 	mov	a,#(__str_10 >> 8)
   065D C0 E0              2401 	push	acc
   065F 74 80              2402 	mov	a,#0x80
   0661 C0 E0              2403 	push	acc
                           2404 ;	genCall
   0663 12 1C 74           2405 	lcall	_printf
   0666 E5 81              2406 	mov	a,sp
   0668 24 FB              2407 	add	a,#0xfb
   066A F5 81              2408 	mov	sp,a
   066C D0 05              2409 	pop	ar5
   066E D0 04              2410 	pop	ar4
   0670 D0 03              2411 	pop	ar3
   0672 D0 02              2412 	pop	ar2
                           2413 ;	main.c:365: for(count=0; count<=15; count++)
                           2414 ;	genAssign
                           2415 ;	genAssign
   0674 7E 00              2416 	mov	r6,#0x00
   0676 7F 00              2417 	mov	r7,#0x00
   0678                    2418 00109$:
                           2419 ;	genCmpGt
                           2420 ;	genCmp
   0678 C3                 2421 	clr	c
   0679 74 0F              2422 	mov	a,#0x0F
   067B 9E                 2423 	subb	a,r6
                           2424 ;	Peephole 181	changed mov to clr
   067C E4                 2425 	clr	a
   067D 9F                 2426 	subb	a,r7
                           2427 ;	genIfxJump
   067E 50 03              2428 	jnc	00137$
   0680 02 07 07           2429 	ljmp	00127$
   0683                    2430 00137$:
                           2431 ;	main.c:367: EA=0;
                           2432 ;	genAssign
   0683 C2 AF              2433 	clr	_EA
                           2434 ;	main.c:368: *INST_WRITE = temp_val;
                           2435 ;	genAssign
                           2436 ;	Peephole 182.b	used 16 bit load of dptr
   0685 90 F0 00           2437 	mov	dptr,#0xF000
                           2438 ;	genPointerSet
                           2439 ;     genFarPointerSet
   0688 ED                 2440 	mov	a,r5
   0689 F0                 2441 	movx	@dptr,a
                           2442 ;	main.c:369: EA=1;
                           2443 ;	genAssign
   068A D2 AF              2444 	setb	_EA
                           2445 ;	main.c:370: lcdbusywait();
                           2446 ;	genCall
   068C C0 02              2447 	push	ar2
   068E C0 03              2448 	push	ar3
   0690 C0 04              2449 	push	ar4
   0692 C0 05              2450 	push	ar5
   0694 C0 06              2451 	push	ar6
   0696 C0 07              2452 	push	ar7
   0698 12 01 00           2453 	lcall	_lcdbusywait
   069B D0 07              2454 	pop	ar7
   069D D0 06              2455 	pop	ar6
   069F D0 05              2456 	pop	ar5
   06A1 D0 04              2457 	pop	ar4
   06A3 D0 03              2458 	pop	ar3
   06A5 D0 02              2459 	pop	ar2
                           2460 ;	main.c:371: temp_val++;
                           2461 ;	genPlus
                           2462 ;     genPlusIncr
   06A7 0D                 2463 	inc	r5
                           2464 ;	main.c:372: EA=0;
                           2465 ;	genAssign
   06A8 C2 AF              2466 	clr	_EA
                           2467 ;	main.c:373: printf("%02x  ",*DATA_READ);
                           2468 ;	genPointerGet
                           2469 ;	genFarPointerGet
                           2470 ;	Peephole 182.b	used 16 bit load of dptr
   06AA 90 FC 00           2471 	mov	dptr,#0xFC00
   06AD E0                 2472 	movx	a,@dptr
   06AE F8                 2473 	mov	r0,a
                           2474 ;	genCast
   06AF 79 00              2475 	mov	r1,#0x00
                           2476 ;	genIpush
   06B1 C0 02              2477 	push	ar2
   06B3 C0 03              2478 	push	ar3
   06B5 C0 04              2479 	push	ar4
   06B7 C0 05              2480 	push	ar5
   06B9 C0 06              2481 	push	ar6
   06BB C0 07              2482 	push	ar7
   06BD C0 00              2483 	push	ar0
   06BF C0 01              2484 	push	ar1
                           2485 ;	genIpush
   06C1 74 CC              2486 	mov	a,#__str_7
   06C3 C0 E0              2487 	push	acc
   06C5 74 25              2488 	mov	a,#(__str_7 >> 8)
   06C7 C0 E0              2489 	push	acc
   06C9 74 80              2490 	mov	a,#0x80
   06CB C0 E0              2491 	push	acc
                           2492 ;	genCall
   06CD 12 1C 74           2493 	lcall	_printf
   06D0 E5 81              2494 	mov	a,sp
   06D2 24 FB              2495 	add	a,#0xfb
   06D4 F5 81              2496 	mov	sp,a
   06D6 D0 07              2497 	pop	ar7
   06D8 D0 06              2498 	pop	ar6
   06DA D0 05              2499 	pop	ar5
   06DC D0 04              2500 	pop	ar4
   06DE D0 03              2501 	pop	ar3
   06E0 D0 02              2502 	pop	ar2
                           2503 ;	main.c:374: EA=1;
                           2504 ;	genAssign
   06E2 D2 AF              2505 	setb	_EA
                           2506 ;	main.c:375: lcdbusywait();
                           2507 ;	genCall
   06E4 C0 02              2508 	push	ar2
   06E6 C0 03              2509 	push	ar3
   06E8 C0 04              2510 	push	ar4
   06EA C0 05              2511 	push	ar5
   06EC C0 06              2512 	push	ar6
   06EE C0 07              2513 	push	ar7
   06F0 12 01 00           2514 	lcall	_lcdbusywait
   06F3 D0 07              2515 	pop	ar7
   06F5 D0 06              2516 	pop	ar6
   06F7 D0 05              2517 	pop	ar5
   06F9 D0 04              2518 	pop	ar4
   06FB D0 03              2519 	pop	ar3
   06FD D0 02              2520 	pop	ar2
                           2521 ;	main.c:365: for(count=0; count<=15; count++)
                           2522 ;	genPlus
                           2523 ;     genPlusIncr
   06FF 0E                 2524 	inc	r6
   0700 BE 00 01           2525 	cjne	r6,#0x00,00138$
   0703 0F                 2526 	inc	r7
   0704                    2527 00138$:
   0704 02 06 78           2528 	ljmp	00109$
   0707                    2529 00127$:
                           2530 ;	genAssign
   0707 90 00 2C           2531 	mov	dptr,#_ddramdump_temp_val_1_1
   070A ED                 2532 	mov	a,r5
   070B F0                 2533 	movx	@dptr,a
                           2534 ;	main.c:377: putstr("\n\r");
                           2535 ;	genCall
                           2536 ;	Peephole 182.a	used 16 bit load of DPTR
   070C 90 25 9C           2537 	mov	dptr,#__str_3
   070F 75 F0 80           2538 	mov	b,#0x80
   0712 C0 02              2539 	push	ar2
   0714 C0 03              2540 	push	ar3
   0716 C0 04              2541 	push	ar4
   0718 12 00 AA           2542 	lcall	_putstr
   071B D0 04              2543 	pop	ar4
   071D D0 03              2544 	pop	ar3
   071F D0 02              2545 	pop	ar2
                           2546 ;	main.c:354: for (count_row=0; count_row<=3; count_row++)
                           2547 ;	genPlus
                           2548 ;     genPlusIncr
   0721 0B                 2549 	inc	r3
   0722 BB 00 01           2550 	cjne	r3,#0x00,00139$
   0725 0C                 2551 	inc	r4
   0726                    2552 00139$:
   0726 02 06 07           2553 	ljmp	00113$
   0729                    2554 00116$:
                           2555 ;	main.c:379: putstr("\n\r");
                           2556 ;	genCall
                           2557 ;	Peephole 182.a	used 16 bit load of DPTR
   0729 90 25 9C           2558 	mov	dptr,#__str_3
   072C 75 F0 80           2559 	mov	b,#0x80
   072F C0 02              2560 	push	ar2
   0731 12 00 AA           2561 	lcall	_putstr
   0734 D0 02              2562 	pop	ar2
                           2563 ;	main.c:380: EA=0;
                           2564 ;	genAssign
   0736 C2 AF              2565 	clr	_EA
                           2566 ;	main.c:381: *INST_WRITE=(k|DDRAM_WRITE_MASK_BITS);
                           2567 ;	genAssign
                           2568 ;	Peephole 182.b	used 16 bit load of dptr
   0738 90 F0 00           2569 	mov	dptr,#0xF000
                           2570 ;	genOr
   073B 43 02 80           2571 	orl	ar2,#0x80
                           2572 ;	genPointerSet
                           2573 ;     genFarPointerSet
   073E EA                 2574 	mov	a,r2
   073F F0                 2575 	movx	@dptr,a
                           2576 ;	main.c:382: EA=1;
                           2577 ;	genAssign
   0740 D2 AF              2578 	setb	_EA
                           2579 ;	main.c:383: lcdbusywait();
                           2580 ;	genCall
                           2581 ;	Peephole 253.b	replaced lcall/ret with ljmp
   0742 02 01 00           2582 	ljmp	_lcdbusywait
                           2583 ;
                           2584 ;------------------------------------------------------------
                           2585 ;Allocation info for local variables in function 'readinput'
                           2586 ;------------------------------------------------------------
                           2587 ;value                     Allocated with name '_readinput_value_1_1'
                           2588 ;i                         Allocated with name '_readinput_i_1_1'
                           2589 ;j                         Allocated with name '_readinput_j_1_1'
                           2590 ;------------------------------------------------------------
                           2591 ;	main.c:387: unsigned char readinput()
                           2592 ;	-----------------------------------------
                           2593 ;	 function readinput
                           2594 ;	-----------------------------------------
   0745                    2595 _readinput:
                           2596 ;	main.c:389: unsigned char value=0, i, j=0;
                           2597 ;	genAssign
   0745 90 00 2D           2598 	mov	dptr,#_readinput_value_1_1
                           2599 ;	Peephole 181	changed mov to clr
   0748 E4                 2600 	clr	a
   0749 F0                 2601 	movx	@dptr,a
                           2602 ;	main.c:390: do
                           2603 ;	genAssign
   074A 7A 00              2604 	mov	r2,#0x00
   074C                    2605 00110$:
                           2606 ;	main.c:392: i=getchar();
                           2607 ;	genCall
   074C C0 02              2608 	push	ar2
   074E 12 0C F1           2609 	lcall	_getchar
   0751 AB 82              2610 	mov	r3,dpl
   0753 D0 02              2611 	pop	ar2
                           2612 ;	main.c:393: if(i>='0'&&i<='1')          /* works only if its a number */
                           2613 ;	genAssign
   0755 8B 04              2614 	mov	ar4,r3
                           2615 ;	genCmpLt
                           2616 ;	genCmp
   0757 BC 30 00           2617 	cjne	r4,#0x30,00122$
   075A                    2618 00122$:
                           2619 ;	genIfxJump
                           2620 ;	Peephole 112.b	changed ljmp to sjmp
                           2621 ;	Peephole 160.a	removed sjmp by inverse jump logic
   075A 40 26              2622 	jc	00107$
                           2623 ;	Peephole 300	removed redundant label 00123$
                           2624 ;	genAssign
   075C 8B 04              2625 	mov	ar4,r3
                           2626 ;	genCmpGt
                           2627 ;	genCmp
                           2628 ;	genIfxJump
                           2629 ;	Peephole 132.b	optimized genCmpGt by inverse logic (acc differs)
   075E EC                 2630 	mov	a,r4
   075F 24 CE              2631 	add	a,#0xff - 0x31
                           2632 ;	Peephole 112.b	changed ljmp to sjmp
                           2633 ;	Peephole 160.a	removed sjmp by inverse jump logic
   0761 40 1F              2634 	jc	00107$
                           2635 ;	Peephole 300	removed redundant label 00124$
                           2636 ;	main.c:395: value=((value*2)+(i-'0')); /* Convert character to integers */
                           2637 ;	genAssign
   0763 90 00 2D           2638 	mov	dptr,#_readinput_value_1_1
   0766 E0                 2639 	movx	a,@dptr
                           2640 ;	genLeftShift
                           2641 ;	genLeftShiftLiteral
                           2642 ;	genlshOne
                           2643 ;	Peephole 105	removed redundant mov
                           2644 ;	Peephole 204	removed redundant mov
   0767 25 E0              2645 	add	a,acc
   0769 FC                 2646 	mov	r4,a
                           2647 ;	genMinus
   076A EB                 2648 	mov	a,r3
   076B 24 D0              2649 	add	a,#0xd0
                           2650 ;	genPlus
   076D 90 00 2D           2651 	mov	dptr,#_readinput_value_1_1
                           2652 ;	Peephole 236.a	used r4 instead of ar4
   0770 2C                 2653 	add	a,r4
   0771 F0                 2654 	movx	@dptr,a
                           2655 ;	main.c:396: putchar(i);
                           2656 ;	genCall
   0772 8B 82              2657 	mov	dpl,r3
   0774 C0 02              2658 	push	ar2
   0776 C0 03              2659 	push	ar3
   0778 12 0C DF           2660 	lcall	_putchar
   077B D0 03              2661 	pop	ar3
   077D D0 02              2662 	pop	ar2
                           2663 ;	main.c:397: j++;
                           2664 ;	genPlus
                           2665 ;     genPlusIncr
   077F 0A                 2666 	inc	r2
                           2667 ;	Peephole 112.b	changed ljmp to sjmp
   0780 80 27              2668 	sjmp	00111$
   0782                    2669 00107$:
                           2670 ;	main.c:399: else if(i==READ_BACKSPACE)
                           2671 ;	genCmpEq
                           2672 ;	gencjneshort
                           2673 ;	Peephole 112.b	changed ljmp to sjmp
                           2674 ;	Peephole 198.b	optimized misc jump sequence
   0782 BB 7F 0E           2675 	cjne	r3,#0x7F,00104$
                           2676 ;	Peephole 200.b	removed redundant sjmp
                           2677 ;	Peephole 300	removed redundant label 00125$
                           2678 ;	Peephole 300	removed redundant label 00126$
                           2679 ;	main.c:401: value=value/2;
                           2680 ;	genAssign
   0785 90 00 2D           2681 	mov	dptr,#_readinput_value_1_1
   0788 E0                 2682 	movx	a,@dptr
                           2683 ;	genRightShift
                           2684 ;	genRightShiftLiteral
                           2685 ;	genrshOne
   0789 FC                 2686 	mov	r4,a
                           2687 ;	Peephole 105	removed redundant mov
   078A C3                 2688 	clr	c
   078B 13                 2689 	rrc	a
                           2690 ;	genAssign
   078C FC                 2691 	mov	r4,a
   078D 90 00 2D           2692 	mov	dptr,#_readinput_value_1_1
                           2693 ;	Peephole 100	removed redundant mov
   0790 F0                 2694 	movx	@dptr,a
                           2695 ;	Peephole 112.b	changed ljmp to sjmp
   0791 80 16              2696 	sjmp	00111$
   0793                    2697 00104$:
                           2698 ;	main.c:403: else if(i!=READ_ENTER)
                           2699 ;	genCmpEq
                           2700 ;	gencjneshort
   0793 BB 0D 02           2701 	cjne	r3,#0x0D,00127$
                           2702 ;	Peephole 112.b	changed ljmp to sjmp
   0796 80 11              2703 	sjmp	00111$
   0798                    2704 00127$:
                           2705 ;	main.c:404: {putstr("\n\rEnter Valid Numbers\n\r");}
                           2706 ;	genCall
                           2707 ;	Peephole 182.a	used 16 bit load of DPTR
   0798 90 26 38           2708 	mov	dptr,#__str_11
   079B 75 F0 80           2709 	mov	b,#0x80
   079E C0 02              2710 	push	ar2
   07A0 C0 03              2711 	push	ar3
   07A2 12 00 AA           2712 	lcall	_putstr
   07A5 D0 03              2713 	pop	ar3
   07A7 D0 02              2714 	pop	ar2
   07A9                    2715 00111$:
                           2716 ;	main.c:405: }while(i!=READ_ENTER);
                           2717 ;	genCmpEq
                           2718 ;	gencjneshort
                           2719 ;	Peephole 112.b	changed ljmp to sjmp
                           2720 ;	Peephole 198.b	optimized misc jump sequence
   07A9 BB 0D A0           2721 	cjne	r3,#0x0D,00110$
                           2722 ;	Peephole 200.b	removed redundant sjmp
                           2723 ;	Peephole 300	removed redundant label 00128$
                           2724 ;	Peephole 300	removed redundant label 00129$
                           2725 ;	main.c:407: return value;
                           2726 ;	genAssign
   07AC 90 00 2D           2727 	mov	dptr,#_readinput_value_1_1
   07AF E0                 2728 	movx	a,@dptr
                           2729 ;	genRet
                           2730 ;	Peephole 234.a	loading dpl directly from a(ccumulator), r2 not set
   07B0 F5 82              2731 	mov	dpl,a
                           2732 ;	Peephole 300	removed redundant label 00113$
   07B2 22                 2733 	ret
                           2734 ;------------------------------------------------------------
                           2735 ;Allocation info for local variables in function 'addcharacter'
                           2736 ;------------------------------------------------------------
                           2737 ;temp                      Allocated with name '_addcharacter_temp_1_1'
                           2738 ;y                         Allocated with name '_addcharacter_y_1_1'
                           2739 ;------------------------------------------------------------
                           2740 ;	main.c:411: void addcharacter()
                           2741 ;	-----------------------------------------
                           2742 ;	 function addcharacter
                           2743 ;	-----------------------------------------
   07B3                    2744 _addcharacter:
                           2745 ;	main.c:414: if(u<8)
                           2746 ;	genAssign
   07B3 90 00 0A           2747 	mov	dptr,#_u
   07B6 E0                 2748 	movx	a,@dptr
   07B7 FA                 2749 	mov	r2,a
                           2750 ;	genCmpLt
                           2751 ;	genCmp
   07B8 BA 08 00           2752 	cjne	r2,#0x08,00148$
   07BB                    2753 00148$:
                           2754 ;	genIfxJump
   07BB 40 03              2755 	jc	00149$
   07BD 02 09 1F           2756 	ljmp	00128$
   07C0                    2757 00149$:
                           2758 ;	main.c:416: putstr("\n\rEnter eight pixel values\n\r");
                           2759 ;	genCall
                           2760 ;	Peephole 182.a	used 16 bit load of DPTR
   07C0 90 26 50           2761 	mov	dptr,#__str_12
   07C3 75 F0 80           2762 	mov	b,#0x80
   07C6 12 00 AA           2763 	lcall	_putstr
                           2764 ;	main.c:417: putstr("Enter five binary values for every pixel\n\r");
                           2765 ;	genCall
                           2766 ;	Peephole 182.a	used 16 bit load of DPTR
   07C9 90 26 6D           2767 	mov	dptr,#__str_13
   07CC 75 F0 80           2768 	mov	b,#0x80
   07CF 12 00 AA           2769 	lcall	_putstr
                           2770 ;	main.c:420: for(temp=0; temp<=7; temp++)
                           2771 ;	genAssign
   07D2 90 00 2E           2772 	mov	dptr,#_addcharacter_temp_1_1
                           2773 ;	Peephole 181	changed mov to clr
   07D5 E4                 2774 	clr	a
   07D6 F0                 2775 	movx	@dptr,a
   07D7                    2776 00130$:
                           2777 ;	genAssign
   07D7 90 00 2E           2778 	mov	dptr,#_addcharacter_temp_1_1
   07DA E0                 2779 	movx	a,@dptr
                           2780 ;	genCmpGt
                           2781 ;	genCmp
                           2782 ;	genIfxJump
                           2783 ;	Peephole 132.b	optimized genCmpGt by inverse logic (acc differs)
   07DB FA                 2784 	mov  r2,a
                           2785 ;	Peephole 177.a	removed redundant mov
   07DC 24 F8              2786 	add	a,#0xff - 0x07
                           2787 ;	Peephole 112.b	changed ljmp to sjmp
                           2788 ;	Peephole 160.a	removed sjmp by inverse jump logic
   07DE 40 46              2789 	jc	00133$
                           2790 ;	Peephole 300	removed redundant label 00150$
                           2791 ;	main.c:422: y=readinput();
                           2792 ;	genCall
   07E0 C0 02              2793 	push	ar2
   07E2 12 07 45           2794 	lcall	_readinput
   07E5 AB 82              2795 	mov	r3,dpl
   07E7 D0 02              2796 	pop	ar2
                           2797 ;	main.c:423: if(y>0x1F)
                           2798 ;	genCmpGt
                           2799 ;	genCmp
                           2800 ;	genIfxJump
                           2801 ;	Peephole 108.a	removed ljmp by inverse jump logic
                           2802 ;	Peephole 132.b	optimized genCmpGt by inverse logic (acc differs)
   07E9 EB                 2803 	mov	a,r3
   07EA 24 E0              2804 	add	a,#0xff - 0x1F
   07EC 50 15              2805 	jnc	00102$
                           2806 ;	Peephole 300	removed redundant label 00151$
                           2807 ;	main.c:425: putstr("Invalid Number. Enter Again\n\r");
                           2808 ;	genCall
                           2809 ;	Peephole 182.a	used 16 bit load of DPTR
   07EE 90 26 98           2810 	mov	dptr,#__str_14
   07F1 75 F0 80           2811 	mov	b,#0x80
   07F4 C0 02              2812 	push	ar2
   07F6 12 00 AA           2813 	lcall	_putstr
   07F9 D0 02              2814 	pop	ar2
                           2815 ;	main.c:426: temp--;
                           2816 ;	genMinus
                           2817 ;	genMinusDec
   07FB EA                 2818 	mov	a,r2
   07FC 14                 2819 	dec	a
                           2820 ;	genAssign
   07FD 90 00 2E           2821 	mov	dptr,#_addcharacter_temp_1_1
   0800 F0                 2822 	movx	@dptr,a
                           2823 ;	Peephole 112.b	changed ljmp to sjmp
   0801 80 15              2824 	sjmp	00132$
   0803                    2825 00102$:
                           2826 ;	main.c:430: array[temp]=y;
                           2827 ;	genPlus
                           2828 ;	Peephole 236.g	used r2 instead of ar2
   0803 EA                 2829 	mov	a,r2
   0804 24 02              2830 	add	a,#_array
   0806 F5 82              2831 	mov	dpl,a
                           2832 ;	Peephole 181	changed mov to clr
   0808 E4                 2833 	clr	a
   0809 34 00              2834 	addc	a,#(_array >> 8)
   080B F5 83              2835 	mov	dph,a
                           2836 ;	genPointerSet
                           2837 ;     genFarPointerSet
   080D EB                 2838 	mov	a,r3
   080E F0                 2839 	movx	@dptr,a
                           2840 ;	main.c:431: putstr("\n\r");
                           2841 ;	genCall
                           2842 ;	Peephole 182.a	used 16 bit load of DPTR
   080F 90 25 9C           2843 	mov	dptr,#__str_3
   0812 75 F0 80           2844 	mov	b,#0x80
   0815 12 00 AA           2845 	lcall	_putstr
   0818                    2846 00132$:
                           2847 ;	main.c:420: for(temp=0; temp<=7; temp++)
                           2848 ;	genAssign
   0818 90 00 2E           2849 	mov	dptr,#_addcharacter_temp_1_1
   081B E0                 2850 	movx	a,@dptr
   081C FA                 2851 	mov	r2,a
                           2852 ;	genPlus
   081D 90 00 2E           2853 	mov	dptr,#_addcharacter_temp_1_1
                           2854 ;     genPlusIncr
   0820 74 01              2855 	mov	a,#0x01
                           2856 ;	Peephole 236.a	used r2 instead of ar2
   0822 2A                 2857 	add	a,r2
   0823 F0                 2858 	movx	@dptr,a
                           2859 ;	Peephole 112.b	changed ljmp to sjmp
   0824 80 B1              2860 	sjmp	00130$
   0826                    2861 00133$:
                           2862 ;	main.c:434: if(u==0)
                           2863 ;	genAssign
   0826 90 00 0A           2864 	mov	dptr,#_u
   0829 E0                 2865 	movx	a,@dptr
                           2866 ;	genIfx
   082A FA                 2867 	mov	r2,a
                           2868 ;	Peephole 105	removed redundant mov
                           2869 ;	genIfxJump
                           2870 ;	Peephole 108.b	removed ljmp by inverse jump logic
   082B 70 17              2871 	jnz	00125$
                           2872 ;	Peephole 300	removed redundant label 00152$
                           2873 ;	main.c:435: lcdcreatechar(CGRAM_FIRSTCHAR_ADDR, array);
                           2874 ;	genCast
   082D 90 00 28           2875 	mov	dptr,#_lcdcreatechar_PARM_2
   0830 74 02              2876 	mov	a,#_array
   0832 F0                 2877 	movx	@dptr,a
   0833 A3                 2878 	inc	dptr
   0834 74 00              2879 	mov	a,#(_array >> 8)
   0836 F0                 2880 	movx	@dptr,a
   0837 A3                 2881 	inc	dptr
   0838 74 00              2882 	mov	a,#0x0
   083A F0                 2883 	movx	@dptr,a
                           2884 ;	genCall
   083B 75 82 00           2885 	mov	dpl,#0x00
   083E 12 05 16           2886 	lcall	_lcdcreatechar
   0841 02 09 17           2887 	ljmp	00126$
   0844                    2888 00125$:
                           2889 ;	main.c:436: else if(u==1)
                           2890 ;	genAssign
   0844 90 00 0A           2891 	mov	dptr,#_u
   0847 E0                 2892 	movx	a,@dptr
   0848 FA                 2893 	mov	r2,a
                           2894 ;	genCmpEq
                           2895 ;	gencjneshort
                           2896 ;	Peephole 112.b	changed ljmp to sjmp
                           2897 ;	Peephole 198.b	optimized misc jump sequence
   0849 BA 01 17           2898 	cjne	r2,#0x01,00122$
                           2899 ;	Peephole 200.b	removed redundant sjmp
                           2900 ;	Peephole 300	removed redundant label 00153$
                           2901 ;	Peephole 300	removed redundant label 00154$
                           2902 ;	main.c:437: lcdcreatechar(CGRAM_SECONDCHAR_ADDR, array);
                           2903 ;	genCast
   084C 90 00 28           2904 	mov	dptr,#_lcdcreatechar_PARM_2
   084F 74 02              2905 	mov	a,#_array
   0851 F0                 2906 	movx	@dptr,a
   0852 A3                 2907 	inc	dptr
   0853 74 00              2908 	mov	a,#(_array >> 8)
   0855 F0                 2909 	movx	@dptr,a
   0856 A3                 2910 	inc	dptr
   0857 74 00              2911 	mov	a,#0x0
   0859 F0                 2912 	movx	@dptr,a
                           2913 ;	genCall
   085A 75 82 08           2914 	mov	dpl,#0x08
   085D 12 05 16           2915 	lcall	_lcdcreatechar
   0860 02 09 17           2916 	ljmp	00126$
   0863                    2917 00122$:
                           2918 ;	main.c:438: else if(u==2)
                           2919 ;	genAssign
   0863 90 00 0A           2920 	mov	dptr,#_u
   0866 E0                 2921 	movx	a,@dptr
   0867 FA                 2922 	mov	r2,a
                           2923 ;	genCmpEq
                           2924 ;	gencjneshort
                           2925 ;	Peephole 112.b	changed ljmp to sjmp
                           2926 ;	Peephole 198.b	optimized misc jump sequence
   0868 BA 02 17           2927 	cjne	r2,#0x02,00119$
                           2928 ;	Peephole 200.b	removed redundant sjmp
                           2929 ;	Peephole 300	removed redundant label 00155$
                           2930 ;	Peephole 300	removed redundant label 00156$
                           2931 ;	main.c:439: lcdcreatechar(CGRAM_THIRDCHAR_ADDR, array);
                           2932 ;	genCast
   086B 90 00 28           2933 	mov	dptr,#_lcdcreatechar_PARM_2
   086E 74 02              2934 	mov	a,#_array
   0870 F0                 2935 	movx	@dptr,a
   0871 A3                 2936 	inc	dptr
   0872 74 00              2937 	mov	a,#(_array >> 8)
   0874 F0                 2938 	movx	@dptr,a
   0875 A3                 2939 	inc	dptr
   0876 74 00              2940 	mov	a,#0x0
   0878 F0                 2941 	movx	@dptr,a
                           2942 ;	genCall
   0879 75 82 10           2943 	mov	dpl,#0x10
   087C 12 05 16           2944 	lcall	_lcdcreatechar
   087F 02 09 17           2945 	ljmp	00126$
   0882                    2946 00119$:
                           2947 ;	main.c:440: else if(u==3)
                           2948 ;	genAssign
   0882 90 00 0A           2949 	mov	dptr,#_u
   0885 E0                 2950 	movx	a,@dptr
   0886 FA                 2951 	mov	r2,a
                           2952 ;	genCmpEq
                           2953 ;	gencjneshort
                           2954 ;	Peephole 112.b	changed ljmp to sjmp
                           2955 ;	Peephole 198.b	optimized misc jump sequence
   0887 BA 03 17           2956 	cjne	r2,#0x03,00116$
                           2957 ;	Peephole 200.b	removed redundant sjmp
                           2958 ;	Peephole 300	removed redundant label 00157$
                           2959 ;	Peephole 300	removed redundant label 00158$
                           2960 ;	main.c:441: lcdcreatechar(CGRAM_FOURTHCHAR_ADDR, array);
                           2961 ;	genCast
   088A 90 00 28           2962 	mov	dptr,#_lcdcreatechar_PARM_2
   088D 74 02              2963 	mov	a,#_array
   088F F0                 2964 	movx	@dptr,a
   0890 A3                 2965 	inc	dptr
   0891 74 00              2966 	mov	a,#(_array >> 8)
   0893 F0                 2967 	movx	@dptr,a
   0894 A3                 2968 	inc	dptr
   0895 74 00              2969 	mov	a,#0x0
   0897 F0                 2970 	movx	@dptr,a
                           2971 ;	genCall
   0898 75 82 18           2972 	mov	dpl,#0x18
   089B 12 05 16           2973 	lcall	_lcdcreatechar
   089E 02 09 17           2974 	ljmp	00126$
   08A1                    2975 00116$:
                           2976 ;	main.c:442: else if(u==4)
                           2977 ;	genAssign
   08A1 90 00 0A           2978 	mov	dptr,#_u
   08A4 E0                 2979 	movx	a,@dptr
   08A5 FA                 2980 	mov	r2,a
                           2981 ;	genCmpEq
                           2982 ;	gencjneshort
                           2983 ;	Peephole 112.b	changed ljmp to sjmp
                           2984 ;	Peephole 198.b	optimized misc jump sequence
   08A6 BA 04 16           2985 	cjne	r2,#0x04,00113$
                           2986 ;	Peephole 200.b	removed redundant sjmp
                           2987 ;	Peephole 300	removed redundant label 00159$
                           2988 ;	Peephole 300	removed redundant label 00160$
                           2989 ;	main.c:443: lcdcreatechar(CGRAM_FIFTHCHAR_ADDR, array);
                           2990 ;	genCast
   08A9 90 00 28           2991 	mov	dptr,#_lcdcreatechar_PARM_2
   08AC 74 02              2992 	mov	a,#_array
   08AE F0                 2993 	movx	@dptr,a
   08AF A3                 2994 	inc	dptr
   08B0 74 00              2995 	mov	a,#(_array >> 8)
   08B2 F0                 2996 	movx	@dptr,a
   08B3 A3                 2997 	inc	dptr
   08B4 74 00              2998 	mov	a,#0x0
   08B6 F0                 2999 	movx	@dptr,a
                           3000 ;	genCall
   08B7 75 82 20           3001 	mov	dpl,#0x20
   08BA 12 05 16           3002 	lcall	_lcdcreatechar
                           3003 ;	Peephole 112.b	changed ljmp to sjmp
   08BD 80 58              3004 	sjmp	00126$
   08BF                    3005 00113$:
                           3006 ;	main.c:444: else if(u==5)
                           3007 ;	genAssign
   08BF 90 00 0A           3008 	mov	dptr,#_u
   08C2 E0                 3009 	movx	a,@dptr
   08C3 FA                 3010 	mov	r2,a
                           3011 ;	genCmpEq
                           3012 ;	gencjneshort
                           3013 ;	Peephole 112.b	changed ljmp to sjmp
                           3014 ;	Peephole 198.b	optimized misc jump sequence
   08C4 BA 05 16           3015 	cjne	r2,#0x05,00110$
                           3016 ;	Peephole 200.b	removed redundant sjmp
                           3017 ;	Peephole 300	removed redundant label 00161$
                           3018 ;	Peephole 300	removed redundant label 00162$
                           3019 ;	main.c:445: lcdcreatechar(CGRAM_SIXTHCHAR_ADDR, array);
                           3020 ;	genCast
   08C7 90 00 28           3021 	mov	dptr,#_lcdcreatechar_PARM_2
   08CA 74 02              3022 	mov	a,#_array
   08CC F0                 3023 	movx	@dptr,a
   08CD A3                 3024 	inc	dptr
   08CE 74 00              3025 	mov	a,#(_array >> 8)
   08D0 F0                 3026 	movx	@dptr,a
   08D1 A3                 3027 	inc	dptr
   08D2 74 00              3028 	mov	a,#0x0
   08D4 F0                 3029 	movx	@dptr,a
                           3030 ;	genCall
   08D5 75 82 28           3031 	mov	dpl,#0x28
   08D8 12 05 16           3032 	lcall	_lcdcreatechar
                           3033 ;	Peephole 112.b	changed ljmp to sjmp
   08DB 80 3A              3034 	sjmp	00126$
   08DD                    3035 00110$:
                           3036 ;	main.c:446: else if(u==6)
                           3037 ;	genAssign
   08DD 90 00 0A           3038 	mov	dptr,#_u
   08E0 E0                 3039 	movx	a,@dptr
   08E1 FA                 3040 	mov	r2,a
                           3041 ;	genCmpEq
                           3042 ;	gencjneshort
                           3043 ;	Peephole 112.b	changed ljmp to sjmp
                           3044 ;	Peephole 198.b	optimized misc jump sequence
   08E2 BA 06 16           3045 	cjne	r2,#0x06,00107$
                           3046 ;	Peephole 200.b	removed redundant sjmp
                           3047 ;	Peephole 300	removed redundant label 00163$
                           3048 ;	Peephole 300	removed redundant label 00164$
                           3049 ;	main.c:447: lcdcreatechar(CGRAM_SEVENTHCHAR_ADDR, array);
                           3050 ;	genCast
   08E5 90 00 28           3051 	mov	dptr,#_lcdcreatechar_PARM_2
   08E8 74 02              3052 	mov	a,#_array
   08EA F0                 3053 	movx	@dptr,a
   08EB A3                 3054 	inc	dptr
   08EC 74 00              3055 	mov	a,#(_array >> 8)
   08EE F0                 3056 	movx	@dptr,a
   08EF A3                 3057 	inc	dptr
   08F0 74 00              3058 	mov	a,#0x0
   08F2 F0                 3059 	movx	@dptr,a
                           3060 ;	genCall
   08F3 75 82 30           3061 	mov	dpl,#0x30
   08F6 12 05 16           3062 	lcall	_lcdcreatechar
                           3063 ;	Peephole 112.b	changed ljmp to sjmp
   08F9 80 1C              3064 	sjmp	00126$
   08FB                    3065 00107$:
                           3066 ;	main.c:448: else if(u==7)
                           3067 ;	genAssign
   08FB 90 00 0A           3068 	mov	dptr,#_u
   08FE E0                 3069 	movx	a,@dptr
   08FF FA                 3070 	mov	r2,a
                           3071 ;	genCmpEq
                           3072 ;	gencjneshort
                           3073 ;	Peephole 112.b	changed ljmp to sjmp
                           3074 ;	Peephole 198.b	optimized misc jump sequence
   0900 BA 07 14           3075 	cjne	r2,#0x07,00126$
                           3076 ;	Peephole 200.b	removed redundant sjmp
                           3077 ;	Peephole 300	removed redundant label 00165$
                           3078 ;	Peephole 300	removed redundant label 00166$
                           3079 ;	main.c:449: lcdcreatechar(CGRAM_EIGHTHCHAR_ADDR, array);
                           3080 ;	genCast
   0903 90 00 28           3081 	mov	dptr,#_lcdcreatechar_PARM_2
   0906 74 02              3082 	mov	a,#_array
   0908 F0                 3083 	movx	@dptr,a
   0909 A3                 3084 	inc	dptr
   090A 74 00              3085 	mov	a,#(_array >> 8)
   090C F0                 3086 	movx	@dptr,a
   090D A3                 3087 	inc	dptr
   090E 74 00              3088 	mov	a,#0x0
   0910 F0                 3089 	movx	@dptr,a
                           3090 ;	genCall
   0911 75 82 38           3091 	mov	dpl,#0x38
   0914 12 05 16           3092 	lcall	_lcdcreatechar
   0917                    3093 00126$:
                           3094 ;	main.c:450: u++;
                           3095 ;	genPlus
   0917 90 00 0A           3096 	mov	dptr,#_u
   091A E0                 3097 	movx	a,@dptr
   091B 24 01              3098 	add	a,#0x01
   091D F0                 3099 	movx	@dptr,a
                           3100 ;	Peephole 112.b	changed ljmp to sjmp
                           3101 ;	Peephole 251.b	replaced sjmp to ret with ret
   091E 22                 3102 	ret
   091F                    3103 00128$:
                           3104 ;	main.c:454: putstr("Eight custom character created. No more custom character please\n\r");
                           3105 ;	genCall
                           3106 ;	Peephole 182.a	used 16 bit load of DPTR
   091F 90 26 B6           3107 	mov	dptr,#__str_15
   0922 75 F0 80           3108 	mov	b,#0x80
                           3109 ;	Peephole 253.b	replaced lcall/ret with ljmp
   0925 02 00 AA           3110 	ljmp	_putstr
                           3111 ;
                           3112 ;------------------------------------------------------------
                           3113 ;Allocation info for local variables in function 'display'
                           3114 ;------------------------------------------------------------
                           3115 ;hey                       Allocated with name '_display_hey_1_1'
                           3116 ;------------------------------------------------------------
                           3117 ;	main.c:459: void display()
                           3118 ;	-----------------------------------------
                           3119 ;	 function display
                           3120 ;	-----------------------------------------
   0928                    3121 _display:
                           3122 ;	main.c:462: putstr("Look at the LCD\n\r");
                           3123 ;	genCall
                           3124 ;	Peephole 182.a	used 16 bit load of DPTR
   0928 90 26 F8           3125 	mov	dptr,#__str_16
   092B 75 F0 80           3126 	mov	b,#0x80
   092E 12 00 AA           3127 	lcall	_putstr
                           3128 ;	main.c:463: while(hey<0x8)
                           3129 ;	genAssign
   0931 7A 00              3130 	mov	r2,#0x00
   0933                    3131 00101$:
                           3132 ;	genCmpLt
                           3133 ;	genCmp
   0933 BA 08 00           3134 	cjne	r2,#0x08,00109$
   0936                    3135 00109$:
                           3136 ;	genIfxJump
                           3137 ;	Peephole 108.a	removed ljmp by inverse jump logic
   0936 50 0C              3138 	jnc	00104$
                           3139 ;	Peephole 300	removed redundant label 00110$
                           3140 ;	main.c:465: lcdputch(hey);
                           3141 ;	genCall
   0938 8A 82              3142 	mov	dpl,r2
   093A C0 02              3143 	push	ar2
   093C 12 02 7D           3144 	lcall	_lcdputch
   093F D0 02              3145 	pop	ar2
                           3146 ;	main.c:466: hey++;
                           3147 ;	genPlus
                           3148 ;     genPlusIncr
   0941 0A                 3149 	inc	r2
                           3150 ;	Peephole 112.b	changed ljmp to sjmp
   0942 80 EF              3151 	sjmp	00101$
   0944                    3152 00104$:
   0944 22                 3153 	ret
                           3154 ;------------------------------------------------------------
                           3155 ;Allocation info for local variables in function 'hex2int'
                           3156 ;------------------------------------------------------------
                           3157 ;sloc0                     Allocated with name '_hex2int_sloc0_1_0'
                           3158 ;sloc1                     Allocated with name '_hex2int_sloc1_1_0'
                           3159 ;sloc2                     Allocated with name '_hex2int_sloc2_1_0'
                           3160 ;sloc3                     Allocated with name '_hex2int_sloc3_1_0'
                           3161 ;len                       Allocated with name '_hex2int_PARM_2'
                           3162 ;a                         Allocated with name '_hex2int_a_1_1'
                           3163 ;i                         Allocated with name '_hex2int_i_1_1'
                           3164 ;val                       Allocated with name '_hex2int_val_1_1'
                           3165 ;------------------------------------------------------------
                           3166 ;	main.c:474: unsigned long hex2int(char *a, unsigned int len)
                           3167 ;	-----------------------------------------
                           3168 ;	 function hex2int
                           3169 ;	-----------------------------------------
   0945                    3170 _hex2int:
                           3171 ;	genReceive
   0945 AA F0              3172 	mov	r2,b
   0947 AB 83              3173 	mov	r3,dph
   0949 E5 82              3174 	mov	a,dpl
   094B 90 00 31           3175 	mov	dptr,#_hex2int_a_1_1
   094E F0                 3176 	movx	@dptr,a
   094F A3                 3177 	inc	dptr
   0950 EB                 3178 	mov	a,r3
   0951 F0                 3179 	movx	@dptr,a
   0952 A3                 3180 	inc	dptr
   0953 EA                 3181 	mov	a,r2
   0954 F0                 3182 	movx	@dptr,a
                           3183 ;	main.c:477: unsigned long val = 0;
                           3184 ;	genAssign
   0955 90 00 34           3185 	mov	dptr,#_hex2int_val_1_1
   0958 E4                 3186 	clr	a
   0959 F0                 3187 	movx	@dptr,a
   095A A3                 3188 	inc	dptr
   095B F0                 3189 	movx	@dptr,a
   095C A3                 3190 	inc	dptr
   095D F0                 3191 	movx	@dptr,a
   095E A3                 3192 	inc	dptr
   095F F0                 3193 	movx	@dptr,a
                           3194 ;	main.c:479: for(i=0;i<len;i++)
                           3195 ;	genAssign
   0960 90 00 31           3196 	mov	dptr,#_hex2int_a_1_1
   0963 E0                 3197 	movx	a,@dptr
   0964 FA                 3198 	mov	r2,a
   0965 A3                 3199 	inc	dptr
   0966 E0                 3200 	movx	a,@dptr
   0967 FB                 3201 	mov	r3,a
   0968 A3                 3202 	inc	dptr
   0969 E0                 3203 	movx	a,@dptr
   096A FC                 3204 	mov	r4,a
                           3205 ;	genAssign
   096B 90 00 2F           3206 	mov	dptr,#_hex2int_PARM_2
   096E E0                 3207 	movx	a,@dptr
   096F FD                 3208 	mov	r5,a
   0970 A3                 3209 	inc	dptr
   0971 E0                 3210 	movx	a,@dptr
   0972 FE                 3211 	mov	r6,a
                           3212 ;	genAssign
   0973 7F 00              3213 	mov	r7,#0x00
   0975 78 00              3214 	mov	r0,#0x00
   0977                    3215 00104$:
                           3216 ;	genIpush
   0977 C0 02              3217 	push	ar2
   0979 C0 03              3218 	push	ar3
   097B C0 04              3219 	push	ar4
                           3220 ;	genAssign
   097D 8F 01              3221 	mov	ar1,r7
   097F 88 02              3222 	mov	ar2,r0
                           3223 ;	genCmpLt
                           3224 ;	genCmp
   0981 C3                 3225 	clr	c
   0982 E9                 3226 	mov	a,r1
   0983 9D                 3227 	subb	a,r5
   0984 EA                 3228 	mov	a,r2
   0985 9E                 3229 	subb	a,r6
                           3230 ;	genIpop
                           3231 ;	genIfx
                           3232 ;	genIfxJump
                           3233 ;	Peephole 129.d	optimized condition
   0986 D0 04              3234 	pop	ar4
   0988 D0 03              3235 	pop	ar3
   098A D0 02              3236 	pop	ar2
   098C 40 03              3237 	jc	00114$
   098E 02 0B 1D           3238 	ljmp	00107$
   0991                    3239 00114$:
                           3240 ;	main.c:480: if(a[i] <= 57)
                           3241 ;	genIpush
   0991 C0 05              3242 	push	ar5
   0993 C0 06              3243 	push	ar6
                           3244 ;	genPlus
                           3245 ;	Peephole 236.g	used r7 instead of ar7
   0995 EF                 3246 	mov	a,r7
                           3247 ;	Peephole 236.a	used r2 instead of ar2
   0996 2A                 3248 	add	a,r2
   0997 F9                 3249 	mov	r1,a
                           3250 ;	Peephole 236.g	used r0 instead of ar0
   0998 E8                 3251 	mov	a,r0
                           3252 ;	Peephole 236.b	used r3 instead of ar3
   0999 3B                 3253 	addc	a,r3
   099A FD                 3254 	mov	r5,a
   099B 8C 06              3255 	mov	ar6,r4
                           3256 ;	genPointerGet
                           3257 ;	genGenPointerGet
   099D 89 82              3258 	mov	dpl,r1
   099F 8D 83              3259 	mov	dph,r5
   09A1 8E F0              3260 	mov	b,r6
   09A3 12 25 13           3261 	lcall	__gptrget
   09A6 F5 24              3262 	mov	_hex2int_sloc0_1_0,a
                           3263 ;	genCmpGt
                           3264 ;	genCmp
   09A8 C3                 3265 	clr	c
                           3266 ;	Peephole 159	avoided xrl during execution
   09A9 74 B9              3267 	mov	a,#(0x39 ^ 0x80)
   09AB 85 24 F0           3268 	mov	b,_hex2int_sloc0_1_0
   09AE 63 F0 80           3269 	xrl	b,#0x80
   09B1 95 F0              3270 	subb	a,b
   09B3 E4                 3271 	clr	a
   09B4 33                 3272 	rlc	a
                           3273 ;	genIpop
   09B5 D0 06              3274 	pop	ar6
   09B7 D0 05              3275 	pop	ar5
                           3276 ;	genIfx
                           3277 ;	genIfxJump
   09B9 60 03              3278 	jz	00115$
   09BB 02 0A 6B           3279 	ljmp	00102$
   09BE                    3280 00115$:
                           3281 ;	main.c:481: val += (a[i]-48)*(1<<(4*(len-1-i)));
                           3282 ;	genIpush
   09BE C0 02              3283 	push	ar2
   09C0 C0 03              3284 	push	ar3
   09C2 C0 04              3285 	push	ar4
                           3286 ;	genCast
   09C4 A9 24              3287 	mov	r1,_hex2int_sloc0_1_0
   09C6 E5 24              3288 	mov	a,_hex2int_sloc0_1_0
   09C8 33                 3289 	rlc	a
   09C9 95 E0              3290 	subb	a,acc
   09CB FA                 3291 	mov	r2,a
                           3292 ;	genMinus
   09CC E9                 3293 	mov	a,r1
   09CD 24 D0              3294 	add	a,#0xd0
   09CF F9                 3295 	mov	r1,a
   09D0 EA                 3296 	mov	a,r2
   09D1 34 FF              3297 	addc	a,#0xff
   09D3 FA                 3298 	mov	r2,a
                           3299 ;	genMinus
                           3300 ;	genMinusDec
   09D4 ED                 3301 	mov	a,r5
   09D5 24 FF              3302 	add	a,#0xff
   09D7 FB                 3303 	mov	r3,a
   09D8 EE                 3304 	mov	a,r6
   09D9 34 FF              3305 	addc	a,#0xff
   09DB FC                 3306 	mov	r4,a
                           3307 ;	genMinus
   09DC EB                 3308 	mov	a,r3
   09DD C3                 3309 	clr	c
                           3310 ;	Peephole 236.l	used r7 instead of ar7
   09DE 9F                 3311 	subb	a,r7
   09DF FB                 3312 	mov	r3,a
   09E0 EC                 3313 	mov	a,r4
                           3314 ;	Peephole 236.l	used r0 instead of ar0
   09E1 98                 3315 	subb	a,r0
                           3316 ;	genLeftShift
                           3317 ;	genLeftShiftLiteral
                           3318 ;	genlshTwo
   09E2 FC                 3319 	mov	r4,a
                           3320 ;	Peephole 105	removed redundant mov
   09E3 CB                 3321 	xch	a,r3
   09E4 25 E0              3322 	add	a,acc
   09E6 CB                 3323 	xch	a,r3
   09E7 33                 3324 	rlc	a
   09E8 CB                 3325 	xch	a,r3
   09E9 25 E0              3326 	add	a,acc
   09EB CB                 3327 	xch	a,r3
   09EC 33                 3328 	rlc	a
   09ED FC                 3329 	mov	r4,a
                           3330 ;	genLeftShift
   09EE 8B F0              3331 	mov	b,r3
   09F0 05 F0              3332 	inc	b
   09F2 7B 01              3333 	mov	r3,#0x01
   09F4 7C 00              3334 	mov	r4,#0x00
   09F6 80 06              3335 	sjmp	00117$
   09F8                    3336 00116$:
   09F8 EB                 3337 	mov	a,r3
                           3338 ;	Peephole 254	optimized left shift
   09F9 2B                 3339 	add	a,r3
   09FA FB                 3340 	mov	r3,a
   09FB EC                 3341 	mov	a,r4
   09FC 33                 3342 	rlc	a
   09FD FC                 3343 	mov	r4,a
   09FE                    3344 00117$:
   09FE D5 F0 F7           3345 	djnz	b,00116$
                           3346 ;	genAssign
   0A01 90 00 8C           3347 	mov	dptr,#__mulint_PARM_2
   0A04 EB                 3348 	mov	a,r3
   0A05 F0                 3349 	movx	@dptr,a
   0A06 A3                 3350 	inc	dptr
   0A07 EC                 3351 	mov	a,r4
   0A08 F0                 3352 	movx	@dptr,a
                           3353 ;	genCall
   0A09 89 82              3354 	mov	dpl,r1
   0A0B 8A 83              3355 	mov	dph,r2
   0A0D C0 02              3356 	push	ar2
   0A0F C0 03              3357 	push	ar3
   0A11 C0 04              3358 	push	ar4
   0A13 C0 05              3359 	push	ar5
   0A15 C0 06              3360 	push	ar6
   0A17 C0 07              3361 	push	ar7
   0A19 C0 00              3362 	push	ar0
   0A1B 12 1C 08           3363 	lcall	__mulint
   0A1E 85 82 25           3364 	mov	_hex2int_sloc1_1_0,dpl
   0A21 85 83 26           3365 	mov	(_hex2int_sloc1_1_0 + 1),dph
   0A24 D0 00              3366 	pop	ar0
   0A26 D0 07              3367 	pop	ar7
   0A28 D0 06              3368 	pop	ar6
   0A2A D0 05              3369 	pop	ar5
   0A2C D0 04              3370 	pop	ar4
   0A2E D0 03              3371 	pop	ar3
   0A30 D0 02              3372 	pop	ar2
                           3373 ;	genAssign
   0A32 90 00 34           3374 	mov	dptr,#_hex2int_val_1_1
   0A35 E0                 3375 	movx	a,@dptr
   0A36 F5 27              3376 	mov	_hex2int_sloc2_1_0,a
   0A38 A3                 3377 	inc	dptr
   0A39 E0                 3378 	movx	a,@dptr
   0A3A F5 28              3379 	mov	(_hex2int_sloc2_1_0 + 1),a
   0A3C A3                 3380 	inc	dptr
   0A3D E0                 3381 	movx	a,@dptr
   0A3E F5 29              3382 	mov	(_hex2int_sloc2_1_0 + 2),a
   0A40 A3                 3383 	inc	dptr
   0A41 E0                 3384 	movx	a,@dptr
   0A42 F5 2A              3385 	mov	(_hex2int_sloc2_1_0 + 3),a
                           3386 ;	genCast
   0A44 AA 25              3387 	mov	r2,_hex2int_sloc1_1_0
   0A46 AB 26              3388 	mov	r3,(_hex2int_sloc1_1_0 + 1)
   0A48 7C 00              3389 	mov	r4,#0x00
   0A4A 79 00              3390 	mov	r1,#0x00
                           3391 ;	genPlus
   0A4C 90 00 34           3392 	mov	dptr,#_hex2int_val_1_1
                           3393 ;	Peephole 236.g	used r2 instead of ar2
   0A4F EA                 3394 	mov	a,r2
   0A50 25 27              3395 	add	a,_hex2int_sloc2_1_0
   0A52 F0                 3396 	movx	@dptr,a
                           3397 ;	Peephole 236.g	used r3 instead of ar3
   0A53 EB                 3398 	mov	a,r3
   0A54 35 28              3399 	addc	a,(_hex2int_sloc2_1_0 + 1)
   0A56 A3                 3400 	inc	dptr
   0A57 F0                 3401 	movx	@dptr,a
                           3402 ;	Peephole 236.g	used r4 instead of ar4
   0A58 EC                 3403 	mov	a,r4
   0A59 35 29              3404 	addc	a,(_hex2int_sloc2_1_0 + 2)
   0A5B A3                 3405 	inc	dptr
   0A5C F0                 3406 	movx	@dptr,a
                           3407 ;	Peephole 236.g	used r1 instead of ar1
   0A5D E9                 3408 	mov	a,r1
   0A5E 35 2A              3409 	addc	a,(_hex2int_sloc2_1_0 + 3)
   0A60 A3                 3410 	inc	dptr
   0A61 F0                 3411 	movx	@dptr,a
                           3412 ;	genIpop
   0A62 D0 04              3413 	pop	ar4
   0A64 D0 03              3414 	pop	ar3
   0A66 D0 02              3415 	pop	ar2
   0A68 02 0B 15           3416 	ljmp	00106$
   0A6B                    3417 00102$:
                           3418 ;	main.c:483: val += (a[i]-55)*(1<<(4*(len-1-i)));
                           3419 ;	genIpush
   0A6B C0 02              3420 	push	ar2
   0A6D C0 03              3421 	push	ar3
   0A6F C0 04              3422 	push	ar4
                           3423 ;	genCast
   0A71 A9 24              3424 	mov	r1,_hex2int_sloc0_1_0
   0A73 E5 24              3425 	mov	a,_hex2int_sloc0_1_0
   0A75 33                 3426 	rlc	a
   0A76 95 E0              3427 	subb	a,acc
   0A78 FA                 3428 	mov	r2,a
                           3429 ;	genMinus
   0A79 E9                 3430 	mov	a,r1
   0A7A 24 C9              3431 	add	a,#0xc9
   0A7C F9                 3432 	mov	r1,a
   0A7D EA                 3433 	mov	a,r2
   0A7E 34 FF              3434 	addc	a,#0xff
   0A80 FA                 3435 	mov	r2,a
                           3436 ;	genMinus
                           3437 ;	genMinusDec
   0A81 ED                 3438 	mov	a,r5
   0A82 24 FF              3439 	add	a,#0xff
   0A84 FB                 3440 	mov	r3,a
   0A85 EE                 3441 	mov	a,r6
   0A86 34 FF              3442 	addc	a,#0xff
   0A88 FC                 3443 	mov	r4,a
                           3444 ;	genMinus
   0A89 EB                 3445 	mov	a,r3
   0A8A C3                 3446 	clr	c
                           3447 ;	Peephole 236.l	used r7 instead of ar7
   0A8B 9F                 3448 	subb	a,r7
   0A8C FB                 3449 	mov	r3,a
   0A8D EC                 3450 	mov	a,r4
                           3451 ;	Peephole 236.l	used r0 instead of ar0
   0A8E 98                 3452 	subb	a,r0
                           3453 ;	genLeftShift
                           3454 ;	genLeftShiftLiteral
                           3455 ;	genlshTwo
   0A8F FC                 3456 	mov	r4,a
                           3457 ;	Peephole 105	removed redundant mov
   0A90 CB                 3458 	xch	a,r3
   0A91 25 E0              3459 	add	a,acc
   0A93 CB                 3460 	xch	a,r3
   0A94 33                 3461 	rlc	a
   0A95 CB                 3462 	xch	a,r3
   0A96 25 E0              3463 	add	a,acc
   0A98 CB                 3464 	xch	a,r3
   0A99 33                 3465 	rlc	a
   0A9A FC                 3466 	mov	r4,a
                           3467 ;	genLeftShift
   0A9B 8B F0              3468 	mov	b,r3
   0A9D 05 F0              3469 	inc	b
   0A9F 7B 01              3470 	mov	r3,#0x01
   0AA1 7C 00              3471 	mov	r4,#0x00
   0AA3 80 06              3472 	sjmp	00119$
   0AA5                    3473 00118$:
   0AA5 EB                 3474 	mov	a,r3
                           3475 ;	Peephole 254	optimized left shift
   0AA6 2B                 3476 	add	a,r3
   0AA7 FB                 3477 	mov	r3,a
   0AA8 EC                 3478 	mov	a,r4
   0AA9 33                 3479 	rlc	a
   0AAA FC                 3480 	mov	r4,a
   0AAB                    3481 00119$:
   0AAB D5 F0 F7           3482 	djnz	b,00118$
                           3483 ;	genAssign
   0AAE 90 00 8C           3484 	mov	dptr,#__mulint_PARM_2
   0AB1 EB                 3485 	mov	a,r3
   0AB2 F0                 3486 	movx	@dptr,a
   0AB3 A3                 3487 	inc	dptr
   0AB4 EC                 3488 	mov	a,r4
   0AB5 F0                 3489 	movx	@dptr,a
                           3490 ;	genCall
   0AB6 89 82              3491 	mov	dpl,r1
   0AB8 8A 83              3492 	mov	dph,r2
   0ABA C0 02              3493 	push	ar2
   0ABC C0 03              3494 	push	ar3
   0ABE C0 04              3495 	push	ar4
   0AC0 C0 05              3496 	push	ar5
   0AC2 C0 06              3497 	push	ar6
   0AC4 C0 07              3498 	push	ar7
   0AC6 C0 00              3499 	push	ar0
   0AC8 12 1C 08           3500 	lcall	__mulint
   0ACB 85 82 27           3501 	mov	_hex2int_sloc2_1_0,dpl
   0ACE 85 83 28           3502 	mov	(_hex2int_sloc2_1_0 + 1),dph
   0AD1 D0 00              3503 	pop	ar0
   0AD3 D0 07              3504 	pop	ar7
   0AD5 D0 06              3505 	pop	ar6
   0AD7 D0 05              3506 	pop	ar5
   0AD9 D0 04              3507 	pop	ar4
   0ADB D0 03              3508 	pop	ar3
   0ADD D0 02              3509 	pop	ar2
                           3510 ;	genAssign
   0ADF 90 00 34           3511 	mov	dptr,#_hex2int_val_1_1
   0AE2 E0                 3512 	movx	a,@dptr
   0AE3 F5 2B              3513 	mov	_hex2int_sloc3_1_0,a
   0AE5 A3                 3514 	inc	dptr
   0AE6 E0                 3515 	movx	a,@dptr
   0AE7 F5 2C              3516 	mov	(_hex2int_sloc3_1_0 + 1),a
   0AE9 A3                 3517 	inc	dptr
   0AEA E0                 3518 	movx	a,@dptr
   0AEB F5 2D              3519 	mov	(_hex2int_sloc3_1_0 + 2),a
   0AED A3                 3520 	inc	dptr
   0AEE E0                 3521 	movx	a,@dptr
   0AEF F5 2E              3522 	mov	(_hex2int_sloc3_1_0 + 3),a
                           3523 ;	genCast
   0AF1 AA 27              3524 	mov	r2,_hex2int_sloc2_1_0
   0AF3 AB 28              3525 	mov	r3,(_hex2int_sloc2_1_0 + 1)
   0AF5 7C 00              3526 	mov	r4,#0x00
   0AF7 79 00              3527 	mov	r1,#0x00
                           3528 ;	genPlus
   0AF9 90 00 34           3529 	mov	dptr,#_hex2int_val_1_1
                           3530 ;	Peephole 236.g	used r2 instead of ar2
   0AFC EA                 3531 	mov	a,r2
   0AFD 25 2B              3532 	add	a,_hex2int_sloc3_1_0
   0AFF F0                 3533 	movx	@dptr,a
                           3534 ;	Peephole 236.g	used r3 instead of ar3
   0B00 EB                 3535 	mov	a,r3
   0B01 35 2C              3536 	addc	a,(_hex2int_sloc3_1_0 + 1)
   0B03 A3                 3537 	inc	dptr
   0B04 F0                 3538 	movx	@dptr,a
                           3539 ;	Peephole 236.g	used r4 instead of ar4
   0B05 EC                 3540 	mov	a,r4
   0B06 35 2D              3541 	addc	a,(_hex2int_sloc3_1_0 + 2)
   0B08 A3                 3542 	inc	dptr
   0B09 F0                 3543 	movx	@dptr,a
                           3544 ;	Peephole 236.g	used r1 instead of ar1
   0B0A E9                 3545 	mov	a,r1
   0B0B 35 2E              3546 	addc	a,(_hex2int_sloc3_1_0 + 3)
   0B0D A3                 3547 	inc	dptr
   0B0E F0                 3548 	movx	@dptr,a
                           3549 ;	main.c:485: return val;
                           3550 ;	genIpop
   0B0F D0 04              3551 	pop	ar4
   0B11 D0 03              3552 	pop	ar3
   0B13 D0 02              3553 	pop	ar2
                           3554 ;	main.c:483: val += (a[i]-55)*(1<<(4*(len-1-i)));
   0B15                    3555 00106$:
                           3556 ;	main.c:479: for(i=0;i<len;i++)
                           3557 ;	genPlus
                           3558 ;     genPlusIncr
   0B15 0F                 3559 	inc	r7
   0B16 BF 00 01           3560 	cjne	r7,#0x00,00120$
   0B19 08                 3561 	inc	r0
   0B1A                    3562 00120$:
   0B1A 02 09 77           3563 	ljmp	00104$
   0B1D                    3564 00107$:
                           3565 ;	main.c:485: return val;
                           3566 ;	genAssign
   0B1D 90 00 34           3567 	mov	dptr,#_hex2int_val_1_1
   0B20 E0                 3568 	movx	a,@dptr
   0B21 FA                 3569 	mov	r2,a
   0B22 A3                 3570 	inc	dptr
   0B23 E0                 3571 	movx	a,@dptr
   0B24 FB                 3572 	mov	r3,a
   0B25 A3                 3573 	inc	dptr
   0B26 E0                 3574 	movx	a,@dptr
   0B27 FC                 3575 	mov	r4,a
   0B28 A3                 3576 	inc	dptr
   0B29 E0                 3577 	movx	a,@dptr
                           3578 ;	genRet
   0B2A FD                 3579 	mov	r5,a
   0B2B 8A 82              3580 	mov	dpl,r2
   0B2D 8B 83              3581 	mov	dph,r3
   0B2F 8C F0              3582 	mov	b,r4
                           3583 ;	Peephole 191	removed redundant mov
                           3584 ;	Peephole 300	removed redundant label 00108$
   0B31 22                 3585 	ret
                           3586 ;------------------------------------------------------------
                           3587 ;Allocation info for local variables in function 'ReadVariable'
                           3588 ;------------------------------------------------------------
                           3589 ;l                         Allocated with name '_ReadVariable_l_1_1'
                           3590 ;m                         Allocated with name '_ReadVariable_m_1_1'
                           3591 ;n                         Allocated with name '_ReadVariable_n_1_1'
                           3592 ;k                         Allocated with name '_ReadVariable_k_1_1'
                           3593 ;ptr                       Allocated with name '_ReadVariable_ptr_1_1'
                           3594 ;------------------------------------------------------------
                           3595 ;	main.c:488: uint16_t ReadVariable()
                           3596 ;	-----------------------------------------
                           3597 ;	 function ReadVariable
                           3598 ;	-----------------------------------------
   0B32                    3599 _ReadVariable:
                           3600 ;	main.c:490: uint16_t l=0, m=0, n, k=0;
                           3601 ;	genAssign
   0B32 90 00 38           3602 	mov	dptr,#_ReadVariable_k_1_1
   0B35 E4                 3603 	clr	a
   0B36 F0                 3604 	movx	@dptr,a
   0B37 A3                 3605 	inc	dptr
   0B38 F0                 3606 	movx	@dptr,a
                           3607 ;	main.c:491: unsigned char ptr[]="";
                           3608 ;	genPointerSet
                           3609 ;     genFarPointerSet
   0B39 90 00 3A           3610 	mov	dptr,#_ReadVariable_ptr_1_1
                           3611 ;	Peephole 181	changed mov to clr
   0B3C E4                 3612 	clr	a
   0B3D F0                 3613 	movx	@dptr,a
                           3614 ;	main.c:492: do
   0B3E                    3615 00106$:
                           3616 ;	main.c:494: l=getchar();
                           3617 ;	genCall
   0B3E 12 0C F1           3618 	lcall	_getchar
                           3619 ;	genCast
                           3620 ;	peephole 177.g	optimized mov sequence
   0B41 E5 82              3621 	mov	a,dpl
   0B43 FA                 3622 	mov	r2,a
   0B44 33                 3623 	rlc	a
   0B45 95 E0              3624 	subb	a,acc
   0B47 FB                 3625 	mov	r3,a
                           3626 ;	main.c:495: if(l!=READ_ENTER)
                           3627 ;	genCmpEq
                           3628 ;	gencjne
                           3629 ;	gencjneshort
                           3630 ;	Peephole 241.c	optimized compare
   0B48 E4                 3631 	clr	a
   0B49 BA 0D 04           3632 	cjne	r2,#0x0D,00115$
   0B4C BB 00 01           3633 	cjne	r3,#0x00,00115$
   0B4F 04                 3634 	inc	a
   0B50                    3635 00115$:
                           3636 ;	Peephole 300	removed redundant label 00116$
                           3637 ;	genIfx
   0B50 FC                 3638 	mov	r4,a
                           3639 ;	Peephole 105	removed redundant mov
                           3640 ;	genIfxJump
                           3641 ;	Peephole 108.b	removed ljmp by inverse jump logic
   0B51 70 49              3642 	jnz	00107$
                           3643 ;	Peephole 300	removed redundant label 00117$
                           3644 ;	main.c:497: if(l!=READ_BACKSPACE)
                           3645 ;	genCmpEq
                           3646 ;	gencjneshort
   0B53 BA 7F 05           3647 	cjne	r2,#0x7F,00118$
   0B56 BB 00 02           3648 	cjne	r3,#0x00,00118$
                           3649 ;	Peephole 112.b	changed ljmp to sjmp
   0B59 80 2C              3650 	sjmp	00102$
   0B5B                    3651 00118$:
                           3652 ;	main.c:499: ptr[k]=l;
                           3653 ;	genAssign
   0B5B 90 00 38           3654 	mov	dptr,#_ReadVariable_k_1_1
   0B5E E0                 3655 	movx	a,@dptr
   0B5F FD                 3656 	mov	r5,a
   0B60 A3                 3657 	inc	dptr
   0B61 E0                 3658 	movx	a,@dptr
   0B62 FE                 3659 	mov	r6,a
                           3660 ;	genPlus
                           3661 ;	Peephole 236.g	used r5 instead of ar5
   0B63 ED                 3662 	mov	a,r5
   0B64 24 3A              3663 	add	a,#_ReadVariable_ptr_1_1
   0B66 F5 82              3664 	mov	dpl,a
                           3665 ;	Peephole 236.g	used r6 instead of ar6
   0B68 EE                 3666 	mov	a,r6
   0B69 34 00              3667 	addc	a,#(_ReadVariable_ptr_1_1 >> 8)
   0B6B F5 83              3668 	mov	dph,a
                           3669 ;	genCast
   0B6D 8A 07              3670 	mov	ar7,r2
                           3671 ;	genPointerSet
                           3672 ;     genFarPointerSet
   0B6F EF                 3673 	mov	a,r7
   0B70 F0                 3674 	movx	@dptr,a
                           3675 ;	main.c:500: k++;
                           3676 ;	genPlus
   0B71 90 00 38           3677 	mov	dptr,#_ReadVariable_k_1_1
                           3678 ;     genPlusIncr
   0B74 74 01              3679 	mov	a,#0x01
                           3680 ;	Peephole 236.a	used r5 instead of ar5
   0B76 2D                 3681 	add	a,r5
   0B77 F0                 3682 	movx	@dptr,a
                           3683 ;	Peephole 181	changed mov to clr
   0B78 E4                 3684 	clr	a
                           3685 ;	Peephole 236.b	used r6 instead of ar6
   0B79 3E                 3686 	addc	a,r6
   0B7A A3                 3687 	inc	dptr
   0B7B F0                 3688 	movx	@dptr,a
                           3689 ;	main.c:501: putchar(l);
                           3690 ;	genCast
                           3691 ;	genCall
   0B7C 8A 82              3692 	mov	dpl,r2
   0B7E C0 04              3693 	push	ar4
   0B80 12 0C DF           3694 	lcall	_putchar
   0B83 D0 04              3695 	pop	ar4
                           3696 ;	Peephole 112.b	changed ljmp to sjmp
   0B85 80 15              3697 	sjmp	00107$
   0B87                    3698 00102$:
                           3699 ;	main.c:505: k--;
                           3700 ;	genAssign
   0B87 90 00 38           3701 	mov	dptr,#_ReadVariable_k_1_1
   0B8A E0                 3702 	movx	a,@dptr
   0B8B FA                 3703 	mov	r2,a
   0B8C A3                 3704 	inc	dptr
   0B8D E0                 3705 	movx	a,@dptr
   0B8E FB                 3706 	mov	r3,a
                           3707 ;	genMinus
                           3708 ;	genMinusDec
   0B8F 1A                 3709 	dec	r2
   0B90 BA FF 01           3710 	cjne	r2,#0xff,00119$
   0B93 1B                 3711 	dec	r3
   0B94                    3712 00119$:
                           3713 ;	genAssign
   0B94 90 00 38           3714 	mov	dptr,#_ReadVariable_k_1_1
   0B97 EA                 3715 	mov	a,r2
   0B98 F0                 3716 	movx	@dptr,a
   0B99 A3                 3717 	inc	dptr
   0B9A EB                 3718 	mov	a,r3
   0B9B F0                 3719 	movx	@dptr,a
   0B9C                    3720 00107$:
                           3721 ;	main.c:508: }while(l!=READ_ENTER);
                           3722 ;	genIfx
   0B9C EC                 3723 	mov	a,r4
                           3724 ;	genIfxJump
                           3725 ;	Peephole 108.c	removed ljmp by inverse jump logic
   0B9D 60 9F              3726 	jz	00106$
                           3727 ;	Peephole 300	removed redundant label 00120$
                           3728 ;	main.c:509: n=hex2int(ptr,k);
                           3729 ;	genAssign
   0B9F 90 00 38           3730 	mov	dptr,#_ReadVariable_k_1_1
   0BA2 E0                 3731 	movx	a,@dptr
   0BA3 FA                 3732 	mov	r2,a
   0BA4 A3                 3733 	inc	dptr
   0BA5 E0                 3734 	movx	a,@dptr
   0BA6 FB                 3735 	mov	r3,a
                           3736 ;	genAssign
   0BA7 90 00 2F           3737 	mov	dptr,#_hex2int_PARM_2
   0BAA EA                 3738 	mov	a,r2
   0BAB F0                 3739 	movx	@dptr,a
   0BAC A3                 3740 	inc	dptr
   0BAD EB                 3741 	mov	a,r3
   0BAE F0                 3742 	movx	@dptr,a
                           3743 ;	genCall
                           3744 ;	Peephole 182.a	used 16 bit load of DPTR
   0BAF 90 00 3A           3745 	mov	dptr,#_ReadVariable_ptr_1_1
   0BB2 75 F0 00           3746 	mov	b,#0x00
                           3747 ;	genCast
                           3748 ;	main.c:510: return n;
                           3749 ;	genRet
                           3750 ;	Peephole 150.h	removed misc moves via dph, dpl, b, a before return
                           3751 ;	Peephole 253.b	replaced lcall/ret with ljmp
   0BB5 02 09 45           3752 	ljmp	_hex2int
                           3753 ;
                           3754 ;------------------------------------------------------------
                           3755 ;Allocation info for local variables in function 'interactive'
                           3756 ;------------------------------------------------------------
                           3757 ;co                        Allocated with name '_interactive_co_1_1'
                           3758 ;i                         Allocated with name '_interactive_i_1_1'
                           3759 ;------------------------------------------------------------
                           3760 ;	main.c:514: void interactive()
                           3761 ;	-----------------------------------------
                           3762 ;	 function interactive
                           3763 ;	-----------------------------------------
   0BB8                    3764 _interactive:
                           3765 ;	main.c:517: EA=0;
                           3766 ;	genAssign
   0BB8 C2 AF              3767 	clr	_EA
                           3768 ;	main.c:518: i=*INST_READ;
                           3769 ;	genPointerGet
                           3770 ;	genFarPointerGet
                           3771 ;	Peephole 182.b	used 16 bit load of dptr
   0BBA 90 F8 00           3772 	mov	dptr,#0xF800
   0BBD E0                 3773 	movx	a,@dptr
   0BBE FA                 3774 	mov	r2,a
                           3775 ;	main.c:519: EA=1;
                           3776 ;	genAssign
   0BBF D2 AF              3777 	setb	_EA
                           3778 ;	main.c:520: i=i&DDRAM_WRITE_MASK_BITS;
                           3779 ;	genAnd
   0BC1 53 02 80           3780 	anl	ar2,#0x80
                           3781 ;	main.c:521: EA=0;
                           3782 ;	genAssign
   0BC4 C2 AF              3783 	clr	_EA
                           3784 ;	main.c:522: *INST_WRITE=i;
                           3785 ;	genAssign
                           3786 ;	Peephole 182.b	used 16 bit load of dptr
   0BC6 90 F0 00           3787 	mov	dptr,#0xF000
                           3788 ;	genPointerSet
                           3789 ;     genFarPointerSet
   0BC9 EA                 3790 	mov	a,r2
   0BCA F0                 3791 	movx	@dptr,a
                           3792 ;	main.c:523: EA=1;
                           3793 ;	genAssign
   0BCB D2 AF              3794 	setb	_EA
                           3795 ;	main.c:524: putstr("Enter the character to display. Hit enter to stop\n\r");
                           3796 ;	genCall
                           3797 ;	Peephole 182.a	used 16 bit load of DPTR
   0BCD 90 27 0A           3798 	mov	dptr,#__str_18
