:060000000200260202715D
:01000B0032C2
:0100130032BA
:01001B0032B2
:0300230002026A6C
:03007F00020082FA
:0500820012008780FE62
:0A008700900008E4F0900000F090F3
:070091000001F0120474905D
:0900980004C775F08012041390F6
:0900A10004CA75F08012041390EA
:0900AA0004D375F08012041390D8
:0800B30004ED75F08012041346
:0E00BB00120483AA827B008A048C82C002C0D9
:0E00C90003120495D003D0029004C775F08096
:0E00D700C002C003120413D003D002C3EA9487
:0900E5003EEB94005003020255A9
:0B00EE00C374579AE49B5003020255B4
:0E00F900EA24C2FA240983C0E0EA241D83C071
:02010700E022F4
:02010900CD55D2
:02010B00555548
:02010D00551982
:02010F00623D4F
:020111003D555A
:0201130085D392
:0201150055553E
:0201170055553C
:02011900285567
:02011B00F65597
:02011D0055AAE1
:02011F00555534
:02012100552E59
:020123000102D7
:020125000202D4
:020127000202D2
:020129000101D2
:02012B000202CE
:02012D000101CE
:02012F000202CA
:020131000202C8
:020133000202C6
:020135000102C5
:020137000201C3
:020139000202C0
:02013B000202BE
:0A013D00744255DAFABA4202800F4C
:0A01470090050475F08012041312F5
:0501510002910200BB59
:0A01560090053875F08012041302C2
:0201600000BBE2
:0E016200740255DAFABA020F90055A75F08051
:070170001204131202D30276
:0201770000BBCB
:0A01790090057875F080120413025F
:0201830000BBBF
:0A018500744C55DBFABA4C02800FEF
:0A018F0090059F75F0801204131212
:0501990002BC0200BBE6
:0A019E009005DA75F08012041302D8
:0201A80000BB9A
:0E01AA00740C55DBFABA0C0F90060F75F0803E
:0701B8001204131202DB0226
:0201BF0000BB83
:0A01C10090063875F0801204130256
:0201CB0000BB77
:0601CD001202E30200BB78
:0B01D30074015587FABA01030200BB5B
:0A01DE0090066775F08012041312FA
:0901E80002A89006C375F0801214
:0501F10004130200BB35
:0B01F60074025587FABA02030200BB36
:0A0201009006DB75F0801204131262
:09020B0002B290072775F0801281
:0502140004130200BB11
:0A02190090074575F08012041312DF
:0502230002720200BBA5
:060228001202760200BB89
:0A022E0090077675F0801204131299
:05023800027A0200BB88
:0A023D009007A875F0801204131258
:0902470004699007CA75F08012E9
:0502500004130200BBD5
:0A0255009007F275F0801204139078
:09025F0004D375F08012041302AF
:0202680000BBD9
:07026A00C0E0E599D0E0328D
:01027100325A
:04027200759700225A
:040276007597FF2257
:0E027A00C2DE75F90075E90075EEFF75FEFF36
:0902880075DE4C43D940D2DE22A0
:0E029100C2DE43D90275F90075E90075EA4D29
:09029F0075FA4D43DA42D2DE2269
:0A02A80043A89143870175A80022C6
:0A02B20043A88143870275A80022CB
:0E02BC00C2DE43D90275F90075E90075FB003A
:0902CA0075EB5575DB4CD2DE2208
:0802D300C2DE53DAFDD2DE2287
:0802DB00C2DE53DBF3D2DE2288
:0A02E30090080875F08012041390D3
:0902ED00087975F08012041390E9
:0902F600089475F08012041390C5
:0902FF0008C475F080120413908C
:0903080008F575F0801204139051
:09031100092C75F0801204139010
:09031A00096475F08012041390CF
:09032300098875F08012041390A2
:09032C0009B275F080120413906F
:090335000A0A75F080120413900D
:09033E000A6275F08012041390AC
:090347000AC775F080120413903E
:0903500004C775F080120413903B
:090359000AF075F0801204139003
:090362000AF975F08012041390F1
:09036B000B5675F080120413908A
:090374000B9875F080120413903F
:09037D000BE875F08012041390E6
:090386000C3975F080120413908B
:09038F000C7975F0801204139042
:08039800080875F0800204134F
:0D03A000120483AA82900000EAF0BA300037
:0E03AD00402AEA24C64025900008E0FB75F0C7
:0E03BB000AA4FBEA24D09000082BF08A8212DC
:0803C9000495900001E0FA9098
:0803D100000174012AF08026EE
:0E03D900900000E0FABA7F10900008E0FB9060
:0A03E700000875F00AEB84F0800EA8
:0503F100BA0D028009B5
:0903F600900CCB75F08012041389
:0E03FF00900000E0FABA0D99900001E4F09031
:06040D000008E0F5822268
:0E041300AAF0AB83E582900003F0A3EBF0A308
:0D042100EAF0900003E0FAA3E0FBA3E0FC8A
:0E042E008A828B838CF01204A7FD60238D82DE
:0E043C00C002C003C004120495D004D003D047
:06044A00020ABA00010BDA
:0D045000900003EAF0A3EBF0A3ECF080D1E4
:0C045D00900003EAF0A3EBF0A3ECF02207
:050469007597007AFA0E
:06046E00DAFE7597FF2283
:0E047400758920758DFD759850D28E75A890F3
:010482002257
:0E0483003098FD900006E599F0C298900006B2
:04049100E0F58222EE
:0C049500E582900007F0900007E0F59968
:0504A10010990280FB30
:0104A6002233
:0304C7000A0D001B
:0904CA0048656C6C6F200A0D00FE
:0E04D300507265737320273E2720666F7220DB
:0C04E10068656C70206D656E750A0D007A
:0E04ED00456E746572207468652063686172E4
:0904FB006163746572200A0D00B2
:0E050400436F6E6669677572696E67205043BB
:0E05120041206D6F64756C65203020696E208D
:0E05200050574D206D6F64652E204368656353
:0A052E006B2050312E33200A0D001F
:0E05380050574D20616C726561647920636FCD
:0E0546006E66696775726564206F6E205031B5
:060554002E33200A0D0009
:0E055A0044697361626C696E672050574D20D2
:0E0568006D6F6465206F6E2050312E33200AB7
:020576000D0076
:0E05780050574D206D6F6465206F6E2050311E
:0E0586002E3320697320616C726561647920E8
:0B05940064697361626C65640A0D000D
:0E059F00436F6E6669677572696E6720504320
:0E05AD0041206D6F64756C65203120696E20F1
:0E05BB0048696768205370656564206D6F6441
:0E05C900652E20436865636B2050312E342070
:0305D7000A0D000A
:0E05DA0048696768205370656564206D6F6422
:0E05E8006520697320616C726561647920631F
:0E05F6006F6E666967757265642E20436865D6
:0B060400636B2050312E34200A0D00E3
:0E060F0044697361626C696E672074686520CF
:0E061D0048696768205370656564206D6F64DE
:0D062B0065206F6E2050312E34200A0D0026
:0E06380048696768205370656564206D6F64C3
:0E06460065206F6E2050312E342069732061C4
:0E0654006C72656164792064697361626C6523
:0506620064200A0D00F8
:0E066700456E746572696E6720696E746F204F
:0E06750049646C65204D6F64652E20507265DF
:0E068300737320616E79206B6579206F722091
:0E06910067656E6572617465206578746572C8
:0E069F006E616C20696E7465727275707430D5
:0E06AD0020746F20636F6D65206F7574206F71
:0806BB0066206974200A0D009D
:0E06C30043616D65206F7574206F6620496479
:0A06D1006C65206D6F64650A0D0072
:0E06DB00456E746572696E6720506F776572A8
:0E06E9002D646F776E206D6F64652E2047655F
:0E06F7006E65726174652065787465726E615F
:0E0705006C20696E74657272757074302074A9
:0E0713006F20636F6D65206F7574206F662018
:060721006974200A0D00BE
:0E07270043616D65206F7574206F6620706FE2
:0E07350077657220646F776E206D6F64650AC1
:020743000D00A7
:0E0745004368616E67696E67207468652046C0
:0E07530028636C6B7065726970682920746F82
:0E076100206D696E696D756D2066726571752B
:07076F00656E63790A0D00BD
:0E0776005761746368646F672074696D657203
:0E078400206973207365742E20436F6E7472AB
:0E0792006F6C6C65722077696C6C206265205C
:0807A00072657365740A0D0017
:0E07A800476F696E6720746F206D696E696D12
:0E07B600756D206672657175656E6379206DD4
:0607C4006F64650A0D00E0
:0E07CA00436F6D696E67206261636B20746F10
:0E07D800206D6178696D756D206672657175B2
:0C07E600656E6379206D6F64650A0D007C
:0E07F2000A0D456E7465722076616C69642094
:08080000696E7075740A0D00A9
:0E0808000A0D7E7E7E7E7E7E7E7E7E7E7E7EE3
:0E0816007E7E7E7E7E7E7E7E7E7E7E7E7E7EF0
:0E0824007E7E7E7E7E7E7E7E7E7E7E7E7E7EE2
:0E0832007E7E7E7E7E7E7E7E7E7E7E7E7E7ED4
:0E0840007E7E7E7E7E7E7E7E7E7E7E7E7E7EC6
:0E084E007E7E7E7E7E7E7E7E7E7E7E7E7E7EB8
:0E085C007E7E7E7E7E7E7E7E7E7E7E7E7E7EAA
:0E086A007E7E7E7E7E7E7E7E7E7E7E7E0A0D81
:01087800007F
:0E08790057656C636F6D6520746F2074686541
:0D0887002048656C70204D656E750A0D00EF
:0E08940050726573732027452720666F72200F
:0E08A200656E61626C696E6720746865205037
:0E08B000574D206F7574707574206F6E205058
:0608BE00312E330A0D008B
:0E08C40050726573732027442720666F7220E0
:0E08D20064697361626C696E672074686520EA
:0E08E00050574D206F7574707574206F6E2028
:0708EE0050312E330A0D000A
:0E08F50050726573732027482720666F7220AB
:0E090300656E61626C696E67207468652048DD
:0E091100696768205370656564206F757470A7
:0D091F007574206F6E2050312E340A0D00CB
:0E092C0050726573732027532720666F722068
:0E093A0064697361626C696E67207468652081
:0E09480048696768205370656564206F757498
:0E095600707574206F6E2050312E340A0D0023
:0E09640050726573732027492720746F206539
:0E0972006E74657220696E746F2049444C45A6
:08098000206D6F64650A0D0093
:0E09880050726573732027502720746F20650E
:0E0996006E74657220696E746F20506F776505
:0E09A4007220646F776E206D6F64650A0D001F
:0E09B20050726573732027432720746F205303
:0E09C0006574204628636C6B70657269706800
:0E09CE002920617420746865206D696E696D62
:0E09DC00756D206672657175656E63792073A6
:0E09EA007570706F7274656420627920746895
:0E09F8006520434B524C20726567697374652D
:040A0600720A0D0063
:0E0A0A00507265737320274E2720746F20539F
:0E0A18006574204628636C6B706572697068A7
:0E0A26002920617420746865206D6178696D07
:0E0A3400756D206672657175656E637920734D
:0E0A42007570706F727465642062792074683C
:0E0A50006520434B524C2072656769737465D4
:040A5E00720A0D000B
:0E0A620050726573732027462720746F20673B
:0E0A70006F20696E746F20746865206D696E6A
:0E0A7E00696D756D206672657175656E6379C0
:0E0A8C0020666F722073686F727420616D6F48
:0E0A9A00756E74206F6620706572696F64203F
:0E0AA800616E64207468656E20636F6D65205A
:0E0AB6006261636B20746F206E6F726D616CF5
:030AC4000A0D0018
:0E0AC70050726573732027572720746F2065C7
:0E0AD5006E61626C65207468652077617463E1
:0D0AE30068646F672074696D65720A0D000C
:090AF0004E6F74653A200A0D00F6
:0E0AF900312E20546F20636F6D65206F757471
:0E0B0700206F662049444C45206D6F64652CBC
:0E0B150020707265737320616E79206B6579B4
:0E0B2300206F6E20746865206B6579626F61CB
:0E0B31007264206F722067656E657261746574
:0E0B3F002065787465726E616C20696E746555
:090B4D007272757074300A0D001B
:0E0B5600322E20546F20636F6D65206F757412
:0E0B6400206F6620506F77657220646F776E89
:0E0B7200206D6F64652C2067656E657261747E
:0E0B8000652065787465726E616C20696E7414
:0A0B8E00657272757074300A0D0074
:0E0B9800332E205768656E20796F75206368D4
:0E0BA600616E6765204628636C6B706572692E
:0E0BB40070682920746F206D696E696D756D13
:0E0BC2002C2074686520626175642072617475
:0E0BD00065206368616E6765732E2048656E50
:0A0BDE006365207365742D0A0D0095
:0E0BE8002020202D74686520626175642072E3
:0E0BF600617465206173202731382720696EF5
:0E0C040020796F75722073657269616C2074BF
:0E0C120065726D696E616C2E20416E642C203F
:0E0C20007768656E20796F7520636F6D6520B3
:0B0C2E006261636B20746F2D0A0D00E3
:0E0C39002020202D6E6F726D616C286D617829
:0E0C4700696D756D29206672657175656E6345
:0E0C5500792C206368616E67652074686520E5
:0E0C630062617564207261746520746F206E8A
:080C71006F726D616C0A0D0049
:0E0C7900342E204F6E636520796F7520656EF6
:0E0C870061626C652074686520776174636833
:0E0C9500646F672074696D65722C2074686549
:0E0CA30020636F6E74726F6C6C6572206765F3
:0E0CB1007473207265736574207769746869C6
:0C0CBF006E207365636F6E64730A0D0095
:0E0CCB000A0D456E746572204E756D6265727D
:040CD900730A0D008D
:010CDD000016
:06005500E478FFF6D8FD7F
:080033007901E94400601B7A29
:05003B0001900CDD78CE
:030040000875A0A0
:0A00430000E493F2A308B8000205E0
:08004D00A0D9F4DAF275A0FF5E
:08005B007800E84400600A7916
:030063000075A085
:0600660000E4F309D8FCE0
:08006C007808E84400600C79FB
:0B00740001900000E4F0A3D8FCD9FAD2
:03002600758107DA
:0A0029001204C3E5826003020082A6
:0E04A70020F71430F6148883A88220F507E6AB
:0604B500A88375830022FC
:0304BB00E280F7E5
:0304BE00E49322A2
:0204C100E02237
:0404C300758200221C
:00000001FF
