:03000000020003F8
:10005C0002005F1215F480FEAA83E58290000CF07A
:10006C00A3EAF090000CE0FAA3E0FB7C007D00C357
:10007C00EC9AED9B50147E7E7F001EBEFF011FEE9E
:10008C004F70F70CBC00E80D80E52290F800E0FA08
:10009C0090000EF0A3E4F090000112006490000EAA
:1000AC00E0FAA3E0FB5302807B00BA8017BB00147C
:1000BC0090F800E0FA90000EF0A3E4F0900001122A
:1000CC00006480D922900010E4F0900011F0120C22
:1000DC0016E582900010F0900010E0FABA30004063
:1000EC002B900010E0FA24C64022900011E0FA7523
:1000FC00F00AA4FA900010E0FB24D09000112AF032
:10010C00900010E0FAF582120C04802B900010E0A5
:10011C00FABA7F10900011E0FA90001175F00AEA1B
:10012C0084F08013900010E0FABA0D028009902040
:10013C003B75F080120275900010E0FABA0D028047
:10014C00030200DA900011E0F58222E582900012A1
:10015C00F0900012E0FA2498400B43028090F000DB
:10016C00EAF002009722E582900014F0900014E06F
:10017C00FA24FC4047EA2A2A90018873020194026F
:10018C00019E0201AC0201BA900013E0FAF5820262
:10019C000157900013E0FA74402AFAF582020157D5
:1001AC00900013E0FA74102AFAF5820201579000BD
:1001BC0013E0FA74502AFAF5820201572290F000EB
:1001CC007401F012009790204D75F080020275E5D5
:1001DC0082900015F07A007BF4900015E0FC8A8286
:1001EC008B83F012009790F800E0FA900016F0A3C1
:1001FC00E4F0900016E0FAA3E0FB900018747F5A2C
:10020C00F0A3E4F0900018E0FAA3E0FBBA100EBBE8
:10021C00000B900013E4F07582010201729000183B
:10022C00E0FAA3E0FBBA500EBB000B900013E4F015
:10023C00758202020172900018E0FAA3E0FBBA206A
:10024C000EBB000B900013E4F07582030201729058
:10025C000018E0FAA3E0FBBA600EBB000B90001391
:10026C00E4F075820002017222AAF0AB83E5829061
:10027C00001AF0A3EBF0A3EAF090001AE0FAA3E066
:10028C00FBA3E0FC8A828B838CF0122002FD60239E
:10029C008D82C002C003C004120C04D004D003D061
:1002AC00020ABA00010B90001AEAF0A3EBF0A3ECDF
:1002BC00F080D190001AEAF0A3EBF0A3ECF022AAA4
:1002CC00F0AB83E58290001DF0A3EBF0A3EAF09075
:1002DC00001DE0FAA3E0FBA3E0FC8A828B838CF088
:1002EC00122002FD60238D82C002C003C0041201E3
:1002FC00DBD004D003D0020ABA00010B90001DEA37
:10030C00F0A3EBF0A3ECF080D190001DEAF0A3EB8E
:10031C00F0A3ECF02290001412006490F000743002
:10032C00F090000A12006490F0007430F090000A13
:10033C0012006490F0007430F012009790F000748A
:10034C0038F012009790F0007408F012009790F0BB
:10035C0000740CF012009790F0007406F0120097E5
:10036C0090F0007401F0229000207440F090F8009E
:10037C00E0FA90F0007440F0C002120097D00290A6
:10038C00206A75F080C002120275D00290206D7543
:10039C00F080C002120275D00290207C75F080C0F3
:1003AC0002120275D0027B007C00C374079BE49C94
:1003BC005003020478900020E0FD743F5DFE7F0046
:1003CC00C002C003C004C005C006C0077490C0E0E2
:1003DC007420C0E07480C0E0121763E58124FBF543
:1003EC0081D005D004D003D0027E087F000D90FC94
:1003FC0000E0F87900C002C003C004C005C006C00C
:10040C0007C000C001749AC0E07420C0E07480C0C2
:10041C00E0121763E58124FBF581D007D006D005E7
:10042C00D004D003D002C002C003C004C005C00673
:10043C00C007120097D007D006D005D004D003D047
:10044C00021EBEFF011FEE4F70A3900020EDF09036
:10045C00206A75F080C002C003C004120275D0047B
:10046C00D003D0020BBB00010C0203B690206A75BE
:10047C00F080C002120275D00290F000430280EAB4
:10048C00F0020097E582900024F090F800E0FAC0AA
:10049C0002120097D002900024E0FB4440F0900040
:1004AC0021E0FBA3E0FCA3E0FD900024E0FE7F0034
:1004BC00EF24F8406BC00290F000EEF0C002C003D5
:1004CC00C004C005C006C007120097D007D006D0E4
:1004DC0005D004D003D0027508007509F4EF2BFA8F
:1004EC00E43CF88D018A82888389F0122002FA5349
:1004FC00021F850882850983EAF0C002C003C0048C
:10050C00C005C006C007120097D007D006D005D092
:10051C0004D003D0020E900024EEF00FD002809095
:10052C00900024EEF090F000430280EAF002009775
:10053C00900025E4F090F800E0FA90206A75F080C5
:10054C00C002120275D0029020A175F080C0021278
:10055C000275D0029020B075F080C002120275D0E6
:10056C00027B007C00C374039BE49C500302068452
:10057C00EB4C70069000257480F0BB0109BC0006A2
:10058C0090002574C0F0BB0209BC000690002574D5
:10059C0090F0BB0309BC000690002574D0F09000CD
:1005AC0025E0FD747F5DFE7F00C002C003C004C067
:1005BC0005C006C00774FCC0E07420C0E07480C0A5
:1005CC00E0121763E58124FBF581D005D004D0033C
:1005DC00D0027E107F0090F000EDF0C002C003C08E
:1005EC0004C005C006C007120097D007D006D0057E
:1005FC00D004D003D0020D90FC00E0F87900C002CA
:10060C00C003C004C005C006C007C000C001749A76
:10061C00C0E07420C0E07480C0E0121763E5812450
:10062C00FBF581D007D006D005D004D003D002C092
:10063C0002C003C004C005C006C007120097D00753
:10064C00D006D005D004D003D0021EBEFF011FEE91
:10065C004F60030205E2900025EDF090206A75F0E2
:10066C0080C002C003C004120275D004D003D002B3
:10067C000BBB00010C02057190206A75F080C00262
:10068C00120275D00290F000430280EAF022900032
:10069C0026E4F07A00C002120C16AB82D0028B0456
:1006AC00BC300040268B04EC24CE401F900026E08A
:1006BC0025E0FCEB24D09000262CF08B82C002C0ED
:1006CC0003120C04D003D0020A8027BB7F0E9000CB
:1006DC0026E0FCC313FC900026F08016BB0D0280B4
:1006EC001190210675F080C002C003120275D00370
:1006FC00D002BB0DA0900026E0F5822290000BE00A
:10070C00FABA0800400302087490211E75F080129A
:10071C00027590213B75F080120275900027E4F071
:10072C00900027E0FA24F84046C00212069AAB82E9
:10073C00D002EB24E0501590216675F080C00212B7
:10074C000275D002EA14900027F08015EA2403F514
:10075C0082E43400F583EBF090206A75F08012028D
:10076C0075900027E0FA90002774012AF080B19070
:10077C00000BE0FA70179000217403F0A37400F0E2
:10078C00A37400F075820012049002086C90000BA8
:10079C00E0FABA01179000217403F0A37400F0A3DF
:1007AC007400F075820812049002086C90000BE043
:1007BC00FABA02179000217403F0A37400F0A3742A
:1007CC0000F075821012049002086C90000BE0FA95
:1007DC00BA03179000217403F0A37400F0A3740003
:1007EC00F075821812049002086C90000BE0FABAB3
:1007FC0004169000217403F0A37400F0A37400F0AD
:10080C00758220120490805890000BE0FABA0516FD
:10081C009000217403F0A37400F0A37400F07582AF
:10082C0028120490803A90000BE0FABA0616900059
:10083C00217403F0A37400F0A37400F075823012DD
:10084C000490801C90000BE0FABA071490002174FD
:10085C0003F0A37400F0A37400F0758238120490B6
:10086C0090000BE02401F02290218475F0800202AC
:10087C00759021C675F0801202757A00BA08005086
:10088C000C8A82C0021201DBD0020A80EF22AAF08D
:10089C00AB83E58290002AF0A3EBF0A3EAF0900082
:1008AC002DE4F0A3F0A3F0A3F090002AE0FAA3E06B
:1008BC00FBA3E0FC900028E0FDA3E0FE7F007800A5
:1008CC00C002C003C0048F018802C3E99DEA9ED018
:1008DC0004D003D0024003020A72C005C006EF2AFE
:1008EC00F9E83BFD8C0689828D838EF0122002F58F
:1008FC000AC374B9850AF063F08095F0E433D0062E
:10090C00D00560030209C0C002C003C004A90AE5F7
:10091C000A3395E0FAE924D0F9EA34FFFAED24FF22
:10092C00FBEE34FFFCEBC39FFBEC98FCCB25E0CB40
:10093C0033CB25E0CB33FC8BF005F07B017C0080C6
:10094C0006EB2BFBEC33FCD5F0F790007EEBF0A321
:10095C00ECF089828A83C002C003C004C005C006C3
:10096C00C007C0001216F785820B85830CD000D00F
:10097C0007D006D005D004D003D00290002DE0F5AE
:10098C000DA3E0F50EA3E0F50FA3E0F510AA0BAB59
:10099C000C7C00790090002DEA250DF0EB350EA3B0
:1009AC00F0EC350FA3F0E93510A3F0D004D003D050
:1009BC0002020A6AC002C003C004A90AE50A339500
:1009CC00E0FAE924C9F9EA34FFFAED24FFFBEE342E
:1009DC00FFFCEBC39FFBEC98FCCB25E0CB33CB258A
:1009EC00E0CB33FC8BF005F07B017C008006EB2B1D
:1009FC00FBEC33FCD5F0F790007EEBF0A3ECF08928
:100A0C00828A83C002C003C004C005C006C007C0F0
:100A1C00001216F785820D85830ED000D007D00604
:100A2C00D005D004D003D00290002DE0F511A3E046
:100A3C00F512A3E0F513A3E0F514AA0DAB0E7C00A0
:100A4C00790090002DEA2511F0EB3512A3F0EC356E
:100A5C0013A3F0E93514A3F0D004D003D0020FBFD8
:100A6C000001080208CC90002DE0FAA3E0FBA3E003
:100A7C00FCA3E0FD8A828B838CF022900031E4F0A1
:100A8C007A007B00C002C003120C16AC82D003D0DB
:100A9C0002EC3395E0FDE4BC0D04BD000104FE70D6
:100AAC0024EA2431F582EB3400F5838C07EFF00A4D
:100ABC00BA00010B8C82C002C003C006120C04D019
:100ACC0006D003D002EE60BC900028EAF0A3EBF055
:100ADC0090003175F00002089A90F800E0FA530289
:100AEC008090F000EAF09021D875F0801202751217
:100AFC000C16AA82C002120C04D002E4BA0D010436
:100B0C00FB70098A82C0031201DBD003EB60E02288
:100B1C0090220C75F0801202751200D1AA82C37457
:100B2C00039AE433FB601190222175F080C002C05F
:100B3C0003120275D003D002EB70DE90223775F0F1
:100B4C0080C002120275D002C0021200D1AB82D05A
:100B5C0002C3740F9BE433FC601590224F75F08038
:100B6C00C002C003C004120275D004D003D002EC42
:100B7C0070D6900013EBF08A8202017290003274EE
:100B8C0066F090226F75F080120275900032E0FAD8
:100B9C0024E05005BA4000400A900032E0FABA5FF7
:100BAC00004026120A87AB82AC83900032EBF0EB4C
:100BBC0024E05005BB40004005BB5F0040CD9022B7
:100BCC008A75F08012027580C28A821201579020B9
:100BDC006A75F080020275438E0C900000227D0530
:100BEC007C0A00DCFDDDF92222758920758DFD75EE
:100BFC009850D28E75A89022E582900033F0900028
:100C0C0033E0F59910990280FB223098FDAA99C225
:100C1C00988A8222D293D29471EAC29471EAC293D6
:100C2C0071EA2271EAC29471EAD29371EAD2947198
:100C3C00EA22C371EAD29471EAD29371EAA2947156
:100C4C00EAC29371EA2271EA71EAC29471EAD29310
:100C5C0071EA71EAC29300D2942271EA7908C33323
:100C6C005004D2948174C29471EAD29371EAC29303
:100C7C0071EAD9EA22E582900034F0900034E0F574
:100C8C00E0D2D7120C66120C3E75E00090000122E7
:100C9C0074007F080071EAC29371EAD293A2943374
:100CAC00DFF2C29371EA22AA83E582900036F0A3A8
:100CBC00EAF0900035E0FA8A037C00900036E0FD03
:100CCC00A3E0FEC002C005C006C003C004C005C03E
:100CDC000674B2C0E07422C0E07480C0E0121763E6
:100CEC00E58124F9F581D006D005D0027B0074078C
:100CFC005EFCA2E7CB33CB33CB5401FC4303A053B4
:100D0C0003FEC002C003C005120C20D005D003D0D6
:100D1C00028B82C002C005120C81AB82AC83D00561
:100D2C00D0028D82C002C003C004120C81AD82AE11
:100D3C0083D004D003D0028A82C003C004C005C093
:100D4C0006120C81D006D005D004D003C003C00419
:100D5C00C005C006120C2FD006D005D004D00390CD
:100D6C0000AE7401F0E4A3F0ED5203EE52048B825A
:100D7C008C8322AA83E582900038F0A3EAF09000DD
:100D8C0038E0FAA3E0FB7C0074075BFDA2E7CC33F0
:100D9C00CC33CC5401FD4304A074FE5CFD8A06C028
:100DAC0002C003C004C005C006120C20D006D0053A
:100DBC00D004D003D0028D82C002C003C004C00690
:100DCC00120C81D006D004D003D0028E82C002C097
:100DDC0003C004120C81D004D003D002C002C003A3
:100DEC00C004120C20D004D003D0024304018C8226
:100DFC00C002C003120C81D003D002C002C0031287
:100E0C000C9CD003D00290003AE5E0F0E0FC7D00B1
:100E1C00C004C005C002C00374CDC0E07422C0E0A1
:100E2C007480C0E0121763E58124F9F581120C2F50
:100E3C00900000229022E075F080120275120A8751
:100E4C00AA82AB8390003CEAF0A3EBF0C374FF9A48
:100E5C0074079BE433FC60159022F475F080C0029B
:100E6C00C003C004120275D004D003D002EC70CDC4
:100E7C0090230E75F080C002C003120275D003D00F
:100E8C0002C002C003120A87AC82AD83D003D00229
:100E9C00C374FF9C74079DE433FE601D9022F475AF
:100EAC00F080C002C003C004C005C006120275D099
:100EBC0006D005D004D003D002EE70C5FE74075BDB
:100ECC00FFA2E7CE33CE33CE5401FF4306A074FE0F
:100EDC005EFFC002C004C005C006C007120C20D0C3
:100EEC0007D006D005D004D0028F82C002C004C047
:100EFC0005C006120C81D006D005D004D0028A821F
:100F0C00C004C005C006120C81D006D005D004C0A8
:100F1C0004C005C006120C20D006D005D004430630
:100F2C00018E82C004C005120C81D005D004902023
:100F3C006A75F080C004C005120275D005D004900B
:100F4C00206A75F080C004C005120275D005D0046B
:100F5C0090233275F080C004C005120275D005D004
:100F6C000490234075F080C004C005120275D005B2
:100F7C00D00490206A75F080C004C005120275D0B0
:100F8C0005D00490003CE0FAA3E0FBC3EC9AED9B87
:100F9C005003021077C002C003C004C005C002C0D9
:100FAC00037489C0E07423C0E07480C0E01217633E
:100FBC00E58124FBF581D005D004D003D0027E005E
:100FCC00EE24F05003021063C002C003C004C0053D
:100FDC00C006120C9CD006D005D004D003D00290D1
:100FEC00003BE5E0F0E0FF7800C002C003C004C0A5
:100FFC0005C006C007C0007492C0E07423C0E07442
:10100C0080C0E0121763E58124FBF581D006D00582
:10101C00D004D003D002EAB50406EBB50502802655
:10102C00C002C003C004C005C006120C52D006D0CA
:10103C0005D004D003D0020ABA00010B90003CEAA0
:10104C00F0A3EBF0800D90003C74012AF0E43BA37C
:10105C00F080040E020FCC90206A75F080C004C0A2
:10106C0005120275D005D004020F8F020C2F9022AE
:10107C00E075F080120275120A87AA82AB83C374E2
:10108C00FF9A74079BE433FC60159022F475F08092
:10109C00C002C003C004120275D004D003D002EC0D
:1010AC0070D590239975F080C002C003120275D0E0
:1010BC0003D002C002C003120A87AC82AD83D003F6
:1010CC00D002C374FF9C74079D50199022F475F0E4
:1010DC0080C002C003C004C005120275D005D00444
:1010EC00D003D002C374FF9CE49D40C7900035EC44
:1010FC00F08A828B83020CB39023AD75F0801202C0
:10110C007590240D75F08012027590241E75F08078
:10111C0012027590245575F08012027590248C750E
:10112C00F08012027590206A75F08012027590247E
:10113C00C175F0801202759024CF75F08012027583
:10114C009024EE75F08012027590250D75F08012CA
:10115C00027590252E75F08012027590255A75F047
:10116C008012027590257E75F0801202759025A66E
:10117C0075F0801202759025CA75F0801202759078
:10118C00260775F0801202759023AD75F08002026F
:10119C007590226F75F080120275120A87AA82ABC5
:1011AC0083C374FF9A74079BE433FC60159022F49C
:1011BC0075F080C002C003C004120275D004D003C5
:1011CC00D002EC70D58A828B83020D7F90003E7426
:1011DC000CF090003F740CF0900040740CF09000F8
:1011EC0041740CF0900042740CF0900043740CF0BD
:1011FC00900044740CF0900045740CF09000467410
:10120C000FF0900047740CF0900048740CF09000B4
:10121C0049740CF090004A740CF090004B740CF074
:10122C0090004C740CF090004D740FF090004E74C4
:10123C000CF090004F740CF0900050740CF0900077
:10124C0051740CF0900052740CF0900053741FF019
:10125C00900054741FF0900055741FF0900056E4E9
:10126C00F0900057F0900058F0900059F090005A10
:10127C00E4F090005B7403F090005C7403F0900059
:10128C005D7403F090005E741FF090005FE4F090CA
:10129C000060F0900061F0900062F0900063E4F068
:1012AC00900064F0900065741FF0900066741FF05D
:1012BC00900067E4F09000687404F0900069740A80
:1012CC00F090006A740AF090006B7404F090006C5B
:1012DC00E4F090006D741FF090006E741FF090009D
:1012EC006F7401F09000707401F09000717401F053
:1012FC009000727401F09000737401F0900074749B
:10130C0001F0900075741FF0900076E4F090007777
:10131C00F0900078F0900079F090007AE4F0900072
:10132C007B7418F090007C7418F090007D7418F0A9
:10133C0090F800E0FAC0021201C9D00290263F7565
:10134C00F080C002120275D002900021743EF0A30E
:10135C007400F0A37400F0758200C002120490D0E7
:10136C0002900021744EF0A37400F0A37400F07589
:10137C008208C002120490D0029000217456F0A38F
:10138C007400F0A37400F0758210C002120490D0A7
:10139C0002900021745EF0A37400F0A37400F07549
:1013AC008218C002120490D0029000217466F0A33F
:1013BC007400F0A37400F0758220C002120490D067
:1013CC00029000217446F0A37400F0A37400F07531
:1013DC008228C002120490D002900021746EF0A3F7
:1013EC007400F0A37400F0758230C002120490D027
:1013FC00029000217476F0A37400F0A37400F075D1
:10140C008238C002120490D0029000137402F0755E
:10141C008203C002120172D002758201C002120155
:10142C00DBD0029000137402F0758202C00212012C
:10143C0072D002758200C0021201DBD00290001340
:10144C007402F0758201C002120172D00275820022
:10145C00C0021201DBD0029000137402F0758200FE
:10146C00C002120172D002758205C0021201DBD0DB
:10147C00029000137401F0758203C002120172D045
:10148C0002758202C0021201DBD0029000137403B9
:10149C00F0758203C002120172D002758207C0027D
:1014AC001201DBD0029000137403F0758200C002AD
:1014BC00120172D002758203C0021201DBD00290BD
:1014CC0000137404F0758200C002120172D0027510
:1014DC008204C0021201DBD0029000137405F07577
:1014EC008200C002120172D002758206C002120183
:1014FC00DBD0029000137409F0758203C002120154
:10150C0072D002758201C0021201DBD0029000136E
:10151C007409F0758202C002120172D00275820049
:10152C00C0021201DBD0029000137409F075820125
:10153C00C002120172D002758200C0021201DBD00F
:10154C00029000137409F0758200C002120172D06F
:10155C0002758205C0021201DBD0029000137408E0
:10156C00F0758203C002120172D002758202C002B1
:10157C001201DBD002900013740AF0758203C002D2
:10158C00120172D002758207C0021201DBD00290E8
:10159C000013740AF0758200C002120172D0027539
:1015AC008203C0021201DBD002900013740BF075A1
:1015BC008200C002120172D002758204C0021201B4
:1015CC00DBD002900013740CF0758200C002120183
:1015DC0072D002758206C0021201DBD00290F000BC
:1015EC00430280EAF0020097120BF590206A75F026
:1015FC008012027512032190F0007480F012009793
:10160C00900013E4F075820112017290264D75F072
:10161C00801202CB9000137404F0758202120172D6
:10162C0090265E75F0801202CB90006412006490DC
:10163C00266775F08012027590267175F080120283
:10164C007590268B75F0801202759026A175F0802E
:10165C00120275120C16AA82BA3E02804BBA4302D1
:10166C008055BA44028055BA45028055BA4702806B
:10167C0041BA4902805DBA4B02805EBA4E02804785
:10168C00BA50028048BA52028014BA53028014BA7B
:10169C0057028005BA5848801412107A80AC121187
:1016AC009D80A7120E4080A2121104809D120B1C6B
:1016BC008098120B888093120373808E12053C80E5
:1016CC00891201C902165612070802165612087D15
:1016DC00021656120AE50216561211D80216569028
:0B16EC0026B975F08012027502165638
:10203B000A0D456E746572204E756D626572730A7A
:10204B000D00436C656172696E6720746865204C86
:10205B00434420636F6D706C657465640A0D000AF0
:10206B000D00434752414D2076616C7565730A0D27
:10207B00000A0D43434F4445207C202056616C756C
:10208B0065730A0D003078253034783A202000250E
:10209B00303278202000444452414D2056616C75FB
:1020AB0065730A0D000A0D414444527C20202B30ED
:1020BB0020202B3120202B3220202B3320202B349F
:1020CB0020202B3520202B3620202B3720202B387F
:1020DB0020202B3920202B4120202B4220202B434A
:1020EB0020202B4420202B4520202B460A0D0A0DA7
:1020FB00003078253032783A2020000A0D456E7476
:10210B0065722056616C6964204E756D62657273E1
:10211B000A0D000A0D456E74657220656967687457
:10212B0020706978656C2076616C7565730A0D009B
:10213B00456E74657220666976652062696E6172A0
:10214B00792076616C75657320666F722065766594
:10215B00727920706978656C0A0D00496E76616C36
:10216B006964204E756D6265722E20456E746572C2
:10217B0020416761696E0A0D0045696768742063C9
:10218B007573746F6D20636861726163746572201F
:10219B00637265617465642E204E6F206D6F72657E
:1021AB0020637573746F6D2063686172616374650E
:1021BB007220706C656173650A0D004C6F6F6B203C
:1021CB00617420746865204C43440A0D00456E749D
:1021DB0065722074686520636861726163746572EF
:1021EB0020746F20646973706C61792E2048697458
:1021FB0020656E74657220746F2073746F700A0D96
:10220B00000A0D456E74657220726F77206E756DC6
:10221B006265720A0D000A0D456E74657220636F5C
:10222B00727265637420726F770A0D000A0D456E2A
:10223B0074657220636F6C756D6E206E756D626563
:10224B00720A0D000A0D456E74657220636F72720F
:10225B0065637420636F6C756D6E206E756D626552
:10226B00720A0D00456E7465722074686520616496
:10227B00647265737320696E206865780A0D000AB5
:10228B000D456E74657220636F72726563742061A5
:10229B006464726573732076616C75657320696E07
:1022AB00206865780A0D000A0D57726974696E67AC
:1022BB00203078253033583A203078253032580A80
:1022CB000D000A0D3078253033583A203078253000
:1022DB0032580A0D00456E74657220746865206172
:1022EB006464726573730A0D00456E7465722074B5
:1022FB00686520636F72726563742076616C7565B7
:10230B000A0D000A0D456E746572207468652073A2
:10231B0065636F6E642068696768657220616464C9
:10232B00726573730A0D00454550524F4D20646121
:10233B0074610A0D0041444452207C20202B302034
:10234B00202B3120202B3220202B3320202B34200C
:10235B00202B3520202B3620202B3720202B3820EC
:10236B00202B3920202B4120202B4220202B4320B7
:10237B00202B4420202B4520202B460A0D003078A3
:10238B00253033583A2000253032582020000A0DD2
:10239B00456E746572207468652056616C75650AAC
:1023AB000D000A0D7E7E7E7E7E7E7E7E7E7E7E7E16
:1023BB007E7E7E7E7E7E7E7E7E7E7E7E7E7E7E7E32
:1023CB007E7E7E7E7E7E7E7E7E7E7E7E7E7E7E7E22
:1023DB007E7E7E7E7E7E7E7E7E7E7E7E7E7E7E7E12
:1023EB007E7E7E7E7E7E7E7E7E7E7E7E7E7E7E7E02
:1023FB007E7E7E7E7E7E7E7E7E7E7E7E7E7E7E0A66
:10240B000D00454550524F4D20436F6E74726F6CEB
:10241B000A0D0050726573732027522720746F20AA
:10242B0072656164206120627974652066726F6DDC
:10243B0020746865207573657220696E70757420E1
:10244B00616464726573730A0D0050726573732057
:10245B0027572720746F207772697465206120627B
:10246B00797465206461746120746F207573657273
:10247B0020696E70757420616464726573730A0DE4
:10248B000050726573732027532720666F72207379
:10249B00657175656E7469616C207265616420622B
:1024AB0065747765656E2074686520616472657309
:1024BB007365730A0D004C434420436F6E74726F47
:1024CB006C0A0D0050726573732027432720666FCB
:1024DB007220434752414D204845582064756D701A
:1024EB000A0D0050726573732027442720666F72A4
:1024FB0020444452414D204845582064756D700A64
:10250B000D0050726573732027452720666F72206C
:10251B00436C656172696E6720746865204C434437
:10252B000A0D0050726573732027502720746F209B
:10253B00646973706C61792074686520637573745A
:10254B006F6D206368617261637465720A0D005070
:10255B007265737320274E2720746F20616464208B
:10256B00637573746F6D20636861726163746572F8
:10257B000A0D0050726573732027492720666F720E
:10258B00207072696E74696E67206C657474657205
:10259B0073206F6E204C43440A0D005072657373A9
:1025AB0020274B2720666F7220646973706C6179EA
:1025BB00696E6720746865206C6F676F0A0D005039
:1025CB00726573732027582720666F72206D6F76A4
:1025DB00696E672074686520637572736F722074FF
:1025EB006F207573657220696E70757420782C7905
:1025FB0020706F736974696F6E0A0D00507265738A
:10260B00732027472720666F72206D6F76696E6780
:10261B002074686520637572736F7220746F2075F8
:10262B0073657220696E7075742061646472657372
:10263B00730A0D004C6F6F6B206174204C43440A7E
:10264B000D00594F55204B4E4F57204E4F54484974
:10265B004E47004A4F4E20534E4F570057656C6301
:10266B006F6D650A0D00507265737320273E27202E
:10267B00666F722068656C70206D656E750A0D0053
:10268B00456E74657220746865206368617261635E
:10269B007465720A0D000A0D456E746572207468BC
:1026AB0065206368617261637465720A0D00456E23
:1026BB007465722074686520636F72726563742031
:0926CB006F7074696F6E0A0D0056
:0226DF000100F8
:06003200E478FFF6D8FDA2
:100010007902E94400601B7A019026DF78AE75A072
:1000200000E493F2A308B8000205A0D9F4DAF2754F
:02003000A0FF2F
:1016F700AA83AB828BF090007EE0A4F8A9F08AF071
:10170700E0A429F98BF0A3E0A429F583888222229B
:100038007800E84400600A790075A000E4F309D864
:10004800FC78AEE84400600C7901900000E4F0A36D
:04005800D8FCD9FAFD
:10171700C01A85811AAA82120C04D01A22AAF0AB29
:1017270083E582900081F0A3EBF0A3EAF0900081BB
:10173700E0FAA3E0FBA3E0FC900080E0FD900094BA
:10174700E4F0A3F0A3F0900097EAF0A3EBF0A3EC8A
:10175700F090009AEDF090171702187CC01A858157
:101767001AE51A24FBFA900094E4F0A3F0A3F0E53D
:101777001A24FBF8900097E6F008A3E6F008A3E622
:10178700F090009AEAF090171712187CAA82AB83A0
:10179700D01A22E582900090F0900090E0FA900035
:1017A70086E0C0E0A3E0C0E0A3E0C0E074C8C0E00A
:1017B7007417C0E0900084E0C0E0A3E0C0E08A8234
:1017C7002215811581158190008EE0FAA3E0FB9028
:1017D700008E74012AF0E43BA3F022E58290009189
:1017E700F0900091E0FA74302AFA24C6500A740780
:1017F7002AFA3000034302208A8202179AE5829070
:101807000092F0900092E0FAC4540FFBF582C002F8
:101817001217E2D00253020F8A820217E2E5829082
:101827000093F0900089E0FAA3E0FBA3E0FCA3E0BB
:10183700FD90008DE0FE900093E0FF7820EE2EFEF5
:10184700ED235401F94206EA2AFAEB33FBEC33FCA9
:10185700ED33FDC3EE9F4007EEC39FFE430201D861
:10186700DC900089EAF0A3EBF0A3ECF0A3EDF09095
:10187700008DEEF022AA83E58290009BF0A3EAF0A8
:1018870090009BE0FAA3E0FB900084EAF0A3EBF062
:10189700900094E0FAA3E0FBA3E0FC900086EAF056
:1018A700A3EBF0A3ECF090008EE4F0A3F090009788
:1018B700E0FAA3E0FBA3E0FC8A828B838CF0122082
:1018C70002FD90009774012AF0E43BA3F0A3ECF02B
:1018D700ED7003021FA3BD25028003021F9BC201F7
:1018E700C202C203C204C205C206C207C2089000F0
:1018F7009DE4F090009EF090009F74FFF090009799
:10190700E0FAA3E0FBA3E0FC8A828B838CF0122031
:1019170002FEA3AA82AB83900097EAF0A3EBF0A3A1
:10192700ECF09000A1EEF0BE25088E8212179A0205
:1019370018B48E07BF300040498E07EF24C64042D7
:1019470090009FE0FFBFFF29C002C003C0049000C2
:101957009EE0FA75F00AA4FAEE24D090009E2AF0D1
:1019670090009EE0FAD004D003D002709BD2028090
:1019770097EF75F00AA4FFEE24D090009F2FF00296
:10198700190F9000A1E0FEBE2E0890009FE4F00220
:10199700190F8E82C002C003C004C00612201EE5C4
:1019A7008224FF9200D006D004D003D00230000773
:1019B7009000A174DF5EF09000A1E0FEBE200280DF
:1019C70055BE2B02804BBE2D028041BE4202804B8A
:1019D700BE43028050BE4403021C10BE4603021CD5
:1019E70032BE4903021C10BE4C028034BE4F0302B4
:1019F7001C1ABE5003021B72BE53028042BE55031F
:101A0700021C22BE5803021C2A021C36D2010219EC
:101A17000FD20302190FD20402190FD20602190FAF
:101A2700D20702190F90009AE0FA24FEF890009A64
:101A3700F08602088603188A8212179A021C4290BF
:101A4700009AE0FA24FDF890009AF08602088603CF
:101A57000886041818900089EAF0A3EBF0A3ECF0CD
:101A6700900089E0FAA3E0FBA3E0FC8A828B838CD9
:101A7700F0121FAFAA82AB8390009FE0FBBBFF056C
:101A870090009FEAF020013890009EE0FBC3EA9B9C
:101A9700502E90009EEBC39AF090009EE0FB8B04C3
:101AA7001B90009EEBF0BC00028010758220C002E4
:101AB700C00312179AD003D00280E390009EEBF088
:101AC70090009FE0FDC002900089E0FCA3E0FFA327
:101AD700E0FA8C828F838AF0122002D00260538D45
:101AE700041DC374808CF063F08095F05044C002ED
:101AF700900089E0F515A3E0F516A3E0F51774014A
:101B07002515FBE43516FAAC17900089EBF0A3EA2C
:101B1700F0A3ECF08515828516838517F012200255
:101B2700FAF582C002C00512179AD005D002D0027A
:101B37008093200103021C4290009EE0FBC3EA9BB6
:101B47004003021C4290009EEBC39AF090009EE077
:101B5700FA8A031A90009EEAF0BB0003021C3D7547
:101B67008220C00212179AD00280E690009AE0FB0A
:101B770024FDF890009AF086030886040886071863
:101B870018900089EBF0A3ECF0A3EFF090008BE046
:101B9700FB247F50089000A17443F08020EB249F22
:101BA70050089000A17450F08013EB24BF500890A8
:101BB70000A17449F080069000A17458F09000A12C
:101BC700E0FBF582C00312179AD00375823AC0036F
:101BD70012179AD003758230C00312179AD0037573
:101BE7008278C00312179AD003BB4902800FBB50FB
:101BF70002800A90008AE0FBF5821218049000899F
:101C0700E0FBF5821218048032D20590009D740A19
:101C1700F0802890009D7408F0802090009D740A41
:101C2700F0801890009D7410F08010D208800C8E00
:101C37008212179A800590009EEAF030086B900098
:101C47009AE0FA24FCF890009AF0860208860308C6
:101C57008604088606181818900089EAF0A3EBF0A6
:101C6700A3ECF0A3EEF090008974D4F0A37426F0EF
:101C7700A37480F0900089E0FBA3E0FCA3E0FD746F
:101C8700012BFEE43CFF8D02900089EEF0A3EFF0FC
:101C9700A3EAF08B828C838DF0122002FA70030284
:101CA70018B48A8212179A80CB90009DE0FABA0086
:101CB700030218B49000A874A7F0A37400F03006CC
:101CC7004C90009AE0FA14F890009AF08602EA33F2
:101CD70095E0FBFCFE900089EAF0A3EBF0A3ECF0A3
:101CE700A3EEF0300503021D8A900089E0FAA3E015
:101CF700FBA3E0FCA3E0FE7B007C007E0090008954
:101D0700EAF0A3EBF0A3ECF0A3EEF0807630072A1D
:101D170090009AE0FA24FCF890009AF08602088670
:101D270003088604088606181818900089EAF0A3A5
:101D3700EBF0A3ECF0A3EEF0804990009AE0FA24D0
:101D4700FEF890009AF0860208860318EB3395E0B8
:101D5700FCFE900089EAF0A3EBF0A3ECF0A3EEF011
:101D6700200520900089E0FAA3E0FBA3E0FCA3E0B4
:101D7700FE7C007E00900089EAF0A3EBF0A3ECF074
:101D8700A3EEF030053E900089E0FAA3E0FBA3E064
:101D9700FCA3E0FE30E72B900089E0FAA3E0FBA369
:101DA700E0FCA3E0FEC3E49AFAE49BFBE49CFCE4BA
:101DB7009EFE900089EAF0A3EBF0A3ECF0A3EEF00F
:101DC7008002C205D20990009DE0FC7518A775191D
:101DD700007D0090008DE4F08C82C004C0051218CD
:101DE70024D005D004200932C00490008DE0FFC440
:101DF700FF851882851983E0FA42078518828519BD
:101E070083EFF0151874FFB5180215199000A8E5AF
:101E170018F0A3E519F0D004800C90008DE0FF8541
:101E27001882851983F00D9000A0EDF0B20990009B
:101E370089E0FFA3E0FAA3E0FEA3E0FBEF4A4E4BE5
:101E470070919000A8E518F0A3E519F09000A0EDB7
:101E5700F090009EE0FA700690009E7401F0200258
:101E67002720012474012DFA90009EE0FBC3EA9B12
:101E77005011758220C002C00312179AD003D002F6
:101E87001B80EA90009EEBF030051275822D121729
:101E97009A90009EE0FA1490009EF0802F9000A088
:101EA700E0FA602830031275822B12179A90009E71
:101EB700E0FA1490009EF08013300410758220120F
:101EC700179A90009EE0FA1490009EF020012F9040
:101ED70000A0E0FA90009EE0FB8B041B90009EEBB5
:101EE700F0C3EA9C50363002047C3080027C208CA0
:101EF70082C002C00312179AD003D00280DB900081
:101F07009EE0FA9000A0E0FCC39A500990009EEA78
:101F1700C39CF0800C90009EE4F0800590009EEB3F
:101F2700F09000A8E0FAA3E0FB9000A0E0FC8C068C
:101F37001CEE6040B2092009150ABA00010B8A821B
:101F47008B83E0FEC4540FFE90008DF0800E8A82D2
:101F57008B83E0FE53060F90008DEEF090008DE02E
:101F6700FEF582C002C003C0041217E2D004D003FA
:101F7700D00280BA2001030218B490009EE0FA8ACA
:101F8700031AEB70030218B4758220C00212179A65
:101F9700D00280EB8D8212179A0218B490008EE05F
:081FA700FAA3E08A82F583220F
:0B26D4003C4E4F20464C4F41543E004E
:101FAF00AAF0AB83E5829000AAF0A3EBF0A3EAF0CE
:101FBF007A007B009000AAE0FCA3E0FDA3E0FE8C7A
:101FCF00828D838EF0122002FFA3AC82AD8390002E
:101FDF00AAECF0A3EDF0A3EEF0EF60070ABA00DF72
:101FEF000B80DC9000AAECF0A3EDF0A3EEF08A8258
:031FFF008B8322AF
:0D000300758121120BE3E582600302005FAE
:1020020020F71430F6148883A88220F507E6A88307
:1020120075830022E280F7E49322E022E5829000B9
:10202200ADF09000ADE0FABA61004009EA248540C3
:092032000475820122758200226E
:00000001FF
